:02000004C0D06A
:10000000B0B58CB062B6164CFC21204604F090FDD1
:1000100004F0B2FB01F0AAF96D46284604F01EFE7A
:10002000A88585B26846002D0BD0002181850A98ED
:1000300002F0D2FC102DE7D000F0B8FF00200CB089
:10004000B0BD02F0C9FC0A9001F0EEFB002004F004
:10005000E3F8012004F0E0F800F01AFB00F04EFE97
:1000600080180020F0B587B006AD552028700595A2
:1000700001206946886005A8486000240C606B4830
:10008000784440219F23224601F0E8F9002800D15E
:10009000C5E02878012800D0C1E004F06DFB2046BF
:1000A00004F09EFB5F4E62487844B0622C27032028
:1000B000F055604979447163346364217054B466C7
:1000C0003046643002F022FC0425284602F090FC01
:1000D000B06601F0C5FB01F0C5FBF484284602F0D0
:1000E00087FCB066B16AAA2500292CD000282AD046
:1000F000972828D0F08CF15D80B2884223D202F09C
:1001000043FC00281FD102F0C5FBA84203D102F036
:10011000F1FBA84217D1B06AF18C49014018316B4C
:10012000002902D08847002807D0012803D1B06AEF
:10013000F18C4901401800F0C5FAF08C401CF084A5
:10014000B16A0029D7D12C27F05D0390F48C364892
:100150008021002202F024FC01F020FB039884425D
:100160003AD20497B06A002828D0F08CF15D80B2B2
:10017000884223D202F008FC00281FD102F08AFB3B
:10018000A84203D102F0B6FBA84217D1B06AF18CA5
:1001900049014018316B002902D08847002807D058
:1001A000012803D1B06AF18C4901401800F08AFAA5
:1001B000F08C401CF084B16A0029D7D1F45D2F4641
:1001C000F58C80210022184802F0EAFB01F0E6FAE3
:1001D000A5423D46049FC5D301F002FA124C80218E
:1001E0000022204602F0DCFB01F0FAF98021002217
:1001F000204602F0D5FB01F0D1FA02F0C5FB002841
:1002000002D0706B0028F1D104F0CAFA01F028FB8B
:1002100001F028FB04488021002202F0C1FB07B056
:10022000F0BDC0468018002000180020BC5400001B
:10023000644C00008101000004490840884202D15A
:1002400003480021416300207047C046030000803E
:1002500080180020F0B595B00146107853781B0245
:1002600003439078D2781202024310041843474E99
:100270003060012915D1002402AD21462A4600F044
:1002800037FF294608314C4801F024F84C22284613
:10029000214601F08BF809200003142100F002FA36
:1002A00071E01A980190701D39A11022009201F09E
:1002B00062F80025757530462D303AA10A2201F00A
:1002C0005AF83268373630462B4600F0D3FE3018E5
:1002D00037A1022201F04FF8364F38487844B8620F
:1002E0002C24052038553648784478633D636420D3
:1002F00003213954BD663846643002F007FB0426FA
:10030000304602F075FBB86601F0AAFA01F0AAFACD
:10031000FD84304602F06CFBB866B96A00292DD026
:1003200000282BD0972829D0F88C395D80B28842DC
:1003300024D202F029FB002820D1AA2502F0AAFA33
:10034000AA2803D102F0D6FAA84217D1B86AF98CCC
:1003500049014018396B002902D08847002807D08E
:10036000012803D1B86AF98C4901401800F0AAF9B4
:10037000F88C401CF884B96A0029D6D10199086824
:10038000009A1043086015B0F0BDC0467C190020EB
:1003900047656E657261746520416464726573734C
:1003A0000000000066726F6D204B6579202300000D
:1003B0003F00000080180020181A0020904A00001A
:1003C000D9000000F0B59DB0514988420AD051498A
:1003D000884200D099E05948002100F063F900F00C
:1003E00057F992E04C4D286800240AAE2146324667
:1003F00000F07EFE31460831484800F06BFF4C2289
:100400003046214600F0D2FF09200003142100F0FD
:1004100049F9681D42A1102200F0ADFF2E46747507
:10042000553644A10222304600F0A5FF6F4628252C
:1004300038463A492A46234600F0DCFD3648573014
:1004400039462A4600F097FF7F2033490C5408466E
:100450000D4680300C22314600F08DFF8C202C544C
:100460002C71354E36487844B0622C270520F05563
:1004700034487844706334487844306364200321FE
:100480003154B4663046643002F040FA0425284600
:1004900002F0AEFAB06601F0E3F901F0E3F9F4849A
:1004A000284602F0A5FAB066B16A00292DD00028CE
:1004B0002BD0972829D0F08CF15D80B2884224D2CD
:1004C00002F062FA002820D1AA2402F0E3F9AA2857
:1004D00003D102F00FFAA04217D1B06AF18C4901A2
:1004E0004018316B002902D08847002807D0012826
:1004F00003D1B06AF18C4901401800F0E3F8F08CA8
:10050000401CF084B16A0029D6D100201DB0F0BD96
:1005100002000080010000807C190020181A0020D1
:10052000436F6D7061726520416464726573733AE4
:10053000000000004D780000801800208569000050
:10054000A6490000D70000001901000080B501286D
:1005500008DD02280FD00C4988420CD00B49884294
:1005600005D00EE00A49884209D0012809D10020AF
:1005700000F024F805E0012000F020F801E000F090
:1005800087F8002080BDC046020000400100004006
:100590000300008008490B794278012A03D1002B1F
:1005A00001D10020704700211E2B00D00146022AF5
:1005B00000D00146084670477C190020B0B50146BE
:1005C00029480279AA24002903D001211D2A04D92F
:1005D00048E021465531002A44D051180171C9B272
:1005E0004118553180300C2200F0C5FE01F038F979
:1005F00001F038F91D4D0020E884042002F0F8F9DC
:10060000A866A96A00292DD000282BD0972829D0C8
:10061000E88C2C21695C80B2884223D202F0B4F9C4
:1006200000281FD102F036F9A04203D102F062F98E
:10063000A04217D1A86AE98C49014018296B00290A
:1006400002D08847002807D0012803D1A86AE98C86
:100650004901401800F036F8E88C401CE884A96A8B
:100660000029D6D1B0BDC0467C19002080180020DA
:1006700080B5064800210170012242708170092076
:100680000003032100F00EF880BDC046181A0020B8
:1006900080B5034979440020024603F0D9FF80BDAC
:1006A0008848000080B5020A054B5A544A1C92B291
:1006B0009854881C81B2202001F0CAF980BDC04640
:1006C000181A002080B501F027F980BDF0B581B07F
:1006D000DC4E3078AA250C2863DD0D2800D1BAE065
:1006E0000E2800D100E1152861D12F46FB48807902
:1006F000012803D1B079000700D4D8E26420F84C77
:10070000012121540025A5662046643002F0FEF840
:10071000042002F06DF9A066692800D015E201F00E
:100720009FF801F09FF8E584042002F061F9A066CB
:10073000A16A00293D4600D1B0E2002800D1ADE217
:10074000972800D1AAE2E08C2C21615C80B288421B
:1007500000D3A3E202F018F9002800D09EE202F0D4
:1007600099F8A84204D102F0C5F8A84200D095E259
:10077000A06AE18C49014018216B002902D088470A
:10078000002807D0012803D1A06AE18C4901401854
:1007900001F0C2F8E08C401CE084A16A0029D3D1AA
:1007A0007CE2052800D1F4E00C2800D176E22E4648
:1007B0006420CB4C012121540025A56620466430DD
:1007C00002F0A4F8042002F013F9A066692800D012
:1007D00088E101F045F801F045F8E584042002F0D5
:1007E00007F9A066A16A0029354600D156E2002823
:1007F00000D153E2972800D150E2E08C2C21615CBB
:1008000080B2884200D349E202F0BEF8002800D04E
:1008100044E202F03FF8A84204D102F06BF8A8428B
:1008200000D03BE2A06AE18C49014018216B00290D
:1008300002D08847002807D0012803D1A06AE18CA4
:100840004901401801F068F8E08C401CE084A16A7E
:100850000029D3D122E26420A14C01212154002699
:10086000A6662046643002F051F8042002F0C0F879
:10087000A066002800D111E2692800D198E19728EC
:1008800000D10BE2A06A002800D100E2E08C2C210C
:10089000615C80B2884200D3F9E102F075F800286B
:1008A00000D0F4E101F0F6FFA84204D102F022F8F2
:1008B000A84200D0EBE1A06AE18C49014018216B0D
:1008C000002902D08847002807D0012803D1A06A58
:1008D000E18C4901401801F01FF8E08C401CE084D5
:1008E000A16A0029D3D1D2E100956427F14E0120FD
:1008F000F0550025B5663046643002F007F8042054
:1009000002F076F80446B466692C00D09CE000F052
:10091000A7FF00F0A7FFF584042002F069F8B06695
:10092000B16A0029009C00D1B8E1002800D1B5E1EE
:10093000972800D1B2E1F08C2C21715C80B2884202
:1009400000D3ABE102F020F8002800D0A6E101F0CE
:10095000A1FFA04204D101F0CDFFA04200D09DE153
:10096000B06AF18C49014018316B002902D08847E8
:10097000002807D0012803D1B06AF18C4901401842
:1009800000F0CAFFF08C401CF084B16A0029D3D17A
:1009900084E16420C74C012121540027A76620462A
:1009A000643001F0B3FF042002F022F8A0660028B2
:1009B00000D173E1972800D170E1692800D032E1BD
:1009C00000F04EFF00F04EFFE784042002F010F824
:1009D000A066A16A002900D160E1002800D15DE194
:1009E000972800D15AE1E08C2C21615C80B28842CA
:1009F00000D353E101F0C8FF002800D04EE101F020
:100A000049FFA84204D101F075FFA84200D045E19A
:100A1000A06AE18C49014018216B002902D0884767
:100A2000002807D0012803D1A06AE18C49014018B1
:100A300000F072FFE08C401CE084A16A0029D3D151
:100A40002CE1C04600180020F06B0028009D0DD05E
:100A50006428014600D33946401AF06306D1B16BD1
:100A6000002903D0306CF06300208847002C00D1AF
:100A700014E1972C00D111E1B06A002829D0F08C44
:100A80002C21715C80B2884223D201F07DFF0028C6
:100A90001FD101F0FFFEA84203D101F02BFFA842B5
:100AA00017D1B06AF18C49014018316B002902D08E
:100AB0008847002807D0012803D1B06AF18C49018A
:100AC000401800F029FFF08C401CF084B16A002926
:100AD000D6D12C20305CF18CDCE0C0466C1B0020B1
:100AE00080180020A06A0028354600D1CFE0E08CB5
:100AF0002C21615C80B2884200D3C8E001F044FF41
:100B0000002800D0C3E001F0C5FEA84204D101F0E6
:100B1000F1FEA84200D0BAE0A06AE18C4901401879
:100B2000216B002902D08847002807D0012803D173
:100B3000A06AE18C4901401800F0EEFEE08C401CF8
:100B4000E084A16A0029D3D1A1E0A06A00283D4633
:100B500000D19CE0E08C2C21615C80B2884200D303
:100B600095E001F011FF002800D090E001F092FE26
:100B7000A84204D101F0BEFEA84200D087E0A06ADE
:100B8000E18C49014018216B002902D088470028D8
:100B900007D0012803D1A06AE18C4901401800F078
:100BA000BBFEE08C401CE084A16A0029D3D16EE03A
:100BB00000F056FE00F056FEE684042001F018FF17
:100BC000A066A16A002969D0002867D0972865D05F
:100BD000E08C2C21615C80B288425FD201F0D4FEAF
:100BE00000285BD101F056FEA84203D101F082FE3D
:100BF000A84253D1A06AE18C49014018216B002919
:100C000002D08847002807D0012803D1A06AE18CD0
:100C10004901401800F080FEE08C401CE084A16A8D
:100C20000029D6D13AE0606B002803D0F17849085A
:100C300000F0B6FEA06A002829D0E08C2C21615C6F
:100C400080B2884223D201F09FFE00281FD101F01C
:100C500021FEA84203D101F04DFEA84217D1A06A9F
:100C6000E18C49014018216B002902D088470028F7
:100C700007D0012803D1A06AE18C4901401800F097
:100C80004BFEE08C401CE084A16A0029D6D12C20C8
:100C9000205CE18C814201D301F076FE01F074FE0C
:100CA000002801D100F09CFC012001B0F0BD102013
:100CB00000F09CFB80180020B0B5054607202840B6
:100CC0000024012813D0022813D1002908D00A4893
:100CD00001F04EFE68B2002809DA01F049FD06E095
:100CE000FF2152310448002201F05AFE04462046FA
:100CF000B0BD022000F07AFB181A0020F0B593B0C6
:100D000000201290119002901090724E9C4F7F44E0
:100D10000FA80299018003AC204603F09FFF05460F
:100D2000A585ACB2002C3AD103A801F055FE0D9078
:100D3000119812900024119410981299C0B289B29F
:100D400000F086FE12901094129800282FD0307870
:100D5000E0282FD1707801283C4608D0042804D020
:100D600002282BD1874C7C4401E0874C7C443379AA
:100D7000F178B07811AA6D466A6010AA2A60721DD7
:100D8000A04701F01DFE03A9884202D10D9801F091
:100D900023FE03A8808D0028BAD000F027FB102C7A
:100DA00010D103A8029981850D9801F015FE10203D
:100DB00000F01CFB3720400200F018FB6D20000201
:100DC00000F014FB03A8029981850D9801F004FE40
:100DD00041A0214601F04CF9092C0BDD0D2C14DD4E
:100DE000102C23DD112C3AD0122C3AD0132C4AD1DE
:100DF00047A04AE0052C10DC032C1DDC022C32D06D
:100E0000032C40D1614878443FE00B2C1BDC0A2CBA
:100E100001D00B2C37D151A037E0072C19DC062C60
:100E200024D0072C2FD15B4878442EE00E2C20D004
:100E30000F2C28D13BA028E0042C1CD0052C22D15B
:100E40005348784421E00C2C18D00D2C1BD13BA02A
:100E50001BE0082C14D0092C15D144A015E029A0C2
:100E600013E024A011E04C4878440EE04C4878444C
:100E70000BE02FA009E04948784406E033A004E0E5
:100E80004848784401E04848784401F0F1F80F20E0
:100E90000003284009210903884203D003214903A4
:100EA000884202D10FA8058006E0344805400D2095
:100EB000C00228430FA908800F9811994A1C11926B
:100EC000000A70540F9811994A1C119270542046D0
:100ED00000F08CFA181A00204572726F72206F634E
:100EE0006375727265643A205B3078253034785DC2
:100EF0002000000053797374656D206572726F7203
:100F00000A000000435820706F72740A000000004D
:100F10004E6F7420656E6F756768207370616365CE
:100F20000A000000494F2073746174650A000000D4
:100F3000494F206865616465720A0000494F206F5F
:100F4000766572666C6F770A000000004170702051
:100F500065786974206572726F720A0054696D65F4
:100F60006F7574206572726F720A0000496E766147
:100F70006C69642073746174650A0000FF070000E7
:100F80005FF9FFFFEBF4FFFF5D160000D3410000A7
:100F9000B7410000F04100005E41000071410000D7
:100FA00098410000A7410000AE41000010B58CB090
:100FB0006C46204603F052FEA0850D49084206D13A
:100FC000684601F009FD0A90FF2001F0C5FC01F020
:100FD000F7FC6946884202D10A9801F0FDFC684698
:100FE000808D002801D10CB010BD00F0FFF9C04683
:100FF000FFFF0000F0B584B00191039002921A4304
:10100000002A25D000242646274600930198825DB9
:10101000120913A18A5C21467400039B1A5501250D
:101020002C43825D0F2010400DA2105C18550C4619
:10103000761C6741029886422A4600D32246009BCE
:101040009F4200D325469F4200D02A46002ADDD188
:101050000298410000220398425404B0F0BDC046FB
:10106000303132333435363738396162636465661E
:1010700000000000F0B583B01146194300292ED0BE
:10108000029000240092174601931E4625460A222C
:1010900038463146234603F041FC01220A2F00D393
:1010A0002246002E00D022466D1C002A07460E461E
:1010B000EDD0681E002810DB0298441E2E460199D0
:1010C000009F0A220023384603F028FC0746302000
:1010D0001043A055761E002EF3DC029802E030216A
:1010E0000170012500214155284603B0F0BD0000E4
:1010F000F0B5B7B00892099125A9059121270F7085
:1011000012A906910F7025A20FA90B4670CA70C3D1
:1011100001220792D20713462C330A9310433C3224
:101120000B920C9000260D960E960C206A46D0600D
:10113000916056602FAD15600AAA052330463946E6
:1011400001F0B4FB202238462946059C234601F0D5
:1011500059FB384631463246069D2B4601F042FB8C
:10116000384629462246079B01F05CFB0898002878
:1011700003D012A94C2203F0E1FC099D002D06D0FA
:1011800025A80EC80EC50EC80EC51EC81EC525A8AA
:101190000021282200F00AF937B0F0BD42697463DB
:1011A0006F696E2073656564F0B5D5B00D920790D8
:1011B0004BAD0024084629462246FFF799FF012738
:1011C000319731A86946C86064200990886032AEC2
:1011D0004E60202008603E49032228460D9B01F006
:1011E00031FB28222846214600F0E0F831981B30D8
:1011F00030A908910870F5780696361D27A80D903D
:1012000031462A4600F0B7F870194678811C1EA8AE
:101210000C90324600F0AFF8202D384600D820461A
:101220000D99097800290B97394600D021460840CE
:101230000D9909182D1A0C98077816A80A902A46B5
:1012400000F099F8002F0B99084600D02046202E78
:101250000A4600D8224602400C988118B71A0EA8F8
:1012600005903A4600F087F8079E30460A992A46CC
:1012700000F081F875192846059E31463A4600F07F
:101280007AF8E819089F39460B9A00F074F8069826
:101290002146099D2A4600F089F80D9821462A46E4
:1012A00000F084F80C9821462A4600F07FF80A984E
:1012B00021462A4600F07AF8304621462A4600F0B8
:1012C00075F8384621462A4600F070F855B0F0BD52
:1012D00001060000F0B5FFB088B00390491C77AD5F
:1012E00040220292284600F046F813A041212A46E7
:1012F00000F0BEFE0124210204AE304601F064FA83
:101300002020694648606FAF0F60304621462A466C
:10131000029B01F045FA0C370FA0142421463A46EF
:1013200000F0A6FE03983946224600F024F8204635
:101330007FB008B0F0BDC04664726F707065645FC6
:101340006669727374206275666665723A0A202552
:101350002E2A48200A0A0000616464726573733A99
:101360000A204D78252E2A68200A0A0080B5002020
:1013700001F032FB80BDB0B588420DD9002A14D0EF
:10138000491E5242401E0023DB431C4654430D5D60
:101390000555521CF9D108E0002A06D000239CB262
:1013A0000D5D05555B1C521EF9D1B0BD80B50B46D5
:1013B000002A03D011461A4603F0C4FB80BD70B565
:1013C000431E491E52420020C443002A0CD0264628
:1013D00056438D5D9E5D521CAE42F6D00020C14347
:1013E0000120AE4200D80846C0B270BD10B5044618
:1013F000724604A0214600F03BFE01F0E1FA2146CE
:1014000003F038FC657863657074696F6E5B256402
:101410005D3A204C523D3078253038580A000000A3
:10142000B0B582B0019200920023002A0CD0521E67
:101430000023845C8D5C65402B43541E002A2246A9
:10144000F7D1601C0190009000980199884202D168
:10145000D8B202B0B0BD0120FFF7C8FFF0B58BB025
:1014600009905E48109C264606400025002900D1C0
:101470009DE00696119E002E00D198E00A920891F8
:101480000596401C039420400290002804D1059842
:101490000068002800D18AE000250A9800282A4622
:1014A00000D002680898022800D280E004920195DA
:1014B00012990091D9B20791099B801E9E1C0028A9
:1014C00074D01F785A7851B2002902DB3346114696
:1014D00011E080316AD07F210A400024214633196F
:1014E000A24207D00D0219782943641C0025A042AE
:1014F000F5D15CE0001B079A97420A9C13D1002C9F
:101500001AD0099A9A1A226007240025049E96424E
:1015100000D82C46072C06D0002C0DD000250499AD
:10152000914206D943E05B188842024600D30A463E
:10153000801A0128C1D839E0069A824236D89142F1
:10154000019D34D301220025039C002C00DA2A4699
:10155000069C0C1B009EB44201D0012A27D1844274
:1015600000D30446B4420899069A00D82646B0181B
:101570008A421CD88E421AD8884218D809988342C9
:1015800015D39F18874212D33246F61986420ED3DE
:1015900041188B420BD88F4209D88E4207D8029847
:1015A000002807D005980760254600E0019D2846E1
:1015B0000BB0F0BD059800680399002904DB39469B
:1015C0001546FFF7D8FEF2E73946FFF729FF012558
:1015D00000210028EBD00D46E9E7C046FFFFFF3FA2
:1015E00080B501F0D1F900280BD1064860210170C7
:1015F0000021417002228270C1700171052101F049
:10160000B7F980BD00180020B0B51A48C07803288B
:1016100007DC01280DD0022828D1174802F0FBF979
:10162000B0BD04281FD0082820D1134802F0F1F9DA
:10163000B0BD114C0121204602F0E6F9204602F02F
:10164000C2F90E4CA079002811D120460C3000259B
:1016500007222946FFF7AAFE14340E222046294607
:10166000FFF7A4FEB0BD044802F0D1F9B0BD1020D0
:10167000FFF7BCFE00180020381C00206C1B002067
:101680007F2101400020062903D8C8B2014908186B
:10169000007B70476C1B002080B516480179042937
:1016A00018D0022906D0012922D1811D134802F049
:1016B00083F880BDC2787F211140062918D8C9B2AD
:1016C0004A000D4B9A1800239382821D0B4802F0AA
:1016D00001F980BDC2787F211140062908D8C9B21E
:1016E000054A521843791373821D044802F093F897
:1016F00080BDC046001800206C1B0020381C002054
:1017000070B515460E460446FF2D1BD80E485021D5
:101710000170E91C0A0A4270817080212143C17066
:10172000202101714571062101F022F93046294638
:1017300001F01EF97F2020404000044908187D2157
:101740000901818270BDC046001800206C1B00207A
:1017500080B50A46014682201423FFF7D1FF80BDE1
:1017600010B50B480178002911D10A498B784A78C5
:10177000062484710A24047012021A437D237D2AF0
:1017800000D31A464280C91C0348FFF7F4FD10BD80
:101790006C1B002000180020181A0020B0B51F484C
:1017A000827841780902114300780F2809DC0E285D
:1017B0000ED00F2822D10020012929D1FFF724FFC4
:1017C00025E010281ED0162818D1FFF7C9FF1EE00B
:1017D00013488168643181600021421A138C002B08
:1017E00009D06424642B1D4600D325465B1B13845B
:1017F0000C4A13420DD0891C0E29EED10220FEF7AF
:1018000065FFB0BD0020032902D3FFF745FF01208B
:10181000B0BD002101701020FFF7E8FD0018002086
:101820006C1B0020FFFF0000B0B50A2000F094FF01
:10183000094C0025242220462946FFF7B7FD2570D4
:101840006580A571A56000F063FB044805604560F4
:10185000FEF708FCB0BDC0466C1B0020901B0020AA
:101860007047000002480021016041607047C04697
:10187000901B0020F0B589B00546084600F090FDA9
:101880000446002C43D02069002840D0284600F0B0
:1018900087FD014602AD1C2228460192FFF76BFD31
:1018A0002168E98062682A81A0681A4F65233B702D
:1018B00092B242438BB25343D9084E1C07221342C3
:1018C00000D10E46314600910426864070181D3026
:1018D000010A7970B8700321384601F049F82846AA
:1018E000019901F045F8A06838700121384601F0EF
:1018F0003FF8E06800F054FDB1B201F039F800980B
:1019000085B2206900F04CFD294601F031F809B09C
:10191000F0BDC0460018002070B500F041FD04463F
:1019200020787F26064001F02FF8002830D1002EC5
:101930002ED0E06900281DD000F032FD0546052EAE
:1019400002D1A07E002824D0284603F0A1F9064643
:1019500012486521017031461C310A0A42708170BB
:10196000032101F005F81C21204601F001F8B1B275
:1019700028460BE0094865210170002141701C25B3
:101980008570032100F0F4FF2046294600F0F0FFA7
:1019900070BD20462946FFF76DFF70BD001800207E
:1019A000F0B581B00446002C27D01548076845687B
:1019B000144E8F4201D16D1C45600F43002902D0A7
:1019C00007603A4604E0002202604260731C1F4335
:1019D0008A4201D000214160082D0BD30321284603
:1019E00002F096FF012080073843002900D03846D6
:1019F000304000E038462946A04701B0F0BDC0465F
:101A0000901B0020FFFFFF7FF0B581B00F4E012437
:101A10003470B11CA72047007A1C204600F08EFFCE
:101A2000054675707A1B7719F91C022000F086FFB5
:101A3000B8702D187619F47000F074FF3071902092
:101A400070710020B071E81D01B0F0BD181A0020BF
:101A5000F0B58BB00B4607460720074207D03C463F
:101A6000E0B21946FFF728F980B20BB0F0BD009044
:101A7000A348019083200690A34EA24D3C4610211E
:101A8000384608409AB2002A079700D1AFE00028F4
:101A900000D0ACE0029304920391059007E080210E
:101AA0000022284600F07CFF012000F045F900F0FC
:101AB0006BFF0028F3D17D200001B1680F1830784A
:101AC00008281CDD0928049A22D00A285FD19148F1
:101AD000029908404008A92800D30EE1532028703D
:101AE000100A6870A97003212846144600F040FFD0
:101AF0008748214600F03CFF0020307062E0072854
:101B0000049A41D18B487844114600F06DFA56E0B2
:101B100000217E4C2046029101F060FC10E0FFF7AE
:101B20005FFD80210022284600F03AFFB068B842ED
:101B300000D3DCE0FFF732FE00F026FF0028F0D1F2
:101B4000204601F07FF90028E9D0049AD41D6008EE
:101B5000A92800D3D1E006980D306D498854881823
:101B6000029B4370921C01980240481DFFF703FC42
:101B7000052267480299FFF719FCA3B2634806994A
:101B8000634A01F03FFC1AE0002800D1B2E0E0B265
:101B90001146FFF791F8002811D0ABE0FFF720FDC8
:101BA00080210022284600F0FBFEB068B84200D336
:101BB0009DE0FFF7F3FD00F0E7FE0028F0D130785C
:101BC0000028EBD100203070B0717080079FB906FB
:101BD00000D549E7FFF704FD38060598039906D5B7
:101BE000089108AA4C4B1846114601DF05980028B9
:101BF00004D1780674D400203070B0710020708059
:101C000000F0C2FE002801D1FFF7EAFC8024002783
:101C1000284621463A4600F0C3FE022806D8A97895
:101C20006A7812020A43D11C884208D1FFF7B6FD38
:101C3000708831780029E3D00028E1D002E000204C
:101C40003070DBE70422324834A1FFF7B8FB0028EC
:101C50002DD004222E4833A1FFF7B1FB002817D066
:101C600004222B4831A1FFF7AAFB00283DD106989A
:101C70002730C4B200F03EFEA0421DD069202449A6
:101C800008700698801C4870022338463C46F6E6E9
:101C900006980D301E4908700020487007990C43C3
:101CA000022300980142274600D1E8E6D8E6FFF774
:101CB000ABFE03460027E1E60120154C2070A01C76
:101CC000402100F009FE6070811C019B1940069ABA
:101CD0000D326254C11C194000276754031DCDE624
:101CE000708801994018001FBEE67088BCE610207D
:101CF000FFF77CFB0920FFF779FB0220FFF776FB5B
:101D0000FFFF0000001800206C1B0020981B002023
:101D1000181A0020FEFF0000BE9A0060B00100000B
:101D200000000000B0A7000000000000B0020000AA
:101D30000000000047FCFFFF70B5044600F024FEE1
:101D4000002801D1FFF74CFC0C4E802100253046C5
:101D50002A4600F025FE3078152806D8012181405A
:101D60000748014201D0002C05D1FFF717FD0125DE
:101D7000002800D10546284670BDC0460018002046
:101D800020702000B0B582B001AC66212170002522
:101D900065700121A170E0700421204600F0E8FD8B
:101DA000032120462A4600F0FBFD02B0B0BD000032
:101DB000F0B581B000920F4605464C4CA74210D0BA
:101DC0004A4C0021402620463246FFF7EFFA0098A1
:101DD0004028024600D3324620463946FFF7CBFA68
:101DE000424CA07801280ADC00282BD001286BD1B6
:101DF000E01C042100F0C6FC402120462EE0022811
:101E00002AD0052860D12079E17809020143384AB7
:101E10001068002781425DD12346364E0098801914
:101E2000041F106800281CD0174621463140324854
:101E30000268914200D90468224632402F48006867
:101E4000591D33E0E01C002704223946FFF7AEFAA3
:101E500040212046A8473DE024484021A8470027CC
:101E600038E01C46A07961790902014324480160E9
:101E700001684908A8292DD8174601681E48016045
:101E80001E49204A0A606178227812020A431E49DC
:101E90000A601E49009A5418214631400268914256
:101EA00000D9046822463240D91D1648FFF763FA6C
:101EB000344012480168091901600F480168091B84
:101EC00001603868401C38600B4801680120022717
:101ED000002907D106480021016007480160074832
:101EE00001603846C0B201B0F0BDC046DC1B002026
:101EF0001C1C0020FFFF0000241C0020281C0020C8
:101F0000201C0020181A00202C1C0020F9FF0100C2
:101F100003480021016003480160034801607047E5
:101F20001C1C0020241C0020281C0020F0B581B0BF
:101F3000274F3968274A002923D01168002920D06B
:101F40000090274D002140222846FFF72FFA254810
:101F50000168090A2970006868700520A8701E4C85
:101F60002068000AE8702068287121683868002914
:101F70000FD03B263B2800D83E6816480168681DF4
:101F800013E01548002101603960116013480170A9
:101F90001CE03926392800D83E683868000A687184
:101FA0003868A8710B480168E81D3246FFF7E3F96D
:101FB0000849009A0868801908603868801B3860F2
:101FC0002068401C206006484021904701B0F0BDC9
:101FD000241C0020281C00201C1C00206C1B00203E
:101FE000DC1B00202C1C002080B500290BD0064AE9
:101FF00000231360054A064B1360064A1160064A27
:102000001160FFF793FF80BD1C1C0020281C0020DE
:10201000181A0020241C0020201C0020F0B581B0DC
:102020000D460446FC201149085C03281CD100F031
:10203000ABFC002804D068460321002200F0B0FC6D
:102040006E4666203070280A7070B57003273046DF
:10205000394600F08DFCA9B2204600F089FC002230
:102060003046394600F09CFC01B0F0BD381C002021
:1020700083B0F0B58CB0064611A80EC0002E00D17A
:102080007AE111A8069073E13446002702E0E019D6
:1020900040787F1CC0B2002801D02528F7D1204607
:1020A0003946FFF7BBFFE619E05D252800D05FE168
:1020B000E019401C0021202203920A22059201917E
:1020C000029104910A4654E01A4630464CE0472DEE
:1020D00014DC284630380A2835D2302D03990846BA
:1020E00000D12846049B002B00D008460A21594302
:1020F000491930390491039030463AE0672D04DDE8
:10210000722D08DD732D4DD10BE0622D4FDC482D73
:1021100060D1012002E0682D62D1002002901020E1
:1021200005900699081D069003200240581C0D6872
:10213000012A00D1D5E0022A00D1FAE0032A0246A2
:10214000304616D028E02E2D00D0F5E030782A2831
:1021500000D0F1E07178701C0122482904D0682970
:1021600002D0732900D0E7E006990B1D0693096899
:1021700001910021CC43022306463578761C2D2D93
:10218000A5DC0A46F9D0252D35D02A2D00D0D3E084
:102190003078732898D0CFE028194078641C002844
:1021A000FAD19FE0752D28D0782D1CD0C4E0632D86
:1021B00000D18EE0642D00D0BEE00698011D06918E
:1021C00000680B9000210A2400281DDA40420B9081
:1021D000012119E0582D00D0AEE00120029002E06C
:1021E000702D00D0A8E00698011D069100680B90A4
:1021F0000021102408E0301971E00698011D0691B5
:1022000000680B9000210A24019101250590844269
:1022100012D8012720460546214602F0F3FAB842BB
:1022200009D1204668430499491E049105998842C2
:102230002F46F0D900E03D4600940027FC43019B67
:10224000002B00D11C46049800190399CAB2302A09
:1022500006D1002B04D007A92D230B7001270023E2
:10226000811E0D290DD8411E0BD007A838430394B9
:102270001C4602F067FC23460498C01903994018D5
:10228000471E002B03D007A82D21C1557F1C0298A3
:10229000002D1BD0002802D04048784401E03E4881
:1022A00078440490009C0598294602F0ABFA214638
:1022B00002F02EFB0498405C07A9C8552846214629
:1022C00002F0A0FA7F1CAC420546ECD907A83946BB
:1022D00034E00698011D069100680B900BA80121BF
:1022E0002CE0019C0598102802991FD02846214611
:1022F000FFF794FE2FE028780F27074000090129F7
:1023000005D0002910D1C0B22149794402E0C0B201
:10231000204979440591085CFFF734FDF8B205992E
:10232000085CFFF72FFD0299641E6D1C002CE2D1A2
:102330001EE02878002804D0052113A0FFF76EFEC8
:1023400016E00198241A0FA501212846FFF766FE22
:10235000641CF9D13C460499A14209D9081B09A57E
:1023600006D0641A01212846FFF758FE641CF9D1F3
:102370003078002800D087E60CB0F0BC01BC03B078
:102380000047C046200000004552524F5200000056
:10239000962D00009E2D0000002E0000162E00003D
:1023A00080B50449884204D30349884201D200F031
:1023B00005F880BD0000D0C04055D0C07A46024923
:1023C000C91C891A401A7047BD23D0C0F0B581B02E
:1023D000044610785178090201439078D3781B02A3
:1023E00003431B040B43414D284608C0111D202206
:1023F000FEF7C1FF012C0AD102CD3E482A46FEF766
:10240000D3FE092000034121FEF74CF96CE0069849
:1024100000902E462436291D2022002430462346D3
:10242000FEF7E8FD28468D300C223146FEF7A3FF6B
:1024300099202C5464202C542D4E2F497944B1629C
:102440002C270521F1552D49794471632C49794494
:10245000316303213154B4663046643000F056FADB
:102460000425284600F0C4FAB066FFF7F9F9FFF733
:10247000F9F9F484284600F0BBFAB066B16A002985
:102480002DD000282BD0972829D0F08CF15D80B278
:10249000884224D200F078FA002820D1AA2400F043
:1024A000F9F9AA2803D100F025FAA04217D1B06AA1
:1024B000F18C49014018316B002902D0884700286F
:1024C00007D0012803D1B06AF18C49014018FEF70A
:1024D000F9F8F08C401CF084B16A0029D6D1009A3A
:1024E000106810210143116001B0F0BD7C1900207B
:1024F00080180020181A0020842C0000B900000069
:10250000DF010000F0B581B0012808DD02280DD000
:102510003C4988420AD03C49884205D009E03B4901
:10252000884209D0012804D1002000E0012000F0F9
:1025300095F8002001B0F0BD354D2846653035A135
:102540000A22FEF718FF2A686F3500242846234622
:10255000FEF790FD281832A10222FEF70CFF314E43
:1025600031487844B0622C270520F0552F48784434
:1025700070633463642003213154B46630466430A0
:1025800000F0C4F90425284600F032FAB066FFF7DF
:1025900067F9FFF767F9F484284600F029FAB06676
:1025A000B16A0029C5D00028C3D09728C1D0F08CCB
:1025B000F15D80B28842BCD200F0E6F90028B8D1C3
:1025C000AA2400F067F9AA2803D100F093F9A042E9
:1025D000AFD1B06AF18C49014018316B002902D0AB
:1025E0008847002807D0012803D1B06AF18C49013F
:1025F0004018FEF767F8F08C401CF084B16A00299F
:10260000D6D196E7020000400100004003000080A0
:102610007C19002077697468204B657920230000BD
:102620003F000000801800201E2C00009F010000C9
:102630004178022907D001290DD16421064A515C55
:10264000002907D007E06421034A525C0021342AA4
:1026500000D00146084670477C190020B0B50146FD
:1026600064222948835CAA24002903D00121332B4A
:1026700004D948E021465531002B44D059188154E3
:10268000C9B2411824318D300C22FEF774FEFFF7D9
:10269000E7F8FFF7E7F81D4D0020E884042000F07C
:1026A000A7F9A866A96A00292DD000282BD0972861
:1026B00029D0E88C2C21695C80B2884223D200F0BA
:1026C00063F900281FD100F0E5F8A04203D100F023
:1026D00011F9A04217D1A86AE98C49014018296B69
:1026E000002902D08847002807D0012803D1A86A12
:1026F000E98C49014018FDF7E5FFE88C401CE884AF
:10270000A96A0029D6D1B0BD7C190020801800200C
:1027100080B50B49884205D00A4988420ED10C4841
:10272000002107E0084A02CA0848FEF73DFD0920DB
:1027300000034121FDF7B6FFFDF7AAFF002080BD91
:1027400002000080010000807C190020181A00207F
:102750008569000001DF704780B584B001900348AF
:1027600001A9FFF7F7FF04B080BDC0463701006044
:1027700080B582B002486946FFF7ECFF02B080BD29
:102780003C02006080B584B0009001910348694626
:10279000FFF7E0FF019804B080BDC0462C05006043
:1027A00080B588B000900191029203930A9804903A
:1027B0000B98059003486946FFF7CCFF019808B0D5
:1027C00080BDC0463B07006080B584B00090019199
:1027D00003486946FFF7BEFF019804B080BDC046BC
:1027E000CF10006080B586B00090019102920393F3
:1027F00003486946FFF7AEFF019806B080BDC046AA
:10280000ED2D006080B586B0009001910292039397
:1028100003486946FFF79EFF019806B080BDC04699
:10282000EA2E006080B586B0009001910292039379
:1028300003486946FFF78EFF019806B080BDC04689
:102840002E2F006080B58AB0009001910292039310
:102850000C9804900D9805900E9806900F9807908C
:1028600003486946FFF776FF01980AB080BDC0466D
:10287000F338006080B586B001900291039204485D
:1028800001A9FFF767FF029880B206B080BDC0467D
:102890006E92006080B582B003486946FFF75AFF28
:1028A0000198C0B202B080BD4F9F006080B58AB071
:1028B00000900191029203930C9804900D9805905A
:1028C0000E9806900F98079002486946FFF742FF5E
:1028D0000AB080BDD8A6006080B584B00090019198
:1028E00003486946FFF736FF019804B080BDC04633
:1028F000FCA8006080B582B003486946FFF72AFF54
:102900000198C0B202B080BD3CA0006080B584B028
:102910000190034801A9FFF71DFF029804B080BD94
:102920005864006080B582B003486946FFF712FF23
:10293000019802B080BDC0466E6A006080B586B066
:10294000019002910392034801A9FFF703FF029847
:1029500006B080BDD474006080B584B00190034897
:1029600001A9FFF7F7FE04B080BDC046BE9A006023
:1029700080B584B00090019102486946FFF7EAFEF5
:1029800004B080BD8183006080B582B00348694691
:10299000FFF7E0FE019802B080BDC046BB84006036
:1029A00080B586B0019002910392044801A9FFF717
:1029B000D1FE029880B206B080BDC046E4850060BA
:1029C00080B582B003486946FFF7C4FE019802B0A3
:1029D00080BDC046B187006080B584B001900348D7
:1029E00001A9FFF7B7FE029804B080BD75880060AA
:1029F00080B584B00190044801A9FFF7ABFE0298AE
:102A0000C0B204B080BDC0468B9C0060F0B585B0FC
:102A1000344A12788324002A02D0394A7A4409E0E1
:102A20000A9A452A02D8374A7A4403E0072907D18F
:102A3000354A7A440223214600F0E4FC05B0F0BD9B
:102A4000029201940390402004931F5C002F18D041
:102A5000052F049E07D13046413023A10522FEF701
:102A6000AEFC00282BD04136002422A5E0B2032181
:102A700001F04EFF305D695C41403155641CA74256
:102A8000F4D145200499085C4630029A824210D164
:102A9000413117483A46FEF76EFC124801464F8016
:102AA00007208871092008700121039800F096FC26
:102AB000C4E7164A7A44022303980199BCE70C4EF6
:102AC00003223270701C0BA1FEF755FC301D0AA1C9
:102AD0000422FEF750FC3078431D039801993246DA
:102AE000AAE7C0466C1B0020F1D0000000000000E7
:102AF000181A00204144410090009000000000009E
:102B000006280000FC270000F427000074270000BE
:102B1000F0B581B01D460E460446284600F04EFC36
:102B200001280ED12068411C090E6A461170811CD3
:102B3000090C5170C11C090A9170001D2060D070F1
:102B400004E0684604222946FEF715FC174F0822C8
:102B500038463146FEF70FFC3846083069460422F5
:102B6000FEF709FC02203873002078730121B97345
:102B7000F8733874284600F021FC0146201D862594
:102B8000012906D129467931C9B20422FEF70EFC8B
:102B900003E069460422FEF7EEFB044A11232046B7
:102BA000294600F02FFC01B0F0BDC046181A0020E5
:102BB000F0B585B015460C460490A07961790E02F7
:102BC0000643A078029061782778093A90B283236F
:102BD00003931F4B864203D0ED1F2B409E421BD117
:102BE0003246002F08D01B4A7A44022304980399E6
:102BF00000F008FC05B0F0BD022917DC012920D047
:102C000002291BD190B269460860E31D0022049896
:102C10000299FFF7FBFEEDE7D0B28642E1D0E8B2C1
:102C200086422A46DDD00C4A7A44DEE703290BD0DF
:102C3000C12903D1094A7A440423D7E70A4A7A44CE
:102C4000D3E7074A7A44D0E7064A7A440823CDE717
:102C5000FFFF00004E260000FC250000FC250000C0
:102C6000DC250000E0250000FA25000080B5C169E0
:102C70008A784B781B0213430A78812A09D0832A69
:102C80000CD0862A0ED1C91C031D0022FFF740FF7D
:102C900080BDCA1C812100F0B5FB80BDC91C1A464D
:102CA000FFF786FF80BD000070B50D460146012A82
:102CB00012D1174C20462A46FEF75DFB60194026CC
:102CC000721B00252946FEF771FB81202146324602
:102CD0002B46FEF715FD70BD02A01146FFF7C8F99F
:102CE00070BDC0465265717565737420746F207332
:102CF000656E64206F6E20756E737570706F727480
:102D00006564206D656469612025640A0000000027
:102D1000DC1B0020C16002820022C28282762B234B
:102D2000C2542A23C2548284C161026270470000E7
:102D3000F0B583B00D4604462A20215C20462A3097
:102D4000012943D0002934D12B210022625421468D
:102D50002B312022A25CD21ED2B226462036012A76
:102D600037D8228BE38A9A4235D904210020012DDD
:102D700000D001460290A07E03270126002800D043
:102D800037460F4340210091CE1BD11AB14200DCDF
:102D90000E46F1190191012D06D1211D284804226A
:102DA0000292FEF7E8FAA07E002821D0FF300299B7
:102DB0002BE02521615C062908D12B21625C0023D0
:102DC000635421462B31002A03D1C2E72B20002176
:102DD000215403B0F0BDFCD10022E282A2760A7039
:102DE0000270B2803260E068E06114480270F0E77F
:102DF0000098205C029B99B2114A5054012018435C
:102E000081B2637E5354411C207E89B20C4B5854CE
:102E1000E169002905D0B2B2D819E38AC918FEF7D2
:102E2000AAFAE08A8019E082A07E401CA076019870
:102E300081B203482A46FFF737FFCAE76C1B002020
:102E4000DC1B002001462A200A5C0120002A10D049
:102E5000012A01D10020704725200A5C0020062AA3
:102E600007D12B200A5C01200021002A01D008464E
:102E700070477047B0B52B2101244454011D0B4D00
:102E800004222846FEF777FA832028710020687113
:102E90000220A8716920E8717C20C043801C287240
:102EA000092128462246FFF7FFFEB0BDDC1B0020AB
:102EB000B0B52B2101244454011D084D042228469D
:102EC000FEF759FA8820287100206871A87107213F
:102ED00028462246FFF7E8FEB0BDC046DC1B0020B6
:102EE000F0B583B004462520235C27462537002013
:102EF000052B75D0029208784A781202024388782E
:102F0000CB781B02034318041043227963791B0218
:102F10001343A279E5792D0215432A041A4382420C
:102F200060D10E790D1D608C0123314A0028019378
:102F30001CD02423E55C23462433AE4252D10092B8
:102F4000228B751C1D70151A029B5B1F0526AB4258
:102F500000DB0646AB42029B00DB13469B1B1818A6
:102F60006084009A1A40208D491D22E07C20C043D5
:102F7000401DC0B28323864203D12046FFF798FF4D
:102F80002DE08879497909020143C91C084610409F
:102F90009E4227D1238B89B28B4223D10299091FEC
:102FA000814200DB0146618424230020E0540A4072
:102FB0002946FFF75FFC2085218B628C8A420ED365
:102FC000E18C88420ED106203870002565842A20C5
:102FD000205C012803D12046FFF74CFF3D7001988B
:102FE00003B0F0BD052038701020FEF7FFF9C04691
:102FF000FFFF0000F0B58BB0044623722020205C58
:1030000027462037852503280ED009910A922A21C8
:10301000615C26462A36002913D0204609990A9A6F
:10302000FFF75EFF002873D1DF48062101720421FB
:1030300039700021A1760830E061E182012020830F
:103040005FE0042809D10020E082A0762B216054A3
:103050003070B8803860E068E06104210020089397
:10306000012B00D0014601230A461A430A989042D8
:103070003DD304920898012805910695079307D13E
:10308000201D04220999FEF776F90599079B069DF4
:10309000E08AC64A00280FD00898012822D120468D
:1030A0001230211D15460422FEF789F905992A469A
:1030B000079B069D002815D003260846039630433B
:1030C0000E460A99814212D30999881902908857AD
:1030D0000E4629467A3149B2884237DDB24804218A
:1030E000017207E0022008430A99814212D2AE48D9
:1030F0000572042139700021A1760830E061E18277
:1031000023833A3540202554217A2046FFF710FECC
:103110000BB0F0BD2120205C089988424BD1387853
:10312000012854D103920898012800D083E0211D82
:10313000042509982A461E46FEF741F93346002821
:1031400079D09948062101723D70F4E0089B012B6B
:1031500016D1387801281FD1201D2146123115467D
:1031600004220190FEF72BF92A46089B069D0028B1
:1031700006D002980078691CC9B2884200D0F4E0F9
:103180003878012808D1012B00D080E0029800781F
:10319000691CC9B288427AD1049970184078715C70
:1031A00009020143208AC01E81421EDD7E48039928
:1031B000017204216EE0284608307B490872042021
:1031C00038700020A0760831E161E08298E7089825
:1031D000012883D10020E082A0762B21605430703A
:1031E000B8803860E068E06192E702980078812852
:1031F000079B04D0862859D0832800D0ACE00991E1
:103200000392089801285FD1261D69497944042555
:1032100030462A46FEF7D3F8002807D0654979449E
:1032200004223046FEF7CBF800284DD15E480B2132
:1032300001723D70B0E00598099A1118105CA27EE9
:1032400090422FD10A98049A851AE08A228B121A8A
:10325000954200DB1546039E2E40E2691018491C7A
:103260003246FEF788F80898012807D1E08AE1691C
:103270000918E08C3246FFF7FDFAE084E08A401935
:10328000E082A07E401CA076079B089D45E0464852
:103290000421017239700021A1760830E061E182D9
:1032A0000798CCE640480421017243E008980128C1
:1032B00052D109910392201D3F4979440426324698
:1032C000FEF77DF8002863D00A980599461A0998F8
:1032D000C01C8642039D00DB06460A903540E0692B
:1032E00002992A46FEF747F8089B012B06D1E169AF
:1032F00000202A46FFF7BEFA089BE084E6820A987F
:103300002083212023540020A07620461230211D46
:1033100004221D46FEF72FF8079BE08A012D01D1FC
:10332000218B13E0218BCA1C90420FD91E48032128
:103330000172042139700021A1760830E061E18238
:10334000238306993A3140202154DDE6884206D293
:10335000002060633B70DBE613480372C9E602207D
:1033600038702046FFF782FCD2E60F4C042220463C
:103370000199FEF700F83A35257100206071079A2F
:10338000A2710620E07108212046FFF78DFCBFE600
:1033900005480B2101723E700021A1760830E061E2
:1033A000E18207982083CCE7DC1B0020FFFF0000B0
:1033B0002E20000020200000841F000080B5064958
:1033C00079440422FDF7FBFF014601200022002979
:1033D00000D0104680BDC0467A1E000080B52A226B
:1033E000835C02462A32012906D1002B08D1012133
:1033F0001170FFF73FFD80BD012B01D1022010703D
:1034000080BD000070B504462A20205C002809D049
:10341000012824D02520205C062820D12B20205CE8
:1034200000281CD12020032525540020A076E2612D
:10343000E0822383402021542120215C2546213530
:1034400003290DD1084E3078002808D0032100E070
:1034500029782046FFF76CFC30780028F8D170BD41
:103460002046FFF765FC70BD6C1B00200249002060
:103470000860024908607047301C0020341C00209E
:1034800010B507484F21017000244470012181705C
:103490000221C1700421FFF76BFA204610BDC0461F
:1034A0000018002070B582B06D464F262E700024A3
:1034B0006C700220A8700320E8702C71052128464A
:1034C000FFF756FA2E706C700120A870E870042186
:1034D0002846FFF74DFA204602B070BD10B582B005
:1034E00001A84F2101700024447001218170022144
:1034F000C1700421FFF73CFA204602B010BD000065
:10350000B0B582B00E48002404600E4804606846DE
:103510004F2505704470052585700425C57001256B
:1035200005714171032A02D8D000074CC440684697
:103530008471C3710821FFF71BFA002002B0B0BDEF
:10354000301C0020341C00200104030210B582B09E
:1035500068464F22027000244470052282700422C3
:10356000C2700122027141718471C4710821FFF798
:10357000FFF9204602B010BDB0B582B00D466846D6
:10358000502101700024447003218170C5704021D6
:10359000017144710621FFF7EBF98020054201D14A
:1035A000074800E0054801687F2215400122AA4033
:1035B0000A430260204602B0B0BDC046301C002065
:1035C000341C002070B582B00D4668465021017051
:1035D0000024447003218170C570802606714471F7
:1035E0000621FFF7C5F9354201D1074800E005483B
:1035F00001687F2215400122AA40914301602046C4
:1036000002B070BD301C0020341C0020802001421C
:1036100001D0064800E0044800687F2211400122E2
:103620008A400240D0B27047341C0020301C002079
:1036300010B582B068464F22027000244470022206
:1036400082700322C27001710521FFF791F92046B3
:1036500002B010BDB0B582B01C4615466846502277
:103660000270E21C130A43708270C1702021017144
:1036700044710621FFF77CF928462146FFF778F9C7
:10368000002002B0B0BD10B582B068465023037070
:103690000024447003238370C17030210171427192
:1036A0000621FFF765F9204602B010BD70B515463A
:1036B0000E4604460220002C11D04D2081002046E9
:1036C00001F036FA002E02D0112000012650FC2015
:1036D0000121215425702046FFF7C8FE0020C0B20A
:1036E00070BD70B50446FC200121215445208000A6
:1036F00025180026F0002858002806D04068FEF75C
:103700004FFE0246217920469047761C032EF1D1C8
:103710002046FFF7E3FE2046FFF7B2FE002070BD13
:103720000223002A07D00023022804D8C00008186A
:10373000452189004250D8B2704780B5FFF7B2FEEC
:10374000002080BDF0B581B00C46054645208000C4
:103750002F1800262846314600F07CF9002808D0B2
:10376000F00038580068FEF71BFE02462846214646
:103770009047761C032EEDD1002001B0F0BDF0B5CE
:1037800081B00C460546452080002F1800262846AB
:10379000314600F05FF9002808D0F0003858406842
:1037A000FEF7FEFD0246284621469047761C032E72
:1037B000EDD1002001B0F0BD70B504462120C60057
:1037C000A519284600F0ABFBF420012121508720E9
:1037D0004000205AF8216050A15D1F2008400228B7
:1037E00008D001280BD000280ED12046294600F031
:1037F0003FF90EE02046294600F006FB09E020468E
:10380000294600F0DCFA04E0802001402046FFF762
:10381000B3FE002070BDF0B583B002920446019162
:1038200000291ED04520800025182646FC3600279A
:103830002046394600F00EF900280ED0F80028582E
:103840008069002809D03178032906D1FEF7A8FD48
:10385000034620460199029A98477F1C032FE7D11F
:1038600035E0F4202058032831D1902020588C21B5
:10387000615822468C3281420AD9091A116081426C
:1038800000D301468AB22046029900F049FD1EE0AD
:103890004520800026182746FC370025204629466B
:1038A00000F0D8F800280CD0E80030580069002853
:1038B00007D03978032904D1FEF772FD014620466E
:1038C00088476D1C032DE9D1204600F030FD002013
:1038D00003B0F0BDF0B581B00446009100291DD0C1
:1038E0004520800027182546FC3500262046314615
:1038F00000F0B0F800280DD0F000385840690028DA
:1039000008D02978032905D1FEF74AFD0246204652
:1039100000999047761C032EE8D151E0F4202058FE
:10392000022845D1E069256AA8420BD9401BE06115
:1039300013210A01A1584919A15082B2204600F072
:10394000E1FC35E0A6693046294600F0E1FFAE42D1
:103950000FD300290DD1F82020582746F83786428A
:1039600007D20025204629462A4600F0CBFC3D60C0
:103970001EE04520800026182746FC3700252046FB
:10398000294600F067F800280CD0E8003058C068DD
:10399000002807D03978032904D1FEF701FD01463C
:1039A000204688476D1C032DE9D1204600F0CBFC52
:1039B000012001026018615C012901D10021017020
:1039C000002001B0F0BD70B5044690204021215088
:1039D0002162FC2001212154452080002618002569
:1039E0002046294600F036F8002808D0E800305874
:1039F0004068FEF7D5FC02462179204690476D1CB1
:103A0000032DEDD1002070BD01740020704700200F
:103A100070470020704770B50446FC20205C0328E6
:103A200016D145208000261800252046294600F0A2
:103A300011F8002809D0E8003058C069002804D0E7
:103A4000FEF7AEFC0146204688476D1C032DECD1E5
:103A5000002070BD02460020022908D8C8001018B6
:103A60004521890041580120002900D108467047AE
:103A700080B54A78042A08DD072A0FDC052A14D00D
:103A8000062A1BD100F021F81DE0002A10D0012ADF
:103A900017D0032A12D100F03FF914E0082A0AD007
:103AA000092A0BD100F0C7F80DE000F09FF80AE0FA
:103AB00000F00FF907E000F0F5F804E000F075F908
:103AC00001E000F048F9002080BDB0B582B00D469D
:103AD000044601A8002101806A88100A052813DC29
:103AE00001281ED0022827D003283CD1D0B20228BA
:103AF0003EDC002866D001286ED0022833D1112088
:103B000000012058C06810E006281FD0072827D0E1
:103B10000F2828D1112000012058C069002804D1A5
:103B200021E01120000120580068FEF739FC024610
:103B3000207C01A9904733E04520800020580028D0
:103B40002FD0217C002925D0C06A24E0207C0028C9
:103B500009D1452080002058002804D0406B1AE08D
:103B6000207C00280FD02046294600F01EF927E0CF
:103B700003282CD0042834D00528F4D111200001CA
:103B800020588069D1E74520800020580028EAD0DD
:103B9000006B00E0806AFEF703FC014601A888473D
:103BA000014601A80288002A0AD0E888002807D028
:103BB000824200D3024601A80280204600F08CFB1E
:103BC00002B0B0BD1120000120584068ADE71120BF
:103BD000000120580069A8E71120000120588068E2
:103BE000A3E711200001205840699EE770B5044604
:103BF000888800280BD1C888002808D148887F26EB
:103C00000640FC20205C2546FC35032803D12046D5
:103C100000F0CBF870BDFE202654F1B22046FFF72D
:103C200007FD204600F083FB02200121002E00D179
:103C30000846287070BD70B50D460446AE78022E59
:103C40001DD2FC20215C2046FC30032907D002292C
:103C500015D1002E22D066600321017009E0002EEC
:103C600012D06068864219D0C1B22046FFF787FDA6
:103C7000666020463146FFF765FD02280ED12046DA
:103C8000294600F092F870BD02210170666020465E
:103C90003146FFF774FD204600F049FB204600F056
:103CA00046FB70BD80B5CA88012A0AD1FC22825C1D
:103CB000032A09D0022A04D100218160014608317B
:103CC00003E000F072F880BD011D012200F004FB4A
:103CD00080BDB0B50446FC20205CFE220240022AD2
:103CE00016D10120E06041208000215825460C3586
:103CF0000320002905D0204600F025FBE1680220C2
:103D00000843E06002222046294600F0E5FAB0BDF3
:103D1000204600F04AF8B0BDB0B50D4604466888AC
:103D2000012817D141208000012121502879022843
:103D30000DD8C0002018452189004058002806D021
:103D40008068FEF72DFB0246204629469047204614
:103D500000F0EDFAB0BDB0B50D460446FC20205C85
:103D6000FE21014002291BD1688801281CD1412075
:103D7000800000212150287902280DD8C000201889
:103D8000452189004058002806D08068FEF708FBCE
:103D90000246204629469047204600F0C8FAB0BDAA
:103DA0002046294600F001F8B0BD10B50446802138
:103DB000FFF7E2FB00212046FFF7DEFB10BDB0B5A8
:103DC0000D460446FC20205C032817D128790228E0
:103DD00014D8C000201845218900405800280DD073
:103DE0008068FEF7DDFA0246204629469047E888BB
:103DF000002807D1204600F09AFA03E02046294621
:103E0000FFF7D3FF0020B0BD70B50D4604462878FB
:103E1000602101402E79202910D1022E0ED8F00009
:103E20002018452189004058002807D08068FEF7F7
:103E3000B7FA02462046294690476EE06878002887
:103E400017D001281ED0032867D1FC20205C03284E
:103E50001CD16888002808D180203043802804D0F5
:103E600020463146FFF788FB2E79022E52D8F0000B
:103E700043E0FC20205C032818D0022811D17006F2
:103E80000AD14AE0FC20205C032829D0022808D16E
:103E900080203043802840D020463146FFF76CFB1D
:103EA0003BE020462946FFF780FF36E025461435E3
:103EB0002046843080210E4200D1054620463146FE
:103EC000FFF7A4FB0121002800D101467F20064016
:103ED0003001295029180222204600F0FDF91CE08B
:103EE0006888002819D1700614D020463146FFF7A3
:103EF00069FB287902280DD8C000201845218900C7
:103F00004058002806D08068FEF74AFA024620464C
:103F100029469047204600F00AFA002070BD0A7832
:103F200002704A7842708A78CB781B021343438030
:103F30000A794B791B02134383808A79C979090274
:103F40001143C1807047F0B583B00D46044602A806
:103F50000027078001A80770297860200840002802
:103F600010D0202838D1687801460A39022933D385
:103F700002281CD003281AD020462946FFF715FF37
:103F8000022729E068780B2814D00A280FD00628C9
:103F900022D16888000A002721280FD022283A461B
:103FA000394616D102AE304600F058F80AE001A9B1
:103FB00001220EE0204600F0BAF90DE002AE3046D4
:103FC00000F032F801463288E888824200D3024687
:103FD0003280204600F080F9F8B203B0F0BDF0B5B1
:103FE00081B0044682210326402532462B46FFF746
:103FF00087FA02272046394632462B46FFF780FAD9
:10400000204639462A46FFF73EFB002001B0F0BDAE
:1040100010B504468221FFF799FA02212046FFF7E6
:1040200095FA002010BD000043218900084A515C28
:104030000922002904D0012905D10749794404E067
:104040000449794401E00022114602800846704785
:10405000381C00200E12000008120000F0B581B0DC
:104060000246432080001449085C222400281AD00C
:1040700001281BD1104881210327402600923A468F
:104080003346FFF73DFA01250B4829463A463346A9
:10409000FFF736FA084829463246FFF7F4FA009A45
:1040A0000748784404E00548784401E000242046AD
:1040B000148001B0F0BDC046381C0020D3110000B0
:1040C000B7110000F0B581B00446812103264025D8
:1040D00032462B46FFF714FA01272046394632466E
:1040E0002B46FFF70DFA204639462A46FFF7CBFA52
:1040F000002001B0F0BD000080B5012903D10348C4
:104100000121FEF715FE002080BDC046981B00204F
:10411000B0B5144601290DD1012540222946FFF7EB
:10412000B2FA2846FDF7ACFA0246034821462B4670
:10413000FEF760FF0020B0BD981B002080B502296B
:1041400003D103487844FDF7F1FE002080BDC0464E
:1041500009D6FFFFB0B51446022919D10221402229
:10416000FFF791FA0B4DA879002811D10220FDF735
:1041700087FA0246094878442146FDF719FE0228CD
:1041800006D10120A87107202870034800686880C4
:104190000020B0BD6C1B0020201C0020D7D5FFFFE5
:1041A00012200880014878447047C0468A110000F8
:1041B00004200880014878447047C0468C110000F4
:1041C0000E200880014878447047C04680110000E6
:1041D0000E200880014878447047C0467E110000D8
:1041E0000A200880014878447047C0467C110000CE
:1041F0000E200880014878447047C0465E110000D8
:104200000E200880014878447047C0464E110000D7
:104210000020088070470000F0B581B004464D20B2
:1042200085001E48002631462A46FDF7BFF81C4F80
:1042300038460C3007223146FDF7B8F814370E2205
:1042400038463146FDF7B2F8002C22D0134C002638
:10425000204631462A46FDF7A9F8144979442046FC
:104260003246FFF723FA124A7A4430462146FFF7D6
:1042700057FA01200F4A7A442146FFF751FAFF22EC
:10428000523208480849FEF745FD2046FFF755FA27
:1042900002E00248FFF725FA01B0F0BD381C00200B
:1042A0006C1B0020981B0020181A002044100000EE
:1042B0005810000082100000492101800148784414
:1042C0007047C046AE1000000A21018001487844C2
:1042D0007047C046EA100000B0B50C46F421022336
:1042E00043508261C261132109014450016A8A422C
:1042F00000D30A4693B2002529462246FFF7AAF9C1
:104300002846B0BDB0B50C46016A8A4200D30A46C1
:1043100093B2002529462246FFF79CF92846B0BDF6
:1043200010B500242146FFF7AEF9204610BD10B5A8
:10433000F421042242500024214622462346FFF75E
:1043400089F9204610BD10B5F42105224250002401
:1043500021462246FFF797F9204610BDF0B583B0FD
:1043600006466D48001D202202903146FDF703F8F5
:104370006A4F3969B868002901D0884703E01C21D9
:10438000414338684018FEF70BF80546B86800242A
:10439000002805D03969401E002904D0884706E06E
:1043A0002046019407E01C21414338684018FDF77E
:1043B000F7FF0190B8687968491E88420CD23969C4
:1043C000401C002901D0884703E01C214143386884
:1043D0004018FDF7E5FF0446707840280EDC2028E1
:1043E0002ADC10283ED0202800D08AE00020002DB2
:1043F00000D18EE06969002970D08AE0802828DC2D
:1044000041283DD042287CD10020002D00D180E001
:10441000696900297DD1E96800297AD17A68511E3D
:10442000002C76D0012A74D0BA688A4271D0E16833
:1044300000296ED1206948E0212849D0222860D186
:104440000020002D65D0294614316A69002A47D121
:104450005FE082284FD0812853D1B968002000291D
:104460004FD156E00020002D53D0E968002950D0EC
:1044700029480162687E002843D02749C88040E06F
:104480000020002D45D06969002942D17A680121B8
:104490000020012A0A4600D10246EB68002B0B4699
:1044A00000D00346BC68002C00D121460B401340CD
:1044B000019A002A2DD0012B2BD1D168002928D1B7
:1044C0005169002925D1019800691349086218E053
:1044D0000020002D1DD0696900291AD0294610310D
:1044E00008680D490862287E00280AD00A49C88059
:1044F0000820888305E07868B968421E0020914250
:1045000007D0FA68002A029803D00348011D284604
:10451000904703B0F0BDC046801800206C1D0020FD
:10452000F0B581B00546434F3969B868002901D01C
:10453000884703E01C21414338684018FDF730FFED
:10454000064601243C48854214DD3C48854217D08C
:104550003B4885421CD03B48854267D130680028E3
:104560005BD0B468FDF71CFF0146FA68204600F0F6
:104570006FF85AE0344885420AD02F48854255D119
:104580007968B8684A1E00240121904205D34DE0A5
:104590000024E143B868002848D04018B860FDF70F
:1045A0005FF9FDF75FF9294D0024EC840420FEF744
:1045B0001FFAA866A96A002938D0002836D09728A3
:1045C00034D0E88C2C21695C80B288422ED2FEF770
:1045D000DBF900282AD1AA26FEF75CF9AA2803D124
:1045E000FEF788F9B04221D1A86AE98C4901401848
:1045F000296B002902D08847002807D0012803D161
:10460000A86AE98C49014018FCF75CF8E88C401C6A
:10461000E884A96A0029D5D108E07068002805D08F
:10462000FDF7BEFE0146B06888470024204601B071
:10463000F0BDC0466C1D002002000080020000405A
:10464000010000400300008001000080801800206D
:10465000F0B583B002920D460190404E00200090CC
:104660007060002D15D03F4979441C2728463A46F2
:10467000FCF7A5FE00280CD03B4C7C447068401C25
:1046800070607843281821463A46FCF798FE0028C7
:10469000F4D101990846013005D07068884200982D
:1046A00000D30846B060356000270298F06037619B
:1046B0002B4D2E487844A8622C260920A8552C485A
:1046C000784468632B487844286364200321295484
:1046D000AF6628466430FEF719F904242046FEF739
:1046E00087F9A866FDF7BCF8FDF7BCF8EF84204613
:1046F000FEF77EF9A866A96A00292DD000282BD0E4
:10470000972829D0E88CA95D80B2884224D2FEF790
:104710003BF9002820D1AA24FEF7BCF8AA2803D12F
:10472000FEF7E8F8A04217D1A86AE98C49014018C1
:10473000296B002902D08847002807D0012803D11F
:10474000A86AE98C49014018FBF7BCFFE88C401CC3
:10475000E884A96A0029D6D103B0F0BD6C1D002001
:10476000801800207C0E00006A0E0000100D000072
:104770005DFEFFFF93FCFFFF10B5084C207800287A
:1047800008D12046243000212022FCF70FFE20789B
:10479000401C2070C0B2401E10BDC04680180020D2
:1047A00070B50E4D2878AA26002813D0401E287018
:1047B000C0B2400128182421465C24300024202265
:1047C0002146FCF7F3FD2878002803D04101691841
:1047D000CC8001E06E700020401E70BD801800206B
:1047E000B0B5400106490D18FDF73AF828462430C7
:1047F000002420222146FCF7D9FD24202C54B0BDF2
:1048000080180020002243088B4274D303098B4296
:104810005FD3030A8B4244D3030B8B4228D3030C90
:104820008B420DD3FF22090212BA030C8B4202D332
:104830001212090265D0030B8B4219D300E0090A5A
:10484000C30B8B4201D3CB03C01A5241830B8B4263
:1048500001D38B03C01A5241430B8B4201D34B034C
:10486000C01A5241030B8B4201D30B03C01A5241B1
:10487000C30A8B4201D3CB02C01A5241830A8B4236
:1048800001D38B02C01A5241430A8B4201D34B021F
:10489000C01A5241030A8B4201D30B02C01A524183
:1048A000CDD2C3098B4201D3CB01C01A5241830937
:1048B0008B4201D38B01C01A524143098B4201D371
:1048C0004B01C01A524103098B4201D30B01C01A9C
:1048D0005241C3088B4201D3CB00C01A5241830816
:1048E0008B4201D38B00C01A524143088B4201D343
:1048F0004B00C01A5241411A00D2014652411046A3
:104900007047FFE701B5002000F006F802BDC04681
:104910000029F7D076E770477047C046002B11D1C9
:10492000002A0FD1002900D1002802D00021C9435C
:10493000081C07B4024802A14018029003BDC046FB
:10494000D9FFFFFF03B4684601B5029800F006F8EE
:10495000019B9E4602B00CBC7047C046F0B54D4668
:10496000564644465F46F0B4924683B004000D00BC
:1049700099468B422FD82CD04946504600F0AEF8CD
:1049800029000600200000F0A9F8331A9846203BC1
:104990009B4600D574E053465A4693401F00534649
:1049A000424693401E00AF4229D826D05B46A41B46
:1049B000BD41002B00DA79E0002200230092019330
:1049C00001235A46934001930123424693400093AA
:1049D00019E08242D0D900220023009201930C9B5F
:1049E000002B01D01C605D600098019903B03CBCB5
:1049F00090469946A246AB46F0BDA342D6D90022C6
:104A00000023009201934346002BE8D0FB07720875
:104A10001A4346467B080EE0AB4201D1A2420CD8B5
:104A2000A41A9D41012024196D410021013E241842
:104A30004D41002E06D0AB42EED9013E24196D4106
:104A4000002EF8D15B460098019900196941002BAE
:104A500022DB2B005A46D3402A004446E2401C0089
:104A60005B461500002B2CDB26009E403300260001
:104A70004746BE403200801A994100900191AEE74E
:104A8000424620239B1A5246DA40414613004A46CA
:104A90008A4017001F4382E7424620239B1A2A00C0
:104AA00046469A402300F3401343D5E7424620236D
:104AB00000219B1A0022009101920122DA4001920A
:104AC00082E74246202326009B1ADE402F00B44690
:104AD000974066463B003343C9E7C04610B50029FE
:104AE00003D100F007F8203002E0081C00F002F8C3
:104AF00010BDC0461C2101231B04984201D3000CA9
:104B000010391B0A984201D3000A08391B09984240
:104B100001D30009043902A2105C40187047C04656
:104B20000403020201010101000000000000000076
:104B300010B5002200F006F810BDC04610B500F018
:104B400009F810BD130010B50A00190000F040F874
:104B500010BDC04670B50F2A32D90C0004430B00BB
:104B6000A40731D115000400103D2D0901352D0198
:104B700049191E6826605E6866609E68A660DE68E9
:104B80001033E66010349942F3D10F2345191340D6
:104B9000032B1BD91C1F0023A4080134A400CE58EA
:104BA000EE5004339C42FAD103232D1909191A40FF
:104BB00005D00023CC5CEC5401339A42FAD170BD8D
:104BC0000500002AF5D1FAE70500F2E71A00F8E738
:104BD00070B583073FD0541E002A3BD0CEB20300ED
:104BE000032503E0621E002C34D0140001335A1E4A
:104BF00016702B42F6D1032C24D9FF250D402A0232
:104C000015432A0415430F2C11D92600103E3609EE
:104C1000013636011A009B19156055609560D56004
:104C200010329342F8D10F221440032C0AD9261FC8
:104C3000B6080136B6001A009B1920C29342FCD177
:104C400003221440002C05D0C9B21C19197001337D
:104C50009C42FBD170BD14000300CCE7F0C041467C
:104C60004A4653465C466D4676467EC02838F0C8B4
:104C70000020704710307CC890469946A246AB464B
:104C8000B54608C82838F0C8081C00D101201847CC
:104C900010B5830727D00378002B26D0030003210B
:104CA00002E01A78002A1CD001330B42F9D11968AE
:104CB0000F4A104C8A188A4322420FD104331968D4
:104CC0000B4A8A188A43224208D104331968084AD9
:104CD0008A188A432242F1D000E001331A78002A70
:104CE000FBD1181A10BD0300E1E70020FAE7C04627
:104CF000FFFEFEFE8080808050656E64696E6700F6
:104D00004C6564676572207265766965770000009E
:104D100003000000000080002000000001000000EF
:104D200000000000FFFFFF00000000000000000086
:104D3000070100000C0080002000000000000000BF
:104D4000FFFFFF000000000008800000F84CD0C00A
:104D50000701000018008000200000000000000093
:104D6000FFFFFF000000000008800000004DD0C0E1
:104D7000030000000000800020000000010000008F
:104D800000000000FFFFFF00000000000000000026
:104D9000050003000C0007000700000000000000F1
:104DA000FFFFFF00000000000000070000000000FF
:104DB000050075000D00080006000000000000005E
:104DC000FFFFFF00000000000000060000000000E0
:104DD000070000000C0080000C0000000000000034
:104DE000FFFFFF00000000000A8000008119002082
:104DF000070000001A0080000C0000000000000006
:104E0000FFFFFF00000000000A800000A919002039
:104E100003000000000080002000000001000000EE
:104E200000000000FFFFFF00000000000000000085
:104E3000050103000C00070007000000000000004F
:104E4000FFFFFF000000000000000900000000005C
:104E5000050275000D0008000600000000000000BB
:104E6000FFFFFF000000000000000A00000000003B
:104E7000070000000C0080000C0000000000000093
:104E8000FFFFFF00000000000A80000081190020E1
:104E9000070000001A0080000C0000000000000065
:104EA000FFFFFF00000000000A800000FC19002046
:104EB00000000000FFFFFF00E001FEC1FD387F069B
:104EC000DF81FFC47FF3FFBC1FE7E7F13FF80778FE
:104ED000000000000E0000000E00000001000000B5
:104EE000B04ED0C0B84ED0C000000000FFFFFF00A1
:104EF000E001FEC1FF387006D8797E9E9FE7E7B9D2
:104F000001E6C0F13FF80778000000000E00000045
:104F10000E00000001000000E84ED0C0F04ED0C0EE
:104F20000000000000000000000000000000000081
:104F3000904FD0C09C4FD0C0000000005050D0C057
:104F4000000000000000000000000000A84FD0C0DA
:104F50000000000000000000000000005929D0C03F
:104F6000000000000C4FD0C0AE4FD0C000000000C9
:104F7000321D0000000000000000000000000000E2
:104F80000000000000000000000000000000000021
:104F900057616974696E6720666F7200636F6D6D2B
:104FA000616E64732E2E2E0041626F757400517510
:104FB0006974206170700056657273696F6E00309D
:104FC0002E312E30004261636B00496E76616C6950
:104FD0006420706172616D657465720A005374615A
:104FE000636B206F766572666C6F770A005365633A
:104FF0007572697479206572726F720A00496E76F3
:10500000616C6964204352430A00496E76616C69A1
:105010006420436865636B73756D0A00496E766141
:105020006C696420436F756E7465720A00556E7307
:105030007570706F727465640A00556E6B6E6F7771
:105040006E20657863657074696F6E0A00000000F9
:105050000000000000000000000000000000000050
:10506000B74FD0C0BF4FD0C000000000204FD0C00D
:105070000000000000000000D44ED0C0C54FD0C0DA
:10508000000000003D2800000000000000000000BB
:105090000000000000000000000000000000000010
:1050A0000000000030313233343536373839616230
:1050B00063646566303132333435363738394142CE
:1050C000434445460300000000008000200000002B
:1050D0000100000000000000FFFFFF0000000000D2
:1050E00000000000050103000C000700070000009D
:1050F00000000000FFFFFF000000000000000900AA
:1051000000000000050275000D0008000600000008
:1051100000000000FFFFFF000000000000000A0088
:1051200000000000070000000C0080000C000000E0
:1051300000000000FFFFFF00000000000A800000E8
:105140006451D0C0070000001A0080000C0000006D
:1051500000000000FFFFFF00000000000A800000C8
:10516000091A0020436F6D70617265204861736891
:1051700065733A005369676E2074686973204861EB
:1051800073680000030000000000800020000000A1
:105190000100000000000000FFFFFF000000000011
:1051A00000000000050003000C00070007000000DD
:1051B00000000000FFFFFF000000000000000700EB
:1051C00000000000050075000D000800060000004A
:1051D00000000000FFFFFF000000000000000600CC
:1051E00000000000070000000C0080000C00000020
:1051F00000000000FFFFFF00000000000A80000028
:105200007451D0C0070000001A0080000C0000009C
:1052100000000000FFFFFF00000000000A80000007
:10522000E11900206F009001670069856A8055329E
:10523000465F56329000010990006E006D00FFFF3E
:10524000FFFF0000000000000921110121012222BE
:105250000000000009211101000122220006D0F106
:105260000901A1010903150026FF00750895408179
:10527000080904150026FF00750895409108C0062E
:10528000A0FF0901A1010903150026FF007508957B
:105290004081080904150026FF0075089540910813
:1052A000C0000000A141D0C0B141D0C0C141D0C0B8
:1052B000D141D0C0E141D0C0F141D0C00142D0C005
:1052C0001142D0C0DF3FD0C01140D0C0473FD0C056
:1052D00000000000000000003D41D0C05541D0C09A
:1052E000000000000000000000000000B942D0C033
:1052F000B942D0C0B942D0C0C942D0C0C540D0C068
:105300001140D0C0473FD0C00000000000000000A6
:10531000F940D0C01141D0C00000000000000000E2
:1053200000000000B942D0C0B942D0C0B942D0C0DC
:10533000C942D0C01201000200000040972C0510A5
:10534000010201020301040309040E034C0065007D
:1053500064006700650072000E034E0061006E007D
:105360006F00200053000A0330003000300031008D
:1053700009024900020102C03209040000020300D0
:1053800000020921110100012222000705820340C9
:1053900000010705020340000109040100020301A6
:1053A0000102092111012101222200070581034088
:1053B0000001070501034000010000000A06000289
:1053C0000000004001000000038000000000800099
:1053D000200000000100000000000000FFFFFF00AF
:1053E0000000000000000000058103000E0007001F
:1053F0000400000000000000FFFFFF0000000000AC
:1054000000000B0000000000058276000E0007007F
:105410000400000000000000FFFFFF00000000008B
:1054200000000C000000000007410E0003006400B3
:105430000C00000000000000FFFFFF000000000063
:105440000A8000000000000007420E0023006400F4
:105450000C00000000000000FFFFFF000000000043
:105460000A8000000000000005100E000900000086
:105470000000000000000000FFFFFF00000000002F
:10548000000000000000000007200E001300640070
:105490000C00000000000000FFFFFF000000000003
:1054A000088000000000000007210E000C006400CE
:1054B0000C00000000000000FFFFFF0000000000E3
:1054C000088000000000000007220E001A0064009F
:1054D0000C00000000000000FFFFFF0000000000C3
:1054E0000880000000000000000000000000000034
:1054F00000000000000000000000000000000000AC
:10550000000000000000000000000000000000009B
:10551000000000000000000000000000000000008B
:10552000000000000000000000000000000000007B
:10553000000000000000000000000000000000006B
:04000005C0D0000166
:00000001FF
