:02000004C0D06A
:10000000B0B58CB062B6134C0021B022204601F08E
:1000100015F901F02FF801AD284603F055FE2885AB
:1000200080B2002806D01028EED000F0BDFE0020DF
:100030000CB0B0BD01A801F020F801F00DFB0020CC
:1000400003F05EFB012003F05BFB00F035FA00F0EB
:100050008BFDC04680180020F0B581B0022900D386
:1000600083E00025681A48419378D678177852784B
:10007000404C20711002C0193202D21812048018AC
:100080002060A01D00290ED03F497944102201F0C4
:10009000DEF820462E303D497944052201F0D7F89C
:1000A000226833340DE036497944112201F0CFF84B
:1000B00020462E30334979440A2201F0C8F82268DC
:1000C00038340023204600F0BFFE20183049794420
:1000D000022201F0BCF8069C274E05202D497944E8
:1000E000316070602C487844F560306103203076D0
:1000F000F5613046183002F011FCF06101F07AFF32
:1001000001F0CAFA01F0CEFAB5603068002826D0B6
:10011000F0691A49884222D0002820D00020716856
:1001200088421CD202F054FC002818D1B068F16853
:100130003825684332681018002902D08847002803
:1001400007D0012803D1B06845433068401900F05A
:10015000CDF9B068401CB06031680029DFD120685B
:1001600010210143216001B0F0BD014801F03EF9CA
:10017000016B00003019002080180020445010B09E
:10018000B43C0000B73C0000F03C000079450000A2
:10019000AA3C0000BA3C0000B3000000F0B5A7B0D4
:1001A000514988420AD05149884200D098E05448C9
:1001B000002100F08BF900F07FF991E04C4E30689F
:1001C0000AA914AD2A4600F083FE0835494C4122A5
:1001D0002046294601F03BF841342046294600F0EC
:1001E00011FF09200003552100F070F93579B01D89
:1001F00044497944082201F02AF8002D19D03046EC
:10020000563041497944022201F021F86D462826F2
:1002100000272846214632463B4600F0E7FD344899
:10022000583029463246324E01F011F880203754BA
:1002300006E0304656302F494122002300F0D6FD1B
:100240003046A330314656310C2201F000F8AF2081
:10025000002535547571284C2C487844052103C479
:100260002B4878442B4979446160A06003202074B6
:100270006561083C2046183002F050FBE06101F057
:10028000B9FE01F009FA01F00DFAA5602068002816
:1002900026D0E0691949884222D0002820D00020C9
:1002A000616888421CD202F093FB002818D1A06834
:1002B000E1683825684322681018002902D0884771
:1002C000002807D0012803D1A068454320684019C1
:1002D00000F00CF9A068401CA06021680029DFD163
:1002E000002027B0F0BDC046020000800100008061
:1002F00030190020EC19002080180020445010B064
:1003000085690000983B00008F3B0000563C0000D0
:10031000B3000000FF010000B0B5012808DD02288D
:100320004DD04B4988424AD04A49884207D08DE097
:100330004949884200D187E0012800D086E047483B
:100340004179002500292A4602D0491E4171CAB2CE
:1003500081185631A3300C2200F079FF01F09CF98E
:1003600001F0A0F93E4CA560206800286ED0E0693D
:100370003C4988426AD0002868D0002061688842E1
:1003800064D202F025FB002860D1A068E16838251E
:10039000684322681018002902D08847002807D037
:1003A000012803D1A06845432068401900F09EF859
:1003B000A068401CA06021680029DFD146E02748E2
:1003C000037934224021002B00D00A4641798A4229
:1003D00002D9491C4171C9B241185631A3300C22CF
:1003E00000F035FF01F058F901F05CF91C4C0020D9
:1003F000A0602068002829D0E0691A49884225D0E9
:10040000002823D00020616888421FD202F0E0FA61
:1004100000281BD1A068E1683825684322681018BD
:10042000002902D08847002807D0012803D1A068FE
:1004300045432068401900F059F8A068401CA060AE
:1004400021680029DFD101E000F036F80020B0BDBE
:10045000020000400100004003000080301900202D
:1004600080180020445010B0B0B50A494A79447849
:100470000B790021012C01D1002A09D0022C06D1D0
:1004800034244025002B00D02C46944200D0014655
:100490000846B0BD3019002080B5064801214170E2
:1004A00000210170817009200003032100F00EF883
:1004B00080BDC046EC19002080B503497944002076
:1004C000024601F009FD80BD7C3B000080B5020AB8
:1004D000054B5A544A1C92B29854881C81B2202071
:1004E00001F0C2FA80BDC046EC19002080B501F0D1
:1004F0001DFA80BDF0B585B0E24D28780C2856DD98
:100500000D2800D1A5E00E2800D1E2E0152800D08A
:1005100071E1DD480078012803D1A879000700D4F3
:10052000F4E2DA4C0025E5610120207620461830FF
:1005300002F0F4F9E06101F05DFDE069D449884220
:1005400000D0E2E101F0A8F801F0ACF8A560206865
:10055000002800D1D1E2E069CE49884200D1CCE246
:10056000002800D1C9E200206168884200D3C4E2BB
:1005700002F02EFA002800D0BFE2A068E16838251A
:10058000684322681018002902D08847002807D045
:10059000012803D1A06845432068401901F0C6F93D
:1005A000A068401CA06021680029DDD1A5E20528D3
:1005B00000D1D4E00C2800D01DE1E84C0026E66113
:1005C000012020762046183002F0A8F9E06101F001
:1005D00011FDE069E34FB84200D18EE2002800D15E
:1005E0008BE2DF49884200D046E201F055F801F085
:1005F00059F8A6602068002800D17EE2E069B84280
:1006000000D17AE2002800D177E2002061688842B8
:1006100000D372E202F0DCF9002800D06DE2A0689D
:10062000E1683825684322681018002902D08847FD
:10063000002807D0012803D1A0684543206840194D
:1006400001F074F9A068401CA06021680029DDD188
:1006500053E2C24C0025E561012020762046183087
:1006600002F05CF9E06101F0C5FCE069BD4EB0420A
:1006700000D142E2BA49884200D19DE1002800D170
:100680003BE22068002800D131E2A068616888421E
:1006900000D32CE202F09CF9002800D027E2A068E9
:1006A000E1683825684322681018002902D088477D
:1006B000002807D0012803D1A068454320684019CD
:1006C00001F034F9A068401CA06021680029DDD148
:1006D0000DE2A24C0025E56101202076204618306D
:1006E00002F01CF9E06101F085FCE0699C49884258
:1006F00000D0D1E000F0D0FF00F0D4FFA56020686A
:10070000002800D1F9E1E0699649884200D1F4E17E
:10071000002800D1F1E100206168884200D3ECE1BB
:1007200002F056F9002800D0E7E1A068E16838251A
:10073000684322681018002902D08847002807D093
:10074000012803D1A06845432068401901F0EEF864
:10075000A068401CA06021680029DDD1CDE1ED4CEE
:100760000026E661012020762046183002F0D6F8F7
:10077000E06101F03FFCE069E84FB84200D1BCE124
:10078000002800D1B9E1E449884200D048E100F0F6
:1007900083FF00F087FFA6602068002800D1ACE14D
:1007A000E069B84200D1A8E1002800D1A5E100200D
:1007B0006168884200D3A0E102F00AF9002800D065
:1007C0009BE1A068E1683825684322681018002979
:1007D00002D08847002807D0012803D1A0684543EC
:1007E0002068401901F0A2F8A068401CA0602168B0
:1007F0000029DDD181E1C74C0025E561012020768B
:100800002046183002F08AF8E06101F0F3FBE0695D
:10081000C149884200D0A7E000F03EFF00F042FF4F
:10082000A5602068002800D167E1E069BB498842E3
:1008300000D162E1002800D15FE1002061688842B8
:1008400000D35AE102F0C4F8002800D055E1A068B6
:10085000E1683825684322681018002902D08847CB
:10086000002807D0012803D1A0684543206840191B
:1008700001F05CF8A068401CA06021680029DDD16F
:100880003BE1C04600180020F81A00208018002024
:10089000555010B0445010B06169002906D0642250
:1008A00064290B4600D31346C91A61619B498842EB
:1008B00000D122E1002800D11FE12068002800D1EA
:1008C00015E1A0686168884200D310E102F080F869
:1008D000002800D00BE1A068E16838256843226851
:1008E0001018002902D08847002807D0012803D11A
:1008F000A06845432068401901F018F8A068401C22
:10090000A06021680029DDD1F1E02068002800D135
:10091000EDE0A0686168884200D3E8E002F058F892
:10092000002800D0E3E0A068E16838256843226829
:100930001018002902D08847002807D0012803D1C9
:10094000A06845432068401900F0F0FFA068401CF3
:10095000A06021680029DDD1C9E0C04680180020D0
:10096000555010B0445010B02068002800D1BEE0AF
:10097000A0686168884200D3B9E002F029F8002835
:1009800000D0B4E0A068E1683825684322681018F8
:10099000002902D08847002807D0012803D1A06889
:1009A00045432068401900F0C1FFA068401CA060CA
:1009B00021680029DDD19AE000F06EFE00F072FEA1
:1009C000A5602068002800D197E0E069B04200D11E
:1009D00093E0002800D190E000206168884200D3B5
:1009E0008BE001F0F5FF002800D086E0A068E16808
:1009F0003825684322681018002902D0884700284B
:100A000007D0012803D1A06845432068401900F0B1
:100A10008DFFA068401CA06021680029DDD16CE03A
:100A20002069002803D0E978490800F0C1FF206858
:100A300000285CD0A0686168884258D201F0C8FFE5
:100A4000002854D1A068E16838256843226810184E
:100A5000002902D08847002807D0012803D1A068C8
:100A600045432068401900F061FFA068401CA06069
:100A700021680029DFD13AE0A08804902068039023
:100A8000EB79AE796A792F79ED78E168684605608F
:100A900041603802801882B23002C01883B20398D5
:100AA000049900F077FE2068002820D0A0686168D3
:100AB00088421CD201F08CFF002818D1A068E168A0
:100AC0003825684322681018002902D0884700287A
:100AD00007D0012803D1A06845432068401900F0E1
:100AE00025FFA068401CA06021680029DFD1606854
:100AF000A168814201D301F06BFF01F069FF00287A
:100B000001D100F07FFC012005B0F0BD102000F005
:100B10006DFCC04680180020555010B0445010B0F5
:100B2000B0B50546072028400024012814D002282B
:100B300014D1002909D00B4801F034FF68B2002815
:100B40000ADA01F0EFFD002406E0412081000548AB
:100B5000002201F053FF04462046B0BD022000F001
:100B600045FCC046EC19002094B000201390129070
:100B700004901190754E774F7F44774878440390E6
:100B800010A80499018005AC204603F09DF820854B
:100B900084B2002C39D105A800F06FFA1298139096
:100BA0000024129411981399C0B289B200F05CFF2E
:100BB00013901194139800282CD03078E0282CD171
:100BC000707801283C4607D0042804D0022828D198
:100BD000624C7C4400E0039C3379F178B07812AA2F
:100BE0006D466A6011AA2A60721DA04700F002FCDF
:100BF00005A9884203D100F0FFFB00F03EFA05A8EA
:100C0000008D0028BCD000F0F1FB102C0DD105A800
:100C100004990185102000F0E9FB3720400200F024
:100C2000E5FB6D20000200F0E1FB054605A8002170
:100C300001854B487844214601F0DEF9092C0CDD92
:100C40000D2C15DD102C25DD112C3FD0122C40D0A1
:100C5000132C69D14A4878444FE0052C11DC032C51
:100C60001FDC022C38D0032C5ED13E48784444E08F
:100C70000B2C1DDC0A2C01D00B2C55D13D4878449F
:100C80003BE0072C1BDC062C29D0072C4CD1374825
:100C9000784432E00E2C25D00F2C45D137487844CB
:100CA0002BE0042C21D0052C3ED12F48784424E0A1
:100CB0000C2C1DD00D2C37D12F4878441DE0082C6A
:100CC00019D0092C30D12A48784416E032487844AB
:100CD00013E03248784410E0324878440DE02A4866
:100CE00078440AE02B48784407E02648784404E03A
:100CF0002748784401E02548784401F07DF91448FC
:100D000005400D20C002281810A908801098000A7C
:100D100012997054481C1290109812997054481CE3
:100D20001290204600F062FB1D48784401F064F9FF
:100D30000F200003284009210903884203D0032122
:100D400049038842DBD110A80580DFE7EC190020B9
:100D5000FF0700001DF9FFFFF117000083F4FFFFFC
:100D6000AE340000A334000083340000BE34000021
:100D7000A4340000FD340000E0340000143500000D
:100D80007D350000333400005C340000673400001F
:100D900098340000C1340000EE340000F13400004B
:100DA000BB3400002234000010B58CB001AC2046EA
:100DB00002F08AFF2085000406D101A800F05DF949
:100DC0000020C04301F094FD00F014FB01A988420B
:100DD00003D100F011FB00F050F901A8008D0028AC
:100DE00001D10CB010BD00F001FB0000F0B585B0E2
:100DF000049014461C43002C1ED00D4600271148B9
:100E0000784401903E460297039300920199AC5DAD
:100E100024090C5D73000498C454AC5D0F22224079
:100E20008A5C5B1CC254009A039B761C0298474163
:100E3000B01A38469841EAD351000022049842542F
:100E400005B0F0BD4C340000F0B587B00446104644
:100E50001843002835D003940025069217460193C5
:100E60001E4605950A2238463146059C234602F067
:100E700051FD6D1C0922D21BB44107460E46F1D329
:100E80000398401E04900295019E069806900A273A
:100E9000002431463A46234602F03CFD05900E46BA
:100EA0003A46234602F056FD0699081A30210143BE
:100EB000049841556D1E002D0598E7DC039C0298AF
:100EC00002E03020207001200021215407B0F0BD45
:100ED000F0B5B7B00892099125A9059121270F70A7
:100EE00012A906910F70264A7A440FA90B4670CAC0
:100EF00070C301220792D20713463C330B93104371
:100F00002C320A920C9000260D960E960C206A4602
:100F1000D060916056602FAD15600AAA0523304657
:100F2000394601F0C7FC202238462946059C234655
:100F300001F070FC384631463246069D2B4601F0E2
:100F400051FC384629462246079B01F07BFC089855
:100F5000002803D012A94C2202F018FE099D002D92
:100F600006D025A80EC80EC50EC80EC51EC81EC5C3
:100F700025A80021282200F061F937B0F0BDC04655
:100F8000A8330000F0B5ADB00592054623AC0026AD
:100F90000796084621463246FFF79AFF099609A8A8
:100FA0006946C8606420069088600AAF4F602026BA
:100FB0000E60134903222046059B01F05BFC2822AA
:100FC0002046079900F03AF908AC1B202070391D23
:100FD0002846324600F03BF9284620303946263173
:100FE000324600F034F9403501222846214600F00F
:100FF0002EF938460799069A00F020F92DB0F0BD79
:1010000001060000F0B5FFB088B00390491C77AD31
:1010100040220292284600F01AF9144878444121EF
:101020002A4600F0E9FF0124210204AE304601F017
:10103000C1FB2020694648606FAF0F6030462146F3
:101040002A46029B01F09AFB0C3709487844142485
:1010500021463A4600F0D0FF03983946224600F078
:10106000F6F820467FB008B0F0BDC046413200001F
:1010700030320000002081467047814670470000F2
:10108000F0B581B00646664FB94238D00D461446D9
:10109000009640263846314602F072FD402C22462A
:1010A00000D33446BD4217D2002C009E27D04020EA
:1010B000C14308464030831A8B4200D80B463F316B
:1010C000CC1A2919564D2C195B1C0D78257009185E
:1010D00024185B1CF9D112E0002C009E0FD0402098
:1010E000C04301464031891A814200D80146481C5C
:1010F00029783970401C7F1C6D1C0028F8D1484DA0
:10110000A87801280ADC002830D001287BD1E81C0F
:10111000042101F01BFB4021284632E002282ED09A
:10112000052870D12879E978090208183D4E316800
:10113000002788426DD1501F3168002924D081B228
:10114000394A13688B4201D2106881B2374A12685B
:101150006B1D9A4240D90023040448D0413A4032E2
:101160006B181B795354491EFAD13FE00027AF7129
:101170006F712F71EF7040212846B04749E0284831
:101180004021B047002744E0A8796979090209188D
:1011900027480160016841239B00994239D80168C2
:1011A0002148016069782B781B025918214B19607E
:1011B0001E49214B0B60D41FA2B20168914201D29B
:1011C0000468A2B2E91D8B42002320040FD01A4804
:1011D00002F0DCFC23460AE00023040407D06B1D68
:1011E0001C781470521C5B1C491EF9D1034698B23E
:1011F0000D490A68121A0A600C490A68101808603A
:101200003068401C3060084801680120022700292E
:1012100003D1044800210160384601B0F0BDC0464A
:101220006C1B0020E0190020E8190020F01A0020B3
:10123000E4190020F41A0020EC19002080B5002ADF
:1012400004D00B4611461A4602F0A4FC80BDB0B58E
:10125000884208D9002A0FD0491E401E8B5C835457
:10126000521EFBD108E0002A06D000239CB20D5D7F
:1012700005555B1C521EF9D1B0BD0000014800218C
:1012800001607047E0190020F0B581B03A4F39682D
:1012900000292BD00090394C661D3925304629464F
:1012A00002F06EFC0520A07035480168090A217023
:1012B0000068607033480168090AE17001682171B3
:1012C00002683968002A19D03B253B2900D83D68BF
:1012D0002D480168B14228D2002D3DD04A1E2B4630
:1012E000D05CE61830715B1EFAD135E0254800214C
:1012F000016025480160254801703BE0392900D88C
:101300003D683968090A61713968A1711E49096827
:10131000E21D914215D2002D1ED04A1E2B46D65CEE
:10132000E01886715B1EFAD116E0002D14D0002261
:101330002B4690B20E5C20184671521C5B1EF8D1F1
:101340000AE0002D08D000222B4690B20E5C201837
:10135000C671521C5B1EF8D14919009A094B3868B6
:10136000401B3860084801601868401C186003483A
:101370004021904701B0F0BDE81900206C1B00200F
:10138000F41A0020E0190020F01A00200E1B0020A3
:1013900080B500290BD0064A00231360054A11606E
:1013A000054A064B1360064A1160FFF76DFF80BDCA
:1013B000E0190020E8190020F01A0020EC190020A4
:1013C000E419002070B5401E491E541E0023002A57
:1013D0000AD08D5C865CAE422246F6D00020C04327
:1013E0000123AE4200D80346D8B270BD014648463C
:1013F00002F076FC4846704700204946002900D09C
:101400004869704780B501F0E3FA002800D080BD3C
:101410000648002141706022027002228270C17071
:101420000171052101F0BEFA80BDC0460018002000
:1014300010B51948C078032807DC01280DD0022810
:1014400026D1164801F0C6FD10BD04281DD008287D
:101450001ED1124801F0BCFD10BD104C01212046E8
:1014600001F0B1FD204601F08EFD0D480078002806
:101470000FD10C48002407222146FFF7DFFE0A485F
:101480000E222146FFF7DAFE10BD044801F09EFD52
:1014900010BD1020FFF7AAFF00180020B41B002089
:1014A000F81A0020F91A0020001B00207F210140BB
:1014B0000148405C7047C046F91A002010B5144836
:1014C0000179042916D0022906D001291ED1811DD7
:1014D000114801F055FC10BDC2787F21114006294A
:1014E00014D84A000D4B00249C52821D0A4801F07A
:1014F000D3FC10BDC2787F211140062906D842795D
:10150000044B5A54821D044801F069FC10BDC046CA
:1015100000180020F91A0020B41B0020001B002036
:1015200070B5FF2A1DD815460E4604460D485021B9
:101530000170202101714271D11C817080222243EF
:10154000C270090A4170062101F02CFA3046294682
:1015500001F028FA7F20204040007D210901024A45
:10156000115270BD00180020001B002080B50A46F3
:10157000014682201423FFF7D3FF80BD80B50E48BB
:101580000178002900D080BD0C4906220A700A218A
:1015900001700B4881784278120251188B08412261
:1015A0009200412B00D31146064A11801288C11CBB
:1015B0000548FFF74CFE80BD0E1B0020F81A0020E6
:1015C00000180020101B0020EC19002010B51F4847
:1015D000817842781202511800780F280ADC0E2810
:1015E00010D00F2820D10020012924D1FFF720FF9F
:1015F000012010BD10281BD0162815D1FFF7BEFF03
:10160000012010BD0C211248425A002A08D0642340
:10161000642A144600D31C46121B425212040FD0F7
:101620008A1E00291146EFD10220FEF763FF10BD8C
:101630000020032900D210BDFFF740FF012010BD9C
:101640000448002101701020FFF7D0FE0018002090
:10165000001B00200E1B002010B5092001F04CF8E3
:101660000748002404700748048007480470FFF707
:1016700005FE06480460064804600648046010BD84
:101680000E1B0020101B0020F81A0020141B002045
:10169000181B00201C1B002001480021016070471E
:1016A000141B0020024800210160024801607047BD
:1016B000181B00201C1B0020B0B50D460446006B13
:1016C00000280BD000F03EFE01462046884700F07F
:1016D00039FE00280FD0012800D00446002D06D086
:1016E0002046A847002806D0012800D004462046FE
:1016F000FEF7FCFE0120B0BDB0B58EB00D4604462D
:10170000406B00280BD000F01DFE014620468847A4
:1017100000F018FE00281AD0012800D00446002D41
:1017200007D02046A8476C46002810D0012800D0DA
:1017300004466D46382228462146FFF788FD606A38
:10174000A16A049005912846FEF7D0FE01200EB054
:10175000B0BDB0B50D460446C06A00280BD000F0FD
:10176000F1FD01462046884700F0ECFD00280FD02F
:10177000012800D00446002D06D02046A8470028A6
:1017800006D0012800D004462046FEF7AFFE012017
:10179000B0BD0000F0B587B0029303920591002917
:1017A00076D004900D9801900C98009000253C4B49
:1017B00006952F461E4601F00BF9002855D138201A
:1017C0006843049C2518334632680121954200D0B5
:1017D000069906912056002841DA2020285C022133
:1017E000695E0A1A039CA24239DC4118EA8889180A
:1017F000039A914233DD04216C5E221A02998A42D7
:101800002DDC2018298940180299884227DD1868A4
:10181000854210D0186800280DD00198002805D006
:101820002846019988473346002818D0186801993E
:10183000FFF742FF08E00098012809D002280ED1E6
:1018400028460199FFF785FF3346002807D021E09D
:1018500028460199FFF750FF334600281DD17F1C11
:10186000FDB205988542A5D300E0334606980006F0
:101870000ED0186800280BD001F0AAF8002807D174
:1018800030680199FFF718FF002801D00020306070
:1018900007B0F0BD00201860FAE71D60F8E7C04609
:1018A000141B0020F0B589B00C46014602AD1C2285
:1018B00028460192FFF7CBFC06CC2068E9802A81FC
:1018C000194F65233B7089B292B24A434243530792
:1018D000D1084A1C083C002B00D10A46009204267D
:1018E0008640B0181D30B870000A78700321384661
:1018F00001F058F82846019901F054F8A0683870B2
:101900000121384601F04EF8E06800F01BFDB1B24D
:1019100001F048F8009885B2206900F013FD2946CF
:1019200001F040F809B0F0BD0018002070B5044681
:1019300000787F26064001F04BF8002830D1002EB9
:101940002ED0E06900281DD000F0FCFC0546052ED5
:1019500002D1A07E002824D0284602F0CFF9064606
:1019600012486521017031461C318170090A4170AD
:10197000032101F017F81C21204601F013F8B1B241
:1019800028460BE0094800214170652101701C25A3
:101990008570032101F006F82046294601F002F87F
:1019A00070BD20462946FFF77DFF70BD001800205E
:1019B00070B500282DD00446164802688A4203D12B
:1019C000154A13685B1C136006680E43124A1568BB
:1019D000002901D0066005E00023036013600F4B6F
:1019E0005B1C1E430068884201D000201060082D57
:1019F0000CD30321284601F087FF012290073043D2
:101A0000002900D03046D107884300E030462946FF
:101A1000A04770BD181B00201C1B0020FFFFFF7F8C
:101A2000F0B581B00F4E01243470B11C8120470005
:101A30007A1C204600F09EFF054670703A1A37184F
:101A4000F91C022000F096FFB8702D187619F4707A
:101A500000F07AFF3071902070710020B071E81DA5
:101A600001B0F0BDEC190020F0B585B00646400786
:101A700008D004960498C0B289B2FFF751F880B23A
:101A800005B0F0BD80200290574F5B4D574C049637
:101A90001022324008044BD0002A49D13878072858
:101AA000039223D00A280AD0002800D195E0049898
:101AB000C0B289B2FFF734F8002826D08DE0FF20AD
:101AC00006308AB20192824200D389E0532020700E
:101AD000A170080A60700321204600F063FF4448AB
:101AE000019900F05FFF002038700EE089B2434892
:101AF0007844FFF74DFC08E0FFF784FC80210022CA
:101B0000204600F07BFFFFF761FD38780028F3D115
:101B100000203870374908702880B106AFD4FFF72D
:101B200071FC3006039A03D5012000F0E1FE039A10
:101B3000002A05D170064DD4002038702D49087058
:101B40000020288000F044FF002801D1FFF75AFC54
:101B5000802100262046324600F050FF022806D899
:101B6000A178627812025118C01E884208D1FFF78E
:101B70002DFD38780028E5D028880028E2D002E042
:101B800000203870DDE71E49794404221848FFF729
:101B900019FC002812D01B49794404221448FFF78D
:101BA00011FC002814D112480246467002990846DA
:101BB0001030107004980843022103E0FFF730FF53
:101BC00001460020C6B20490400700D160E751E70B
:101BD000288854E72888401F51E70920FFF706FCB2
:101BE0000220FFF703FCC0460E1B00200018002057
:101BF000EC190020F81A0020101B002079FAFFFFD2
:101C00001427000009270000B0B582B001AD002400
:101C10006C70662129700121A970E87004212846A2
:101C200000F0C0FE03212846224600F0E7FE02B085
:101C3000B0BD0000F0B581B007465D4C25461435B7
:101C4000382228463946FFF702FB2169A06800299F
:101C500003D088470346A06803E01C214143226863
:101C600053180026002810D02269411E002A0FD0E8
:101C70000846009737462E461D4690472B46354668
:101C80003E46009F0246A06806E03046324603E02A
:101C90001C224A4321688A186168491E884210D272
:101CA0002169401C002908D000951D46164688472A
:101CB00032462B46009D064603E01C214143206826
:101CC0004618787840280ADC202821DC102832D0F9
:101CD000202862D159690020002966D14EE0802871
:101CE00020DC412830D0422857D1596900200029F2
:101CF0005BD1D968002958D16268511E012A54D09D
:101D0000A2688A4251D0F16800294ED130692FE093
:101D100021282FD0222840D159690020002944D001
:101D200021632DE0822832D0812836D1A16800209D
:101D3000002932D139E0D9680020002935D021634B
:101D4000587E002821D128E05969002000292CD193
:101D5000D968002929D1A168002926D06168012904
:101D600023D0D168002920D1516900291DD11069E3
:101D7000206312E059690020002916D018692063F9
:101D8000187E002809D00821A185E08205E060685E
:101D9000A168421E0020914207D0E268002A28462E
:101DA00003D0143418462146904701B0F0BDC04618
:101DB000201B0020F0B581B005463C4F3969B8685A
:101DC000002902D08847064603E01C2141433868B9
:101DD000461801243648854214DD3648854216D01F
:101DE000354885421BD0354885425CD13068002893
:101DF00050D0B46800F0A6FA0146FA68204600F018
:101E00006BF84FE02E498D4209D085424BD179685D
:101E1000B868491E0024884245D2401C04E0B868D6
:101E2000002400283FD0401E264900240C60B860E2
:101E300025480460254DAC602548046028680028CA
:101E400031D0E869234988422DD000282BD00024C6
:101E500020466968884226D200F0BAFD002822D1C7
:101E6000A868E968382670432A681018002902D04B
:101E70008847002807D0012803D1A868464328686E
:101E80008019FEF733FBA868401CA8602968002968
:101E9000DFD108E07068002805D000F053FA014651
:101EA000B06888470024204601B0F0BD201B002008
:101EB000020000800200004001000040030000809A
:101EC00001000080141B0020181B00208018002037
:101ED0001C1B0020445010B0F0B583B002920D4698
:101EE0000190394E002000907060002915D03C49C7
:101EF00079441C2728463A46FFF764FA00280CD09C
:101F0000384C7C447068401C706078432818214627
:101F10003A46FFF757FA0028F4D10199481C05D03A
:101F200070688842009800D30846B060356000258C
:101F30000298F0603561254C2B487844092103C490
:101F40002A4878442A4979446160A06003202074BB
:101F50006561083C2046183000F0E0FCE06100F0CC
:101F600049F81B4805601B480560A5601A480560D4
:101F70002068002826D0E0691849884222D000282D
:101F800020D00020616888421CD200F021FD00288A
:101F900018D1A068E1683825684322681018002924
:101FA00002D08847002807D0012803D1A068454304
:101FB00020684019FEF79AFAA068401CA0602168CA
:101FC0000029DFD103B0F0BD201B002080180020C5
:101FD000141B0020181B00201C1B0020445010B0B4
:101FE000B02500009E2500006E2300006FFEFFFF5D
:101FF000EBFCFFFF7047000083B0F0B58CB011AC74
:102000000EC4002800D18EE1044611A8079086E195
:1020100025460026014602E0A9194978761CCAB275
:10202000002A01D0252AF7D1AC19002E0CD0C0B25D
:10203000FFF7EAFD012E06D00127E85DFFF7E4FD7A
:102040007F1CBE42F9D12178C8B2252800D066E1B4
:10205000A819411C002320200A2206921F4604933F
:10206000059304E02146079A141D079417680C464F
:1020700019462278641C00232D2AF9D0472A18DC3F
:102080002F2A26DD1346303B0A2B00D3FBE0302AF3
:102090000546034600D113460598002800D02B467C
:1020A0000A254543A8183038059018460B462146A6
:1020B000DDE7672A06DD722A20DD732A3CD1029013
:1020C000069821E0622A3CDC482A4AD1029001208D
:1020D00018E0252A58D02A2A29D02E2A00D0D2E06A
:1020E00021782A2900D0CEE06278611C0123482A99
:1020F000B9D0682AB7D0732AB5D0C4E0682A38D1DD
:102100000290002004901020079B1A1D07920322C2
:102110000A401D68012A00D1C6E0022A00D1AFE0C2
:102120000690032A0B4621460298A0D0B5E02178FC
:102130000223732996D0A6E0752A27D0782A1BD0CF
:10214000A1E0632A00D194E0642A00D09BE00290D1
:102150000798011D07910068C11742184A40C00F37
:102160001AE0582A00D08EE001460120049008466B
:1021700002E0702A00D086E002900798011D0791C6
:1021800002680020102608E0252076E002900798DB
:10219000011D0791026800200A260390012706927C
:1021A000964212D8012530460746314601F026FBFB
:1021B000A84209D1304678430599491E05910699F0
:1021C00088423D46F0D900E02F460598411E039B0A
:1021D000002B00D101460025E843002B00D1184612
:1021E00001900298C2B2302A06D1002B04D008A870
:1021F0002D23037001250023881E0D280BD808A865
:102200004019491E039301F0C5FC039B0598401932
:1022100001994018451E002B03D008A82D214155D7
:102220006D1C0498002F1AD0002802D0444878442E
:1022300001E04248784405900698394601F0DEFAFC
:10224000314601F061FB0598405C08A948553846C5
:10225000314601F0D3FA6D1CBE420746ECD9002D81
:102260005DD008AE3078FFF7CFFC761C6D1EF9D13B
:1022700055E00798011D07910078FFF7C5FC4EE077
:10228000287800283AD0002529487844405DFFF797
:10229000BBFC6D1C052DF7D141E000216A5C491C97
:1022A000002AFBD14F1E06981028049923D000263F
:1022B000002F29D00026A85DFFF7A6FC761CB742A8
:1022C000F9D13E4620E028780F2606400009012972
:1022D00004D000290DD11749794401E01649794409
:1022E0000691085CFFF790FC0698805DFFF78CFC78
:1022F00004997F1E6D1C002FE5D110E0FD432020C6
:10230000FFF782FC6D1CFAD10599B14207D9881BF1
:1023100005D0751A2020FFF777FC6D1CFAD12078C4
:10232000002800D074E60CB0F0BC01BC03B000473C
:1023300052220000E4210000EE210000882200006B
:102340009E22000080B50449884204D30349884294
:1023500001D200F005F880BD0000D0C04048D0C0D8
:102360007A460249C91C891A401A70476123D0C0B5
:10237000F0B581B010785178090208189178D378B7
:102380001B02591809044018334F3D4601C5111D61
:10239000202628463246FEF75AFF243700243846C6
:1023A000294632462346FEF721FD2B4D28468D3027
:1023B0000C223946FEF74BFF64202C5499202C54F4
:1023C000264D28487844052103C5274878442749E5
:1023D00079446960A860032028746C61083D284630
:1023E000183000F09BFAE861FFF704FEFFF754F99C
:1023F000FFF758F9AC602868069C002826D0E869E9
:102400001749884222D0002820D0002069688842DD
:102410001CD200F0DDFA002818D1A868E968382637
:1024200070432A681018002902D08847002807D076
:10243000012803D1A868464328688019FEF756F89A
:10244000A868401CA86029680029DFD120681021F5
:102450000143216001B0F0BD301900208018002038
:10246000445010B020210000A1000000B102000083
:10247000B0B5012808DD022854D07849884251D0EF
:102480007749884207D0E6E07649884200D18AE061
:10249000012800D0DFE064217348415C0025002959
:1024A0002A4603D0491E64228154CAB281182431BD
:1024B0008D300C22FEF7CBFEFFF7EEF8FFF7F2F8B7
:1024C0006A4CA5602068002800D1C4E0E069684932
:1024D000884200D1BFE0002800D1BCE00020616844
:1024E000884200D3B7E000F073FA002800D0B2E0D1
:1024F000A068E1683825684322681018002902D0D6
:102500008847002807D0012803D1A06845432068E8
:102510004019FDF7EBFFA068401CA060216800296E
:10252000DDD198E064215048415C332902D8491C30
:1025300064228154C9B2411824318D300C22FEF737
:1025400086FEFFF7A9F8FFF7ADF8484C0020A06021
:10255000206800287FD0E069454988427BD0002868
:1025600079D000206168884275D200F031FA0028E5
:1025700071D1A068E16838256843226810180029E5
:1025800002D08847002807D0012803D1A06845431E
:1025900020684019FDF7AAFFA068401CA0602168D0
:1025A0000029DFD157E0304D284665303149794464
:1025B0000A22FEF74CFE2A686F350024284623467F
:1025C000FEF742FC28182C4979440222FEF73FFE10
:1025D000264D0520294979442960686028487844B7
:1025E000EC60286103202876EC612846183000F062
:1025F00095F9E861FFF7FEFCFFF74EF8FFF752F898
:10260000AC602868002826D0E8691949884222D0A1
:10261000002820D00020696888421CD200F0D8F938
:10262000002818D1A868E968382460432A6810187F
:10263000002902D08847002807D0012803D1A868C4
:10264000444328680019FDF751FFA868401CA860A2
:1026500029680029DFD10020B0BDC046020000403B
:102660000100004003000080301900208018002085
:10267000445010B05E200000B0170000522000004F
:10268000CF0000004178022907D0012904D164213C
:10269000064A515C002907D070476421034A525C06
:1026A0000021342A00D00146084670473019002026
:1026B00080B50B49884205D00A4988420ED10C48A2
:1026C000002107E0084A02CA0848FEF75BFC09201F
:1026D00000034121FDF7FAFEFDF7EEFE002080BD6C
:1026E000020000800100008030190020EC19002059
:1026F0008569000001DF704780B582B0009007480F
:102700006946FFF7F7FF01AA11600549884201D128
:1027100002B080BD0420FEF769FEC04637010060AC
:10272000C601009080B582B0064801A9FFF7E2FF1C
:102730006A4611600449884201D102B080BD04207C
:10274000FEF754FE00020060F102009080B584B0F4
:1027500002910190074801A9FFF7CCFF03AA11607D
:102760000549884202D1039804B080BD0420FEF7D9
:102770003DFEC0462C0500606705009080B588B01E
:1027800001AF0FC70A9805900B980690074801A95A
:10279000FFF7B0FF07AA11600549884202D10798E8
:1027A00008B080BD0420FEF721FEC0463B07006054
:1027B000AD07009080B584B002910190074801A94F
:1027C000FFF798FF03AA11600549884202D10398D8
:1027D00004B080BD0420FEF709FEC046CF100060A3
:1027E000D810009080B586B001AF0FC7074801A987
:1027F000FFF780FF05AA11600549884202D10598BC
:1028000006B080BD0420FEF7F1FDC046ED2D00604E
:10281000492D009080B586B001AF0FC7074801A9C8
:10282000FFF768FF05AA11600549884202D10598A3
:1028300006B080BD0420FEF7D9FDC046EA2E006038
:10284000632E009080B586B001AF0FC7074801A97D
:10285000FFF750FF05AA11600549884202D105988B
:1028600006B080BD0420FEF7C1FDC0462E2F0060DB
:10287000742F009080B58AB001AF0FC70C980590F7
:102880000D9806900E9807900F980890074801A998
:10289000FFF730FF09AA11600549884202D1099863
:1028A0000AB080BD0420FEF7A1FDC046F3380060E9
:1028B0007638009080B58AB001AF0FC70C980590AC
:1028C0000D9806900E9807900F980890064801A959
:1028D000FFF710FF09AA11600449884201D10AB02C
:1028E00080BD0420FEF782FD7A540060E25400901F
:1028F00080B582B0009007486946FFF7FBFE01AA49
:1029000011600549884201D102B080BD0420FEF764
:102910006DFDC046E16200606F62009080B582B0DC
:10292000009007486946FFF7E5FE01AA11600549D6
:10293000884202D1019802B080BD0420FEF756FD06
:10294000586400601F64009080B582B0074801A9F8
:10295000FFF7D0FE6A4611600549884202D100980F
:1029600002B080BD0420FEF741FDC0466E680060E5
:102970007F68009080B584B000AB07C30748694604
:10298000FFF7B8FE03AA11600549884202D10398F7
:1029900004B080BD0420FEF729FDC046D47000605D
:1029A0008770009080B584B002910190064801A91B
:1029B000FFF7A0FE03AA11600449884201D104B0C8
:1029C00080BD0420FEF712FD1C720060F3720090BF
:1029D00080B582B0074801A9FFF78CFE6A461160F6
:1029E0000549884202D1009802B080BD0420FEF75C
:1029F000FDFCC046CF7300607F73009080B584B04B
:102A000000AB07C307486946FFF774FE03AA1160CD
:102A10000549884203D103A8008804B080BD042082
:102A2000FEF7E4FCD17400602B7400900249002092
:102A30000860024908607047B01B0020AC1B0020F2
:102A400010B50748002444704F21017001218170A6
:102A50000221C1700421FFF7A5FF204610BDC0462A
:102A60000018002070B582B06D4600246C704F26AF
:102A70002E700220A8700320E8702C7105212846D2
:102A8000FFF790FF6C702E700120A870E870042191
:102A90002846FFF787FF204602B070BD10B582B010
:102AA00001A8002444704F2101700121817002218E
:102AB000C1700421FFF776FF204602B010BD000070
:102AC000B0B582B0144800240460144804606D4618
:102AD0004F2028706C700520A8700420E870012039
:102AE00028716971AC71012A05DC002A0AD0012A1B
:102AF0000AD1042006E0022A03D0032A04D10220CE
:102B000000E00320694688716846C3710821FFF719
:102B100049FF002002B0B0BDB01B0020AC1B00205C
:102B200010B582B06846002444704F22027005221E
:102B300082700422C2700122027141718471C471D9
:102B40000821FFF72FFF204602B010BDB0B582B0BC
:102B50000D466846002444705021017003218170A5
:102B6000C5704021017144710621FFF71BFF280643
:102B700001D5074800E0054801687F221540012281
:102B8000AA400A430260204602B0B0BDB01B00203C
:102B9000AC1B0020B0B582B00D46684600244470DE
:102BA0005021017003218170C57080210171447131
:102BB0000621FFF7F7FE280601D5074800E0054883
:102BC00001687F2215400122AA40914301602046FE
:102BD00002B0B0BDB01B0020AC1B0020080601D520
:102BE000054800E0034802787F200140012088402A
:102BF00010407047B01B0020AC1B002010B582B005
:102C00006846002444704F22027002228270032220
:102C1000C27001710521FFF7C5FE204602B010BD4C
:102C2000B0B582B01C461546684650220270C1708D
:102C3000202101714371D91C8170090A417006215C
:102C4000FFF7B0FE28462146FFF7ACFE002002B099
:102C5000B0BD10B582B068460024447050230370A4
:102C600003238370C1703021017142710621FFF787
:102C700099FE204602B010BD70B504460220002C1B
:102C800013D015460E464D208100204600F078FFF7
:102C9000002E02D0112000012650FC2001212154D9
:102CA00025702046FFF7C2FE002070BD70B50446B7
:102CB000FC20012121544520800025181720C643FF
:102CC000A8198069002806D04068FFF73BFB024640
:102CD0002179204690470836F2D12046FFF7DEFEE4
:102CE0002046FFF7ADFE002070BD03460220002AFB
:102CF00008D00020022B05D8D800081845218900EB
:102D000042500020704780B5FFF7ACFE002080BD28
:102D1000F0B581B00C4605464520870000262846C0
:102D2000314600F075F9002807D0E8590068FFF730
:102D300009FB02462846214690470837761C032E99
:102D4000EDD1002001B0F0BDF0B581B00C460546D4
:102D50004520870000262846314600F059F9002812
:102D600007D0E8594068FFF7EDFA024628462146A9
:102D700090470837761C032EEDD1002001B0F0BD3E
:102D800070B504462120C600A519284600F09DFB19
:102D9000F4200121215087204000205AF821605062
:102DA000A15D1F200840022808D001280BD0002870
:102DB0000ED12046294600F039F90EE0204629467A
:102DC00000F0FDFA09E02046294600F0D3FA04E0BD
:102DD000802001402046FFF7B9FE002070BDF0B50D
:102DE00083B002920446019100291DD02546FC358E
:102DF0004520860000272046394600F009F90028C2
:102E00000DD0A0598069002809D02978032906D15E
:102E1000FFF798FA034620460199029A9847083628
:102E20007F1C032FE7D134E0F4202058032830D151
:102E3000902020588C21615822468C3281420AD938
:102E4000091A1160814200D301468AB220460299D4
:102E500000F0B6FC1DE02646FC3645208700002524
:102E60002046294600F0D4F800280BD0E05900692C
:102E7000002807D03178032904D1FFF763FA01460F
:102E80002046884708376D1C032DE9D1204600F005
:102E90009EFC002003B0F0BDF0B581B00446009167
:102EA00000291CD02746FC374520850000262046F7
:102EB000314600F0ADF800280CD060594069002878
:102EC00008D03978032905D1FFF73CFA024620469D
:102ED000009990470835761C032EE8D150E0F42085
:102EE0002058022844D1E069256AA8420BD9132151
:102EF0000A01A1584919A150401BE06182B2204645
:102F000000F050FC34E0A6693046294600F0FCFC95
:102F1000AE420FD300290DD1F82020582746F837AC
:102F2000864207D20025204629462A4600F03AFC70
:102F30003D601DE02646FC364520870000252046E2
:102F4000294600F065F800280BD0E059C068002839
:102F500007D03178032904D1FFF7F4F90146204660
:102F6000884708376D1C032DE9D1204600F03BFC53
:102F7000012001026018615C012901D1002101706A
:102F8000002001B0F0BD70B50446902040212150D2
:102F9000FC20012222542162452086000025204683
:102FA000294600F035F8002807D0A0594068FFF7FF
:102FB000C9F9024621792046904708366D1C032D39
:102FC000EDD1002070BD01740020704700207047D3
:102FD0000020704770B50446FC20205C032815D102
:102FE0004520860000252046294600F011F80028DB
:102FF00008D0A059C069002804D0FFF7A3F9014602
:103000002046884708366D1C032DECD1002070BD8A
:1030100002460020022908D8C8001018452189005E
:1030200041580120002900D10846704780B54A78F0
:10303000042A08DD072A0FDC052A14D0062A1BD132
:1030400000F021F81DE0002A10D0012A17D0032A31
:1030500012D100F03CF914E0082A0AD0092A0BD159
:1030600000F0C4F80DE000F09BF80AE000F00CF965
:1030700007E000F0F2F804E000F072F901E000F07F
:1030800045F9002080BDB0B582B00D4604464988A0
:10309000080A052813DC01281CD0022825D00328A3
:1030A0003BD1C8B202283DDC002865D001286DD094
:1030B000022832D1112000012058C0680EE00628F5
:1030C0001ED0072826D00F2827D111200001205814
:1030D000C06903E01120000120580068FFF732F9B1
:1030E0000246207C01A9904734E04520800020580A
:1030F000002100282FD0217C002925D0C06A24E09F
:10310000207C002809D1452080002058002804D0C8
:10311000406B1AE0207C00280FD02046294600F0A2
:103120001FF927E003282CD0042834D00528F4D137
:103130001120000120588069D0E7452080002058E8
:103140000028EAD0006B00E0806AFFF7FBF8014638
:1031500001A88847014601A80288002A0AD0E88809
:10316000002807D0824200D3024601A802802046F0
:1031700000F002FB02B0B0BD1120000120584068F1
:10318000ACE71120000120580069A7E711200001D9
:1031900020588068A2E711200001205840699DE76F
:1031A00070B50446888800280BD1C888002808D14B
:1031B00048887F250540FC20205C2646FC360328F5
:1031C00003D1204600F0CCF870BDFE2025542046E7
:1031D0002946FFF713FD204600F0F9FA002D02D032
:1031E0000220307070BD0120307070BD70B50D468A
:1031F00004468E78022E1DD2FC20215C2046FC3035
:10320000032907D0022915D1002E22D066600321A0
:10321000017009E0002E12D06068B04219D0C1B22E
:103220002046FFF791FD666020463146FFF770FDAE
:1032300002280ED12046294600F092F870BD0221E6
:103240000170666020463146FFF77EFD204600F0A3
:10325000BEFA204600F0BBFA70BD80B5CA88012ACC
:103260000AD1FC22825C032A09D0022A04D100215F
:1032700081600146083103E000F072F880BD011D55
:10328000012200F079FA80BDB0B50446FC20205C34
:10329000FE220240022A16D10120E0604120800077
:1032A000215825460C350320002905D0204600F082
:1032B0009AFAE16802200843E0600222204629468B
:1032C00000F05AFAB0BD204600F04AF8B0BDB0B5E3
:1032D00004464888012818D10D464120800001216C
:1032E0002150287902280DD8C000201845218900D6
:1032F0004058002806D08068FFF724F80246204690
:1033000029469047204600F062FAB0BDB0B50D46A0
:103310000446FC20205CFE21014002291BD1688864
:1033200001281CD141208000002121502879022849
:103330000DD8C0002018452189004058002806D02B
:103340008068FEF7FFFF0246204629469047204648
:1033500000F03DFAB0BD2046294600F001F8B0BDAE
:1033600010B504468021FFF7F1FB00212046FFF74E
:10337000EDFB10BDB0B50D460446FC20205C0328D3
:1033800017D12879022814D8C000201845218900B7
:10339000405800280DD08068FEF7D4FF0246204632
:1033A00029469047E888002807D1204600F00FFA08
:1033B00003E020462946FFF7D3FF0020B0BDB0B59B
:1033C0000D4604460878602202400979202A10D16F
:1033D00002290ED8C80020184522920080580028E3
:1033E00007D08068FEF7AEFF024620462946904788
:1033F00069E06878002816D001281DD0032862D122
:10340000FC20205C03281BD16888002807D180207D
:103410000843802803D02046FFF798FB297902292A
:103420004ED8C8003FE0FC20205C032817D00228BB
:1034300010D148060AD146E0FC20205C032826D0A3
:10344000022807D18020084380283CD02046FFF77F
:103450007DFB38E020462946FFF782FF33E07F20DE
:103460000840000120180546843514300A0600D5AE
:1034700005462046FFF7B2FB0121002800D1014696
:10348000296002222046294600F076F91BE0688870
:10349000002818D1480613D02046FFF77BFB287977
:1034A00002280DD8C0002018452189004058002866
:1034B00006D08068FEF746FF024620462946904720
:1034C000204600F084F90020B0BD0A7802704A78E6
:1034D00042708A78CB781B029A1842800A794B791D
:1034E0001B029A1882808A79C97909028918C180D9
:1034F000704770B582B00D46044601A900200880CF
:10350000694608702A7860211140002910D02029CE
:1035100038D169780A460A3A022A33D302291BD0E5
:10352000032919D020462946FFF71AFF022029E077
:1035300069780B2913D00A290ED0062922D1688870
:10354000000A002221280ED02228114616D101AEF1
:10355000304600F051F80AE0694601220EE02046AC
:1035600000F035F90DE001AE304600F031F80146CB
:103570003288E888824200D302463280204600F03A
:10358000FBF8002002B070BDF0B581B00446822186
:103590000326402532462B46FFF792FA02272046A3
:1035A000394632462B46FFF78BFA204639462A46E3
:1035B000FFF74FFB002001B0F0BD10B5044682219B
:1035C000FFF7AEFA02212046FFF7AAFA002010BD4D
:1035D000014643208000064A125C09230020002A8D
:1035E00000D003460B80002A01D10248784470477E
:1035F000B41B002054110000014643208000064AFD
:10360000125C22230020002A00D003460B80002AEF
:1036100001D1024878447047B41B002035110000E6
:1036200080B5022903D103487844FDF72DFE002020
:1036300080BDC04641DFFFFFB0B502291CD1144652
:1036400002214022FFF705FB0C4D2878002813D1FA
:103650000220FDF72BFF02460C4878442146FDF777
:103660000FFD022808D101202870054807210170AC
:1036700004480068044908800020B0BDF81A002002
:103680000E1B0020E4190020101B00200FDFFFFF9D
:1036900012200880014878447047C0462E1100006F
:1036A00004200880014878447047C046301100006B
:1036B0000E200880014878447047C046241100005D
:1036C0000E200880014878447047C046221100004F
:1036D0000A200880014878447047C0462011000045
:1036E0000E200880014878447047C046021100004F
:1036F0000E200880014878447047C046F210000050
:1037000070B504464D208500104800212A46FDF77B
:1037100095FD002C16D00D4C0026204631462A4639
:10372000FDF78CFD0A49794420463246FFF7A4FA9A
:10373000084A7A4430462146FFF7D7FA2046FFF779
:10374000E2FA70BD0148FFF7B1FA70BDB41B00206A
:10375000461000005A1000002921018001487844D9
:103760007047C046A21000000A2101800148784439
:103770007047C046BE100000B0B50C46F4210223CD
:1037800043501321090144508261C261016A914290
:1037900000D80A4693B2002529462246FFF740FA90
:1037A0002846B0BDB0B50C46016A914200D80A4621
:1037B00093B2002529462246FFF732FA2846B0BDCB
:1037C00010B500242146FFF744FA204610BD10B57D
:1037D000F421042242500024214622462346FFF7CA
:1037E0001FFA204610BD10B5F421052242500024D6
:1037F00021462246FFF72DFA204610BD002243083D
:103800008B4274D303098B425FD3030A8B4244D3A8
:10381000030B8B4228D3030C8B420DD3FF220902EA
:1038200012BA030C8B4202D31212090265D0030BA9
:103830008B4219D300E0090AC30B8B4201D3CB039F
:10384000C01A5241830B8B4201D38B03C01A5241E1
:10385000430B8B4201D34B03C01A5241030B8B42E3
:1038600001D30B03C01A5241C30A8B4201D3CB02CE
:10387000C01A5241830A8B4201D38B02C01A5241B3
:10388000430A8B4201D34B02C01A5241030A8B42B6
:1038900001D30B02C01A5241CDD2C3098B4201D3CE
:1038A000CB01C01A524183098B4201D38B01C01A4C
:1038B000524143098B4201D34B01C01A52410309C3
:1038C0008B4201D30B01C01A5241C3088B4201D372
:1038D000CB00C01A524183088B4201D38B00C01A1F
:1038E000524143088B4201D34B00C01A5241411A46
:1038F00000D20146524110467047FFE701B5002053
:1039000000F006F802BDC0460029F7D076E7704700
:103910007047C046002B11D1002A0FD1002900D1D9
:10392000002802D00021C943081C07B4024802A1A4
:103930004018029003BDC046D9FFFFFF03B468469C
:1039400001B5029800F030F8019B9E4602B00CBC15
:103950007047C046F0B5CE46474615042D0C2E00E4
:1039600080B50704140C3F0C9946030C7E435D435D
:10397000674363437F19340CE4199C46A54203D97D
:1039800080235B029846C4444B4643435143250C75
:1039900036046544360C2404A4195B195918200018
:1039A0000CBC90469946F0BDF0B54F464646D6460B
:1039B000C0B5040082B00D00914698468B422FD8C6
:1039C0002CD04146484600F0B1F8290006002000FE
:1039D00000F0ACF8331A9C46203B9A4600D576E0BE
:1039E0004B46524693401F004B46624693401E0092
:1039F000AF4228D825D05346A41BBD41002B00DA86
:103A00007BE0002200230092019301235246934061
:103A10000193012362469340009318E08242D0D97B
:103A200000220023009201930A9B002B01D01C600E
:103A30005D600098019902B01CBC90469946A24670
:103A4000F0BDA342D7D90022002300920193634620
:103A5000002BE9D0FB079846414672080A437B08D1
:103A600066460EE0AB4201D1A2420CD8A41A9D4199
:103A7000012024196D410021013E24184D41002EE2
:103A800006D0AB42EED9013E24196D41002EF8D18B
:103A900000980199534600196941002B23DB2B0044
:103AA0005246D3402A006446E2401C0053461500AB
:103AB000002B2DDB26005746BE403300260067460C
:103AC000BE403200801A994100900191ACE76246F5
:103AD00020239B1A4A46DA406146130042468A4038
:103AE00017001F4380E7624620239B1A2A00664680
:103AF0009A402300F3401343D4E762462023002179
:103B00009B1A0022009101920122DA40019280E783
:103B10002023624626009B1ADE402F00B0466646F0
:103B2000B74046463B003343C8E7C04610B50029BE
:103B300003D100F007F8203002E0081C00F002F882
:103B400010BDC0461C2101231B04984201D3000C68
:103B500010391B0A984201D3000A08391B09984200
:103B600001D30009043902A2105C40187047C04616
:103B70000403020201010101000000000000000036
:103B800010B5002200F006F810BDC04610B500F0D8
:103B900009F810BD130010B50A00190000F046F82E
:103BA00010BDC046F0B50F2A38D90D0005430C00F2
:103BB0000300AD0736D110271500BC46103D2D0976
:103BC0002E013618B444276866681F605E60A768D7
:103BD000E6689F60DE60103310346345F3D10F2434
:103BE00001352D01491914404519032C1CD9002316
:103BF000CE58EE500433E61A032EF9D80323043CC2
:103C0000A4080134A4002D1909191A4005D0002375
:103C1000CC5CEC5401339342FAD1F0BD0500002A8C
:103C2000F5D1FAE70500F2E72200F8E7F0B58307DF
:103C300046D0541E002A42D0CEB20200032502E034
:103C40001A00013C3BD3531C16702B42F8D1032CB5
:103C50002DD9FF220A40150215432A0415430F2CC3
:103C600016D92700103F3F093E01B4461E001A0036
:103C700010366644156055609560D5601032B242CA
:103C8000F8D10F2201373F01DB191440032C0ED964
:103C9000261FB608B700BC461A001F1D674420C285
:103CA000BA42FCD103220136B6009B191440002C05
:103CB00005D0C9B21C19197001339C42FBD1F0BD6B
:103CC00014000300C3E7C046F0C041464A465346CD
:103CD0005C466D4676467EC02838F0C800207047A6
:103CE00010307CC890469946A246AB46B54608C8F7
:103CF0002838F0C8081C00D10120184710B504006E
:103D000083070AD00378002B23D0032202E0037834
:103D1000002B1CD001301042F9D102680E4B0F4924
:103D2000D31893430B420FD1043002680A4BD318C7
:103D300093430B4208D104300268074BD3189343D6
:103D40000B42F1D000E001300378002BFBD1001BC7
:103D500010BD0020FCE7C046FFFEFEFE8080808094
:103D600047656E6572617465204164647265737342
:103D70000066726F6D204B65792023003F00476518
:103D80006E6572617465205075626C696300436F83
:103D90006D706172653A004D78000000030000000C
:103DA0000000800020000000010000000000000072
:103DB000FFFFFF0000000000000000000000000006
:103DC00000000000000000000000000000000000F3
:103DD00000000000050003000C00070007000000C1
:103DE00000000000FFFFFF000000000000000700CF
:103DF00000000000000000000000000000000000C3
:103E00000000000000000000000000000500750038
:103E10000D0008000600000000000000FFFFFF008A
:103E2000000000000000060000000000000000008C
:103E30000000000000000000000000000000000082
:103E400000000000070000000C0080000C000000D3
:103E500000000000FFFFFF00000000000A800000DB
:103E600036190020000000000000000000000000E3
:103E7000000000000000000000000000070000003B
:103E80001A0080000C00000000000000FFFFFF008F
:103E9000000000000A8000005E1900200000000001
:103EA0000000000000000000000000000000000012
:103EB000000000000300000000008000200000005F
:103EC0000100000000000000FFFFFF0000000000F4
:103ED00000000000000000000000000000000000E2
:103EE00000000000000000000000000005010300C9
:103EF0000C0007000700000000000000FFFFFF00AB
:103F000000000000000009000000000000000000A8
:103F100000000000000000000000000000000000A1
:103F200000000000050275000D00080006000000FA
:103F300000000000FFFFFF000000000000000A007A
:103F40000000000000000000000000000000000071
:103F5000000000000000000000000000070000005A
:103F60000C0080000C00000000000000FFFFFF00BC
:103F7000000000000A8000008E3DD0C0000000005C
:103F80000000000000000000000000000000000031
:103F900000000000070000001A0080000C00000074
:103FA00000000000FFFFFF00000000000A8000008A
:103FB000D3190020000000000000000000000000F5
:103FC00000000000000000000000000000000000F1
:103FD000FFFFFF00E001FEC1FD387F06DF81FFC467
:103FE0007FF3FFBC1FE7E7F13FF807780000000010
:103FF0000E0000000E00000001000000CC3FD0C009
:10400000D43FD0C000000000FFFFFF00E001FEC170
:10401000FF387006D8797E9E9FE7E7B901E6C0F1C8
:104020003FF80778000000000E0000000E000000BE
:10403000010000000440D0C00C40D0C000000000CF
:10404000000000000000000000000000AC40D0C0F4
:10405000B840D0C000000000FC41D0C0000000000B
:104060000000000000000000C440D0C000000000BC
:104070000000000000000000F128D0C00000000097
:104080002840D0C0CA40D0C000000000321D00004F
:104090000000000000000000000000000000000020
:1040A000000000000000000000000000576169747B
:1040B000696E6720666F7200636F6D6D616E647309
:1040C0002E2E2E0041626F75740051756974206147
:1040D00070700056657273696F6E00302E312E302D
:1040E000004261636B004572726F72206F6363758B
:1040F000727265643A205B3078253034785D200038
:10410000496E76616C696420706172616D65746579
:10411000720A00537461636B206F766572666C6F10
:10412000770A005365637572697479206572726FDE
:10413000720A00496E76616C6964204352430A003A
:10414000496E76616C696420436865636B73756D55
:104150000A00496E76616C696420436F756E746500
:10416000720A00556E737570706F727465640A0020
:10417000496E76616C69642073746174650A0054D9
:10418000696D656F7574206572726F720A00417097
:10419000702065786974206572726F720A00494FE9
:1041A000206F766572666C6F770A00494F206865EC
:1041B000616465720A00494F2073746174650A0076
:1041C000435820706F72740A0053797374656D20C0
:1041D0006572726F720A004E6F7420656E6F75673C
:1041E000682073706163650A00556E6B6E6F776E41
:1041F00020657863657074696F6E0A0000000000C6
:10420000000000000000000000000000D340D0C00B
:10421000DB40D0C0000000003C40D0C000000000E7
:1042200000000000F03FD0C0E140D0C0000000001E
:104230003D28000000000000000000000000000019
:10424000000000000000000000000000000000006E
:1042500030313233343536373839616263646566FC
:104260000064726F707065645F6669727374206257
:1042700075666665723A0A20252E2A48200A0A00C9
:10428000616464726573733A0A204D78252E2A683A
:10429000200A0A00426974636F696E207365656461
:1042A000B001000000B0A700000000000380000083
:1042B000000080002000000001000000000000005D
:1042C000FFFFFF00000000000000000000000000F1
:1042D00000000000000000000000000000000000DE
:1042E00000000000058103000E000700040000002C
:1042F00000000000FFFFFF000000000000000B00B6
:1043000000000000000000000000000000000000AD
:1043100000000000000000000000000005827600A0
:104320000E0007000400000000000000FFFFFF0077
:104330000000000000000C00000000000000000071
:10434000000000000000000000000000000000006D
:104350000000000007410E00030064000C00000094
:1043600000000000FFFFFF00000000000A800000C6
:10437000000000000000000000000000000000003D
:1043800000000000000000000000000007420E00D6
:10439000230064000C00000000000000FFFFFF008D
:1043A000000000000A800000000000000000000083
:1043B00000000000000000000000000000000000FD
:1043C0000000000005100E000900000000000000C1
:1043D00000000000FFFFFF000000000000000000E0
:1043E00000000000000000000000000000000000CD
:1043F00000000000000000000000000007200E0088
:10440000130064000C00000000000000FFFFFF002C
:104410000000000008800000000000000000000014
:10442000000000000000000000000000000000008C
:104430000000000007210E000C0064000C000000CA
:1044400000000000FFFFFF000000000008800000E7
:10445000000000000000000000000000000000005C
:1044600000000000000000000000000007220E0015
:104470001A0064000C00000000000000FFFFFF00B5
:1044800000000000088000000000000000000000A4
:10449000000000000000000000000000000000001C
:1044A000000000000000000000000000000000000C
:1044B00000000000000000000000000000000000FC
:1044C000303132333435363738396162636465668A
:1044D000303132333435363738394142434445463A
:1044E0004552524F520000000300000000008000BF
:1044F000200000000100000000000000FFFFFF009E
:1045000000000000000000000000000000000000AB
:10451000000000000000000000000000000000009B
:10452000050103000C000700070000000000000068
:10453000FFFFFF0000000000000009000000000075
:10454000000000000000000000000000000000006B
:104550000000000000000000050275000D000800CA
:104560000600000000000000FFFFFF000000000048
:1045700000000A0000000000000000000000000031
:10458000000000000000000000000000000000002B
:10459000070000000C0080000C000000000000007C
:1045A000FFFFFF00000000000A8000000046D0C0AE
:1045B00000000000000000000000000000000000FB
:1045C0000000000000000000070000001A0080004A
:1045D0000C00000000000000FFFFFF0000000000D2
:1045E0000A800000BD19002000000000000000004B
:1045F00000000000000000000000000000000000BB
:10460000436F6D70617265204861736865733A002D
:1046100077697468204B65792023005369676E20A1
:10462000746869732048617368000000030000002B
:1046300000008000200000000100000000000000D9
:10464000FFFFFF000000000000000000000000006D
:10465000000000000000000000000000000000005A
:1046600000000000050003000C0007000700000028
:1046700000000000FFFFFF00000000000000070036
:10468000000000000000000000000000000000002A
:1046900000000000000000000000000005007500A0
:1046A0000D0008000600000000000000FFFFFF00F2
:1046B00000000000000006000000000000000000F4
:1046C00000000000000000000000000000000000EA
:1046D00000000000070000000C0080000C0000003B
:1046E00000000000FFFFFF00000000000A80000043
:1046F0001B46D0C0000000000000000000000000C9
:1047000000000000000000000000000007000000A2
:104710001A0080000C00000000000000FFFFFF00F6
:10472000000000000A800000951900200000000031
:104730000000000000000000000000000000000079
:104740000000000009211101000122220006A0FF43
:104750000901A1010903150026FF00750895408194
:10476000080904150026FF00750895409108C0004F
:104770009136D0C0A136D0C0B136D0C0C136D0C07D
:10478000D136D0C0E136D0C0F136D0C00000000034
:104790008935D0C0BB35D0C0F334D0C00000000094
:1047A000000000002136D0C03936D0C00000000023
:1047B00000000000000000005937D0C05937D0C0B9
:1047C0005937D0C06937D0C0120100020000004044
:1047D000972C0100000201020301040309040E03E7
:1047E0004C00650064006700650072000E034E0017
:1047F00061006E006F00200053000A03300030009B
:104800003000310009022900010102C03209040010
:104810000002030000020921110100012222000709
:10482000058203400001070502034000010000006B
:104830000A06000200000040010000000000000025
:04000005C0D0000166
:00000001FF
