:02000004C0D06A
:10000000B0B58CB062B6134C0021B022204601F08E
:100010002DF901F047F801AD284603F039FE288597
:1000200080B2002806D01028EED000F071FE00202B
:100030000CB0B0BD01A801F038F801F025FB00209C
:1000400003F042FB012003F03FFB00F0E9F900F070
:100050003FFDC04680180020F0B593B001461078EF
:1000600053781B0218189378D2781202D21812040F
:1000700080183F4E3060012915D100246D4621467D
:100080002A4600F0D9FE294608313C4800F0D2FF4C
:100090004C222846214601F0E9F8092000031421EA
:1000A00000F0C8F962E0189F701D354979441024AA
:1000B000224601F0E4F80025757530462D303149AF
:1000C00079440A2201F0DBF83268373630462B4695
:1000D00000F06EFE30182C497944022201F0CFF86E
:1000E000244E0520294979443160706028487844BD
:1000F000F560306103203076F5613046183002F04B
:10010000F1FBF06101F08EFF01F0DEFA01F0E2FA9E
:10011000B5603068002826D0F0691749884222D09F
:10012000002820D00020716888421CD202F034FCE4
:10013000002818D1B068F168382568433268101873
:10014000002902D08847002807D0012803D1B068D1
:1001500045433068401900F07DF9B068401CB0603C
:1001600031680029DFD138682043386013B0F0BD12
:100170003019002080180020445010B0D8190020F9
:10018000783C0000753C0000683C0000723C0000B8
:10019000A3000000F0B59DB04B4988420AD04B49FE
:1001A000884200D08CE04E48002100F043F900F076
:1001B00037F985E0464D286800240AAE21463246CC
:1001C00000F03AFE31460831424800F033FF4C223D
:1001D0003046214601F04AF809200003142100F0BE
:1001E00029F9681D3F497944102201F048F82E464C
:1001F0006C7555363C4979440222304601F03FF88F
:100200006F462825384633492A46234600F0A2FD8A
:100210002F48573039462A4601F031F87F202C49C3
:100220000C5408460D4680300C22314601F027F868
:100230008C202C542C71284D2C487844052103C562
:100240002B4878442B4979446960A86003202874BE
:100250006C61083D2846183002F044FBE86101F06B
:10026000E1FE01F031FA01F035FAAC6028680028AF
:1002700026D0E8691949884222D0002820D00020E1
:10028000696888421CD202F087FB002818D1A86850
:10029000E968382460432A681018002902D088478A
:1002A000002807D0012803D1A86844432868001912
:1002B00000F0D0F8A868401CA86029680029DFD1A8
:1002C00000201DB0F0BDC04602000080010000808B
:1002D00030190020D819002080180020445010B098
:1002E000856900005C3B00005D3B0000363C00007F
:1002F000B3000000F300000080B5012808DD0228EB
:100300000DD00B4988420AD00A49884205D00CE03A
:100310000949884207D0012807D1002000E00120C8
:1003200000F020F801E000F07BF8002080BDC0461E
:1003300002000040010000400300008008490A79E3
:100340004178012903D1002A01D1002070471E23E2
:100350005A40022359401143002900D108467047F2
:1003600030190020B0B5014622480279002903D097
:1003700001211D2A03D93CE0FF21002A39D0511860
:100380000171C9B24118553180300C2200F077FF5D
:1003900001F09AF901F09EF9174C0020A060206846
:1003A000002826D0E0691549884222D0002820D0B4
:1003B0000020616888421CD202F0EEFA002818D1B1
:1003C000A068E1683825684322681018002902D027
:1003D0008847002807D0012803D1A068454320683A
:1003E000401900F037F8A068401CA060216800297F
:1003F000DFD1B0BD3019002080180020445010B06B
:1004000080B50648012141700021017081700920EA
:100410000003032100F00EF880BDC046D81900206B
:1004200080B5034979440020024601F06DFD80BD8E
:10043000D43B000080B5020A054B5A544A1C92B2C4
:100440009854881C81B2202001F026FB80BDC04654
:10045000D819002080B501F081FA80BDF0B585B0D3
:10046000E24D28780C2856DD0D2800D1A5E00E2895
:1004700000D1E2E0152800D071E1DD4800780128C4
:1004800003D1A879000700D4F4E2DA4C0025E56135
:10049000012020762046183002F024FAE06101F0B5
:1004A000C1FDE069D449884200D0E2E101F00CF9D5
:1004B00001F010F9A5602068002800D1D1E2E069C0
:1004C000CE49884200D1CCE2002800D1C9E2002008
:1004D0006168884200D3C4E202F05EFA002800D0CE
:1004E000BFE2A068E1683825684322681018002937
:1004F00002D08847002807D0012803D1A0684543CF
:100500002068401901F02AFAA068401CA060216808
:100510000029DDD1A5E2052800D1D4E00C2800D0C7
:100520001DE1E84C0026E6610120207620461830C7
:1005300002F0D8F9E06101F075FDE069E34FB842DF
:1005400000D18EE2002800D18BE2DF49884200D042
:1005500046E201F0B9F801F0BDF8A6602068002875
:1005600000D17EE2E069B84200D17AE2002800D1F1
:1005700077E200206168884200D372E202F00CFA50
:10058000002800D06DE2A068E16838256843226841
:100590001018002902D08847002807D0012803D16D
:1005A000A06845432068401901F0D8F9A068401CB4
:1005B000A06021680029DDD153E2C24C0025E5612D
:1005C000012020762046183002F08CF9E06101F01D
:1005D00029FDE069BD4EB04200D142E2BA498842ED
:1005E00000D19DE1002800D13BE22068002800D125
:1005F00031E2A0686168884200D32CE202F0CCF9B5
:10060000002800D027E2A068E16838256843226806
:100610001018002902D08847002807D0012803D1EC
:10062000A06845432068401901F098F9A068401C73
:10063000A06021680029DDD10DE2A24C0025E56112
:10064000012020762046183002F04CF9E06101F0DC
:10065000E9FCE0699C49884200D0D1E001F034F81F
:1006600001F038F8A5602068002800D1F9E1E069C0
:100670009649884200D1F4E1002800D1F1E1002040
:100680006168884200D3ECE102F086F9002800D0CE
:10069000E7E1A068E168382568432268101800295E
:1006A00002D08847002807D0012803D1A06845431D
:1006B0002068401901F052F9A068401CA060216830
:1006C0000029DDD1CDE1ED4C0026E6610120207648
:1006D0002046183002F006F9E06101F0A3FCE06961
:1006E000E84FB84200D1BCE1002800D1B9E1E449AB
:1006F000884200D048E100F0E7FF00F0EBFFA66081
:100700002068002800D1ACE1E069B84200D1A8E13E
:10071000002800D1A5E100206168884200D3A0E153
:1007200002F03AF9002800D09BE1A068E168382582
:10073000684322681018002902D08847002807D093
:10074000012803D1A06845432068401901F006F94B
:10075000A068401CA06021680029DDD181E1C74C60
:100760000025E561012020762046183002F0BAF815
:10077000E06101F057FCE069C149884200D0A7E080
:1007800000F0A2FF00F0A6FFA5602068002800D1BD
:1007900067E1E069BB49884200D162E1002800D1ED
:1007A0005FE100206168884200D35AE102F0F4F86A
:1007B000002800D055E1A068E16838256843226828
:1007C0001018002902D08847002807D0012803D13B
:1007D000A06845432068401901F0C0F8A068401C9B
:1007E000A06021680029DDD13BE1C046001800204F
:1007F000E41A002080180020555010B0445010B06A
:100800006169002906D0642264290B4600D313468F
:10081000C91A61619B49884200D122E1002800D1B8
:100820001FE12068002800D115E1A06861688842B6
:1008300000D310E102F0B0F8002800D00BE1A0686E
:10084000E1683825684322681018002902D08847DB
:10085000002807D0012803D1A0684543206840192B
:1008600001F07CF8A068401CA06021680029DDD15F
:10087000F1E02068002800D1EDE0A06861688842BE
:1008800000D3E8E002F088F8002800D0E3E0A06898
:10089000E1683825684322681018002902D088478B
:1008A000002807D0012803D1A068454320684019DB
:1008B00001F054F8A068401CA06021680029DDD137
:1008C000C9E0C04680180020555010B0445010B008
:1008D0002068002800D1BEE0A0686168884200D38B
:1008E000B9E002F059F8002800D0B4E0A068E1684F
:1008F0003825684322681018002902D0884700284C
:1009000007D0012803D1A06845432068401901F0B1
:1009100025F8A068401CA06021680029DDD19AE07C
:1009200000F0D2FE00F0D6FEA5602068002800D1BD
:1009300097E0E069B04200D193E0002800D190E058
:1009400000206168884200D38BE002F025F800287F
:1009500000D086E0A068E168382568432268101856
:10096000002902D08847002807D0012803D1A068B9
:1009700045432068401900F0F1FFA068401CA060CA
:1009800021680029DDD16CE02069002803D0E978D6
:10099000490801F025F8206800285CD0A06861684B
:1009A000884258D201F0F8FF002854D1A068E168CD
:1009B0003825684322681018002902D0884700288B
:1009C00007D0012803D1A06845432068401900F0F2
:1009D000C5FFA068401CA06021680029DFD13AE073
:1009E000A088049020680390EB79AE796A792F791A
:1009F000ED78E1686846056041603802801882B28F
:100A00003002C01883B20398049900F0DBFE20681E
:100A1000002820D0A068616888421CD201F0BCFF89
:100A2000002818D1A068E1683825684322681018AA
:100A3000002902D08847002807D0012803D1A068E8
:100A400045432068401900F089FFA068401CA06061
:100A500021680029DFD16068A168814201D301F0DB
:100A60009BFF01F099FF002801D100F0E3FC012079
:100A700005B0F0BD102000F0D1FCC0468018002069
:100A8000555010B0445010B0B0B50546072028406E
:100A90000024012814D0022814D1002909D00B48C1
:100AA00001F064FF68B200280ADA01F01FFE00249A
:100AB00006E0412081000548002201F083FF044642
:100AC0002046B0BD022000F0A9FCC046D819002085
:100AD00094B000201390129004901190754E774FAF
:100AE0007F4477487844039010A80499018005ACAE
:100AF000204603F0CDF8208584B2002C39D105A81A
:100B000000F0D3FA129813900024129411981399BC
:100B1000C0B289B200F0C0FF13901194139800285E
:100B20002CD03078E0282CD1707801283C4607D0B2
:100B3000042804D0022828D1624C7C4400E0039CA5
:100B40003379F178B07812AA6D466A6011AA2A60EA
:100B5000721DA04700F066FC05A9884203D100F091
:100B600063FC00F0A2FA05A8008D0028BCD000F0BC
:100B700055FC102C0DD105A804990185102000F01A
:100B80004DFC3720400200F049FC6D20000200F0CF
:100B900045FC054605A8002101854B4878442146BF
:100BA00001F042FA092C0CDD0D2C15DD102C25DD91
:100BB000112C3FD0122C40D0132C69D14A487844D4
:100BC0004FE0052C11DC032C1FDC022C38D0032C49
:100BD0005ED13E48784444E00B2C1DDC0A2C01D049
:100BE0000B2C55D13D4878443BE0072C1BDC062CF0
:100BF00029D0072C4CD13748784432E00E2C25D030
:100C00000F2C45D1374878442BE0042C21D0052CFB
:100C10003ED12F48784424E00C2C1DD00D2C37D128
:100C20002F4878441DE0082C19D0092C30D12A48CF
:100C3000784416E03248784413E03248784410E0B3
:100C4000324878440DE02A4878440AE02B4878443A
:100C500007E02648784404E02748784401E0254826
:100C6000784401F0E1F9144805400D20C00228182D
:100C700010A908801098000A12997054481C12900C
:100C8000109812997054481C1290204600F0C6FB30
:100C90001D48784401F0C8F90F20000328400921BD
:100CA0000903884203D0032149038842DBD110A8FD
:100CB0000580DFE7D8190020FF0700001DF9FFFFBE
:100CC000B91800001BF5FFFF06350000FB340000DB
:100CD000DB34000016350000FC3400005535000000
:100CE000383500006C350000D53500008B3400002D
:100CF000B4340000BF340000F034000019350000A7
:100D00004635000049350000133500007A340000F4
:100D100010B58CB001AC204602F0BAFF208500046B
:100D200006D101A800F0C1F90020C04301F0C4FDC4
:100D300000F078FB01A9884203D100F075FB00F0B8
:100D4000B4F901A8008D002801D10CB010BD00F04D
:100D500065FB0000F0B585B0049014461C43002CE0
:100D60001ED00D4600271148784401903E46029758
:100D7000039300920199AC5D24090C5D7300049803
:100D8000C454AC5D0F2222408A5C5B1CC254009AA2
:100D9000039B761C02984741B01A38469841EAD323
:100DA000510000220498425405B0F0BDA434000064
:100DB000F0B587B0044610461843002835D0039498
:100DC00000250692174601931E4605950A223846CD
:100DD0003146059C234602F081FD6D1C0922D21B81
:100DE000B44107460E46F1D30398401E0490029585
:100DF000019E069806900A27002431463A4623466B
:100E000002F06CFD05900E463A46234602F086FD40
:100E10000699081A30210143049841556D1E002D92
:100E20000598E7DC039C029802E030202070012046
:100E30000021215407B0F0BDF0B5B7B00892099178
:100E400025A9059121270F7012A906910F70264A36
:100E50007A440FA90B4670CA70C301220792D207C9
:100E600013463C330B9310432C320A920C9000260D
:100E70000D960E960C206A46D060916056602FAD9C
:100E800015600AAA05233046394601F0F7FC2022F6
:100E900038462946059C234601F0A0FC38463146D9
:100EA0003246069D2B4601F081FC384629462246F3
:100EB000079B01F0ABFC0898002803D012A94C2234
:100EC00002F048FE099D002D06D025A80EC80EC5CB
:100ED0000EC80EC51EC81EC525A80021282200F078
:100EE000C5F937B0F0BDC04654340000F0B5D5B0F8
:100EF0000C9207904BAF0024084639462246FFF774
:100F00009BFF01210D9131914748784401F08CF805
:100F100031A86946C86064258D6032AE4E602020DD
:100F200008604049032238460C9B01F087FC319948
:100F30003E48784401F078F828223846214600F0EF
:100F400095F931981B3030A90691087038487844DB
:100F500008952946324601F067F8F7780596351D61
:100F600027A80B9029463A4600F089F9E8194678F7
:100F7000811C1EA80C90324600F081F9202F0D989C
:100F800000D820460B9B1978621A4A4102409918F2
:100F9000BF1A0C98057816A80A903A4600F06FF927
:100FA000601B6841202E0D9A00D8224602400C9802
:100FB0008118B51A0EA809902A4600F060F9079E1C
:100FC00030460A993A4600F05AF9F7193846099915
:100FD0002A4600F054F97819069E31460D9A00F021
:100FE0004EF905982146089D2A4600F03FF90B98D6
:100FF00021462A4600F03AF90C9821462A4600F08C
:1010000035F90A9821462A4600F030F90998214618
:101010002A4600F02BF9304621462A4600F026F9F0
:1010200055B0F0BD01060000133300000633000088
:1010300004330000F0B5FFB088B00390491C77ADD1
:1010400040220292284600F01AF9144878444121BF
:101050002A4600F0E9FF0124210204AE304601F0E7
:101060008DFB2020694648606FAF0F6030462146F7
:101070002A46029B01F066FB0C3709487844142489
:1010800021463A4600F0D0FF03983946224600F048
:10109000F6F820467FB008B0F0BDC046223200000E
:1010A00011320000002081467047814670470000E1
:1010B000F0B581B00646664FB94238D00D461446A9
:1010C000009640263846314602F03EFD402C22462E
:1010D00000D33446BD4217D2002C009E27D04020BA
:1010E000C14308464030831A8B4200D80B463F313B
:1010F000CC1A2919564D2C195B1C0D78257009182E
:1011000024185B1CF9D112E0002C009E0FD0402067
:10111000C04301464031891A814200D80146481C2B
:1011200029783970401C7F1C6D1C0028F8D1484D6F
:10113000A87801280ADC002830D001287BD1E81CDF
:10114000042101F0E7FA4021284632E002282ED09F
:10115000052870D12879E978090208183D4E3168D0
:10116000002788426DD1501F3168002924D081B2F8
:10117000394A13688B4201D2106881B2374A12682B
:101180006B1D9A4240D90023040448D0413A4032B2
:101190006B181B795354491EFAD13FE00027AF71F9
:1011A0006F712F71EF7040212846B04749E0284801
:1011B0004021B047002744E0A8796979090209185D
:1011C00027480160016841239B00994239D8016892
:1011D0002148016069782B781B025918214B19604E
:1011E0001E49214B0B60D41FA2B20168914201D26B
:1011F0000468A2B2E91D8B42002320040FD01A48D4
:1012000002F0A8FC23460AE00023040407D06B1D6B
:101210001C781470521C5B1C491EF9D1034698B20D
:101220000D490A68121A0A600C490A681018086009
:101230003068401C306008480168012002270029FE
:1012400003D1044800210160384601B0F0BDC0461A
:10125000581B0020CC190020D4190020DC1A0020D3
:10126000D0190020E01A0020D819002080B5002AEB
:1012700004D00B4611461A4602F070FC80BDB0B592
:10128000884208D9002A0FD0491E401E8B5C835427
:10129000521EFBD108E0002A06D000239CB20D5D4F
:1012A00005555B1C521EF9D1B0BD0000014800215C
:1012B00001607047CC190020F0B581B03A4F396811
:1012C00000292BD00090394C661D3925304629461F
:1012D00002F03AFC0520A07035480168090A217027
:1012E0000068607033480168090AE1700168217183
:1012F00002683968002A19D03B253B2900D83D688F
:101300002D480168B14228D2002D3DD04A1E2B46FF
:10131000D05CE61830715B1EFAD135E0254800211B
:10132000016025480160254801703BE0392900D85B
:101330003D683968090A61713968A1711E490968F7
:10134000E21D914215D2002D1ED04A1E2B46D65CBE
:10135000E01886715B1EFAD116E0002D14D0002231
:101360002B4690B20E5C20184671521C5B1EF8D1C1
:101370000AE0002D08D000222B4690B20E5C201807
:10138000C671521C5B1EF8D14919009A094B386886
:10139000401B3860084801601868401C186003480A
:1013A0004021904701B0F0BDD4190020581B002007
:1013B000E01A0020CC190020DC1A0020FA1A0020C4
:1013C00080B500290BD0064A00231360054A11603E
:1013D000054A064B1360064A1160FFF76DFF80BD9A
:1013E000CC190020D4190020DC1A0020D8190020C4
:1013F000D019002070B5401E491E541E0023002A3B
:101400000AD08D5C865CAE422246F6D00020C043F6
:101410000123AE4200D80346D8B270BD014648460B
:1014200002F042FC4846704700204946002900D09F
:101430004869704780B501F0AFFA002800D080BD40
:101440000648002141706022027002228270C17041
:101450000171052101F08AFA80BDC0460018002004
:1014600010B51948C078032807DC01280DD00228E0
:1014700026D1164801F092FD10BD04281DD0082881
:101480001ED1124801F088FD10BD104C01212046EC
:1014900001F07DFD204601F05AFD0D48007800283E
:1014A0000FD10C48002407222146FFF7DFFE0A482F
:1014B0000E222146FFF7DAFE10BD044801F06AFD56
:1014C00010BD1020FFF7AAFF00180020A01B00206D
:1014D000E41A0020E51A0020EC1A00207F210140C8
:1014E0000148405C7047C046E51A002010B514481A
:1014F0000179042916D0022906D001291ED1811DA7
:10150000114801F021FC10BDC2787F21114006294D
:1015100014D84A000D4B00249C52821D0A4801F049
:101520009FFC10BDC2787F211140062906D8427960
:10153000044B5A54821D044801F035FC10BDC046CE
:1015400000180020E51A0020A01B0020EC1A002043
:1015500070B5FF2A1DD815460E4604460D48502189
:101560000170202101714271D11C817080222243BF
:10157000C270090A4170062101F0F8F93046294687
:1015800001F0F4F97F20204040007D210901024A4A
:10159000115270BD00180020EC1A002080B50A46D8
:1015A000014682201423FFF7D3FF80BD80B50E488B
:1015B0000178002900D080BD0C4906220A700A215A
:1015C00001700B4881784278120251188B08412231
:1015D0009200412B00D31146064A11801288C11C8B
:1015E0000548FFF74CFE80BDFA1A0020E41A0020DF
:1015F00000180020FC1A0020D819002010B51F4840
:10160000817842781202511800780F280ADC0E28DF
:1016100010D00F2820D10020012924D1FFF720FF6E
:10162000012010BD10281BD0162815D1FFF7BEFFD2
:10163000012010BD0C211248425A002A08D0642310
:10164000642A144600D31C46121B425212040FD0C7
:101650008A1E00291146EFD10220FEF7FFFE10BDC1
:101660000020032900D210BDFFF740FF012010BD6C
:101670000448002101701020FFF7D0FE0018002060
:10168000EC1A0020FA1A002010B5092001F018F811
:101690000748002404700748048007480470FFF7D7
:1016A00005FE06480460064804600648046010BD54
:1016B000FA1A0020FC1A0020E41A0020001B002067
:1016C000041B0020081B0020014800210160704716
:1016D000001B0020024800210160024801607047A1
:1016E000041B0020081B0020B0B50D460446006B0B
:1016F00000280BD000F03EFE01462046884700F04F
:1017000039FE00280FD0012800D00446002D06D055
:101710002046A847002806D0012800D004462046CD
:10172000FEF798FE0120B0BDB0B58EB00D46044660
:10173000406B00280BD000F01DFE01462046884774
:1017400000F018FE00281AD0012800D00446002D11
:1017500007D02046A8476C46002810D0012800D0AA
:1017600004466D46382228462146FFF788FD606A08
:10177000A16A049005912846FEF76CFE01200EB088
:10178000B0BDB0B50D460446C06A00280BD000F0CD
:10179000F1FD01462046884700F0ECFD00280FD0FF
:1017A000012800D00446002D06D02046A847002876
:1017B00006D0012800D004462046FEF74BFE01204B
:1017C000B0BD0000F0B587B00293039205910029E7
:1017D00076D004900D9801900C98009000253C4B19
:1017E00006952F461E4601F0D7F8002855D138201F
:1017F0006843049C2518334632680121954200D085
:10180000069906912056002841DA2020285C022102
:10181000695E0A1A039CA24239DC4118EA888918D9
:10182000039A914233DD04216C5E221A02998A42A6
:101830002DDC2018298940180299884227DD186874
:10184000854210D0186800280DD00198002805D0D6
:101850002846019988473346002818D0186801990E
:10186000FFF742FF08E00098012809D002280ED1B6
:1018700028460199FFF785FF3346002807D021E06D
:1018800028460199FFF750FF334600281DD17F1CE1
:10189000FDB205988542A5D300E0334606980006C0
:1018A0000ED0186800280BD001F076F8002807D178
:1018B00030680199FFF718FF002801D00020306040
:1018C00007B0F0BD00201860FAE71D60F8E7C046D9
:1018D000001B0020F0B589B00C46014602AD1C2269
:1018E00028460192FFF7CBFC06CC2068E9802A81CC
:1018F000194F65233B7089B292B24A434243530762
:10190000D1084A1C083C002B00D10A46009204264C
:101910008640B0181D30B870000A78700321384630
:1019200001F024F82846019901F020F8A0683870E9
:101930000121384601F01AF8E06800F01BFDB1B251
:1019400001F014F8009885B2206900F013FD2946D3
:1019500001F00CF809B0F0BD0018002070B5044685
:1019600000787F26064001F017F8002830D1002EBD
:101970002ED0E06900281DD000F0FCFC0546052EA5
:1019800002D1A07E002824D0284602F09BF906460A
:1019900012486521017031461C318170090A41707D
:1019A000032100F0E3FF1C21204600F0DFFFB1B26D
:1019B00028460BE0094800214170652101701C2573
:1019C0008570032100F0D2FF2046294600F0CEFFAB
:1019D00070BD20462946FFF77DFF70BD001800202E
:1019E00070B500282DD00446164802688A4203D1FB
:1019F000154A13685B1C136006680E43124A15688B
:101A0000002901D0066005E00023036013600F4B3E
:101A10005B1C1E430068884201D000201060082D26
:101A20000CD30321284601F053FF012290073043D5
:101A3000002900D03046D107884300E030462946CF
:101A4000A04770BD041B0020081B0020FFFFFF7F84
:101A5000F0B581B00F4E01243470B11C81204700D5
:101A60007A1C204600F06AFF054670703A1A371853
:101A7000F91C022000F062FFB8702D187619F4707E
:101A800000F046FF3071902070710020B071E81DA9
:101A900001B0F0BDD8190020F0B585B0064640076A
:101AA00008D004960498C0B289B2FEF7EDFF80B268
:101AB00005B0F0BD80200290574F5B4D574C049607
:101AC0001022324008044BD0002A49D13878072828
:101AD000039223D00A280AD0002800D195E0049868
:101AE000C0B289B2FEF7D0FF002826D08DE0FF20DB
:101AF00006308AB20192824200D389E053202070DE
:101B0000A170080A60700321204600F02FFF4448AE
:101B1000019900F02BFF002038700EE089B2434895
:101B20007844FFF74DFC08E0FFF784FC8021002299
:101B3000204600F047FFFFF761FD38780028F3D119
:101B400000203870374908702880B106AFD4FFF7FD
:101B500071FC3006039A03D5012000F0ADFE039A14
:101B6000002A05D170064DD4002038702D49087028
:101B70000020288000F010FF002801D1FFF75AFC58
:101B8000802100262046324600F01CFF022806D89D
:101B9000A178627812025118C01E884208D1FFF75E
:101BA0002DFD38780028E5D028880028E2D002E012
:101BB00000203870DDE71E49794404221848FFF7F9
:101BC00019FC002812D01B49794404221448FFF75D
:101BD00011FC002814D112480246467002990846AA
:101BE0001030107004980843022103E0FFF730FF23
:101BF00001460020C6B20490400700D160E751E7DB
:101C0000288854E72888401F51E70920FFF706FC81
:101C10000220FFF703FCC046FA1A0020001800203B
:101C2000D8190020E41A0020FC1A002079FAFFFFDE
:101C3000F8260000ED260000B0B582B001AD00240A
:101C40006C70662129700121A970E8700421284672
:101C500000F08CFE03212846224600F0B3FE02B0BD
:101C6000B0BD0000F0B581B007465D4C2546143587
:101C7000382228463946FFF702FB2169A06800296F
:101C800003D088470346A06803E01C214143226833
:101C900053180026002810D02269411E002A0FD0B8
:101CA0000846009737462E461D4690472B46354638
:101CB0003E46009F0246A06806E03046324603E0FA
:101CC0001C224A4321688A186168491E884210D242
:101CD0002169401C002908D000951D4616468847FA
:101CE00032462B46009D064603E01C2141432068F6
:101CF0004618787840280ADC202821DC102832D0C9
:101D0000202862D159690020002966D14EE0802840
:101D100020DC412830D0422857D1596900200029C1
:101D20005BD1D968002958D16268511E012A54D06C
:101D3000A2688A4251D0F16800294ED130692FE063
:101D400021282FD0222840D159690020002944D0D1
:101D500021632DE0822832D0812836D1A16800206D
:101D6000002932D139E0D9680020002935D021631B
:101D7000587E002821D128E05969002000292CD163
:101D8000D968002929D1A168002926D061680129D4
:101D900023D0D168002920D1516900291DD11069B3
:101DA000206312E059690020002916D018692063C9
:101DB000187E002809D00821A185E08205E060682E
:101DC000A168421E0020914207D0E268002A2846FE
:101DD00003D0143418462146904701B0F0BDC046E8
:101DE0000C1B0020F0B581B005463C4F3969B8683E
:101DF000002902D08847064603E01C214143386889
:101E0000461801243648854214DD3648854216D0EE
:101E1000354885421BD0354885425CD13068002862
:101E200050D0B46800F0A6FA0146FA68204600F0E7
:101E30006BF84FE02E498D4209D085424BD179682D
:101E4000B868491E0024884245D2401C04E0B868A6
:101E5000002400283FD0401E264900240C60B860B2
:101E600025480460254DAC6025480460286800289A
:101E700031D0E869234988422DD000282BD0002496
:101E800020466968884226D200F086FD002822D1CB
:101E9000A868E968382670432A681018002902D01B
:101EA0008847002807D0012803D1A868464328683E
:101EB0008019FEF7CFFAA868401CA860296800299D
:101EC000DFD108E07068002805D000F053FA014621
:101ED000B06888470024204601B0F0BD0C1B0020EC
:101EE000020000800200004001000040030000806A
:101EF00001000080001B0020041B0020801800202F
:101F0000081B0020445010B0F0B583B002920D467B
:101F10000190394E002000907060002915D03C4996
:101F200079441C2728463A46FFF764FA00280CD06B
:101F3000384C7C447068401C7060784328182146F7
:101F40003A46FFF757FA0028F4D10199481C05D00A
:101F500070688842009800D30846B060356000255C
:101F60000298F0603561254C2B487844092103C460
:101F70002A4878442A4979446160A060032020748B
:101F80006561083C2046183000F0ACFCE06100F0D0
:101F900049F81B4805601B480560A5601A480560A4
:101FA0002068002826D0E0691849884222D00028FD
:101FB00020D00020616888421CD200F0EDFC00288F
:101FC00018D1A068E16838256843226810180029F4
:101FD00002D08847002807D0012803D1A0684543D4
:101FE00020684019FEF736FAA068401CA0602168FE
:101FF0000029DFD103B0F0BD0C1B002080180020A9
:10200000001B0020041B0020081B0020445010B0BF
:102010009425000082250000522300006FFEFFFF80
:10202000EBFCFFFF7047000083B0F0B58CB011AC43
:102030000EC4002800D18EE1044611A8079086E165
:1020400025460026014602E0A9194978761CCAB245
:10205000002A01D0252AF7D1AC19002E0CD0C0B22D
:10206000FFF7EAFD012E06D00127E85DFFF7E4FD4A
:102070007F1CBE42F9D12178C8B2252800D066E184
:10208000A819411C002320200A2206921F4604930F
:10209000059304E02146079A141D079417680C461F
:1020A00019462278641C00232D2AF9D0472A18DC0F
:1020B0002F2A26DD1346303B0A2B00D3FBE0302AC3
:1020C0000546034600D113460598002800D02B464C
:1020D0000A254543A8183038059018460B46214676
:1020E000DDE7672A06DD722A20DD732A3CD10290E3
:1020F000069821E0622A3CDC482A4AD1029001205D
:1021000018E0252A58D02A2A29D02E2A00D0D2E039
:1021100021782A2900D0CEE06278611C0123482A68
:10212000B9D0682AB7D0732AB5D0C4E0682A38D1AC
:102130000290002004901020079B1A1D0792032292
:102140000A401D68012A00D1C6E0022A00D1AFE092
:102150000690032A0B4621460298A0D0B5E02178CC
:102160000223732996D0A6E0752A27D0782A1BD09F
:10217000A1E0632A00D194E0642A00D09BE00290A1
:102180000798011D07910068C11742184A40C00F07
:102190001AE0582A00D08EE001460120049008463B
:1021A00002E0702A00D086E002900798011D079196
:1021B00002680020102608E0252076E002900798AB
:1021C000011D0791026800200A260390012706924C
:1021D000964212D8012530460746314601F0F2FA00
:1021E000A84209D1304678430599491E05910699C0
:1021F00088423D46F0D900E02F460598411E039BDA
:10220000002B00D101460025E843002B00D11846E1
:1022100001900298C2B2302A06D1002B04D008A83F
:102220002D23037001250023881E0D280BD808A834
:102230004019491E039301F091FC039B0598401936
:1022400001994018451E002B03D008A82D214155A7
:102250006D1C0498002F1AD0002802D044487844FE
:1022600001E04248784405900698394601F0AAFA00
:10227000314601F02DFB0598405C08A948553846C9
:10228000314601F09FFA6D1CBE420746ECD9002D85
:102290005DD008AE3078FFF7CFFC761C6D1EF9D10B
:1022A00055E00798011D07910078FFF7C5FC4EE047
:1022B000287800283AD0002529487844405DFFF767
:1022C000BBFC6D1C052DF7D141E000216A5C491C67
:1022D000002AFBD14F1E06981028049923D000260F
:1022E000002F29D00026A85DFFF7A6FC761CB74278
:1022F000F9D13E4620E028780F2606400009012942
:1023000004D000290DD11749794401E016497944D8
:102310000691085CFFF790FC0698805DFFF78CFC47
:1023200004997F1E6D1C002FE5D110E0FD43202095
:10233000FFF782FC6D1CFAD10599B14207D9881BC1
:1023400005D0751A2020FFF777FC6D1CFAD1207894
:10235000002800D074E60CB0F0BC01BC03B000470C
:1023600036220000C8210000D22100006C220000AB
:102370008222000080B50449884204D30349884280
:1023800001D200F005F880BD0000D0C08048D0C068
:102390007A460249C91C891A401A70479123D0C055
:1023A000F0B581B010785178090208189178D37887
:1023B0001B02591809044018334F3D4601C5111D31
:1023C000202628463246FEF75AFF24370024384696
:1023D000294632462346FEF7BDFC2B4D28468D305C
:1023E0000C223946FEF74BFF64202C5499202C54C4
:1023F000264D28487844052103C5274878442749B5
:1024000079446960A860032028746C61083D2846FF
:10241000183000F067FAE861FFF704FEFFF754F99F
:10242000FFF758F9AC602868069C002826D0E869B8
:102430001749884222D0002820D0002069688842AD
:102440001CD200F0A9FA002818D1A868E96838263B
:1024500070432A681018002902D08847002807D046
:10246000012803D1A868464328688019FDF7F2FFC8
:10247000A868401CA86029680029DFD120681021C5
:102480000143216001B0F0BD301900208018002008
:10249000445010B004210000A1000000A901000078
:1024A000B0B5012808DD02280DD0364988420AD08F
:1024B0003549884205D009E03449884208D00128CE
:1024C00004D1002000E0012000F086F80020B0BD1B
:1024D0002F4D28466530314979440A22FEF7CFFE58
:1024E0002A686F35002428462346FEF761FC281829
:1024F0002B4979440222FEF7C2FE264D05202949C8
:1025000079442960686028487844EC602861032099
:102510002876EC612846183000F0E4F9E861FFF70E
:1025200081FDFFF7D1F8FFF7D5F8AC6028680028E7
:10253000CCD0E86918498842C8D00028C6D000200D
:1025400069688842C2D200F027FA0028BED1A86884
:10255000E968382460432A681018002902D08847A7
:10256000002807D0012803D1A8684443286800192F
:10257000FDF770FFA868401CA86029680029DFD11A
:10258000A4E7C046020000400100004003000080B4
:102590003019002080180020445010B0482100005D
:1025A0004E1800003C2100006D0100004178022916
:1025B00007D0012904D16421064A515C002907D0C3
:1025C00070476421034A525C0021342A00D001463E
:1025D0000846704730190020B0B5014664222348F0
:1025E000835C002903D00121332B03D93CE0FF2178
:1025F000002B39D059188154C9B2411824318D307B
:102600000C22FEF73CFEFFF75FF8FFF763F8184C6B
:102610000020A0602068002826D0E0691549884283
:1026200022D0002820D00020616888421CD200F00F
:10263000B3F9002818D1A068E168382568432268FA
:102640001018002902D08847002807D0012803D19C
:10265000A068454320684019FDF7FCFEA068401CB7
:10266000A06021680029DFD1B0BDC046301900202C
:1026700080180020445010B080B50B49884205D026
:102680000A4988420ED10C48002107E0084A02CAD4
:102690000848FEF72BFC092000034121FDF7CAFE84
:1026A000FDF7BEFE002080BD02000080010000801A
:1026B00030190020D81900208569000001DF70471B
:1026C00080B582B0009007486946FFF7F7FF01AA7E
:1026D00011600549884201D102B080BD0420FEF797
:1026E0009DFEC04637010060C601009080B582B0F3
:1026F000064801A9FFF7E2FF6A46116004498842D3
:1027000001D102B080BD0420FEF788FE0002006007
:10271000F102009080B584B002910190074801A9B0
:10272000FFF7CCFF03AA11600549884202D1039844
:1027300004B080BD0420FEF771FEC0462C05006089
:102740006705009080B588B001AF0FC70A98059063
:102750000B980690074801A9FFF7B0FF07AA116080
:102760000549884202D1079808B080BD0420FEF7D1
:1027700055FEC0463B070060AD07009080B584B0B1
:1027800002910190074801A9FFF798FF03AA116081
:102790000549884202D1039804B080BD0420FEF7A9
:1027A0003DFEC046CF100060D810009080B586B0C6
:1027B00001AF0FC7074801A9FFF780FF05AA116005
:1027C0000549884202D1059806B080BD0420FEF775
:1027D00025FEC046ED2D0060492D009080B586B0E5
:1027E00001AF0FC7074801A9FFF768FF05AA1160ED
:1027F0000549884202D1059806B080BD0420FEF745
:102800000DFEC046EA2E0060632E009080B586B0B3
:1028100001AF0FC7074801A9FFF750FF05AA1160D4
:102820000549884202D1059806B080BD0420FEF714
:10283000F5FDC0462E2F0060742F009080B58AB041
:1028400001AF0FC70C9805900D9806900E98079051
:102850000F980890074801A9FFF730FF09AA1160F7
:102860000549884202D109980AB080BD0420FEF7CC
:10287000D5FDC046F33800607638009080B58AB048
:1028800001AF0FC70C9805900D9806900E98079011
:102890000F980890064801A9FFF710FF09AA1160D8
:1028A0000449884201D10AB080BD0420FEF7B6FD7C
:1028B0007A540060E254009080B582B000900748DE
:1028C0006946FFF7FBFE01AA11600549884201D164
:1028D00002B080BD0420FEF7A1FDC046E1620060A9
:1028E0006F62009080B582B0009007486946FFF79C
:1028F000E5FE01AA11600549884202D1019802B0A3
:1029000080BD0420FEF78AFD586400601F640090BB
:1029100080B582B0074801A9FFF7D0FE6A46116072
:102920000549884202D1009802B080BD0420FEF71C
:1029300075FDC0466E6800607F68009080B584B009
:1029400000AB07C307486946FFF7B8FE03AA11604A
:102950000549884202D1039804B080BD0420FEF7E7
:102960005DFDC046D47000608770009080B584B073
:1029700002910190064801A9FFF7A0FE03AA116089
:102980000449884201D104B080BD0420FEF746FD11
:102990001C720060F372009080B582B0074801A9F4
:1029A000FFF78CFE6A4611600549884202D1009803
:1029B00002B080BD0420FEF731FDC046CF73006039
:1029C0007F73009080B584B000AB07C307486946A9
:1029D000FFF774FE03AA11600549884203D103A8DA
:1029E000008804B080BD0420FEF718FDD17400609B
:1029F0002B7400900249002008600249086070476B
:102A00009C1B0020981B002010B507480024447030
:102A10004F210170012181700221C1700421FFF753
:102A2000A5FF204610BDC0460018002070B582B03A
:102A30006D4600246C704F262E700220A870032073
:102A4000E8702C7105212846FFF790FF6C702E70FE
:102A50000120A870E87004212846FFF787FF204670
:102A600002B070BD10B582B001A8002444704F219F
:102A70000170012181700221C1700421FFF776FFEE
:102A8000204602B010BD0000B0B582B0144800244A
:102A90000460144804606D464F2028706C70052057
:102AA000A8700420E870012028716971AC71012AB6
:102AB00005DC002A0AD0012A0AD1042006E0022AF5
:102AC00003D0032A04D1022000E003206946887164
:102AD0006846C3710821FFF749FF002002B0B0BD6E
:102AE0009C1B0020981B002010B582B06846002473
:102AF00044704F220270052282700422C2700122AB
:102B0000027141718471C4710821FFF72FFF2046C3
:102B100002B010BDB0B582B00D46684600244470C6
:102B20005021017003218170C570402101714471F1
:102B30000621FFF71BFF280601D5074800E00548DE
:102B400001687F2215400122AA400A430260204604
:102B500002B0B0BD9C1B0020981B0020B0B582B015
:102B60000D46684600244470502101700321817095
:102B7000C5708021017144710621FFF7F7FE280618
:102B800001D5074800E0054801687F221540012271
:102B9000AA4091430160204602B0B0BD9C1B0020BA
:102BA000981B0020080601D5054800E0034802787C
:102BB0007F20014001208840104070479C1B00206E
:102BC000981B002010B582B06846002444704F2244
:102BD0000270022282700322C27001710521FFF788
:102BE000C5FE204602B010BDB0B582B01C461546E9
:102BF000684650220270C170202101714371D91CB6
:102C00008170090A41700621FFF7B0FE284621466F
:102C1000FFF7ACFE002002B0B0BD10B582B0684630
:102C2000002444705023037003238370C17030214B
:102C3000017142710621FFF799FE204602B010BDD6
:102C400070B504460220002C13D015460E464D20C8
:102C50008100204600F078FF002E02D011200001F4
:102C60002650FC200121215425702046FFF7C2FE8A
:102C7000002070BD70B50446FC2001212154452080
:102C8000800025181720C643A8198069002806D09F
:102C90004068FFF76FFB02462179204690470836CF
:102CA000F2D12046FFF7DEFE2046FFF7ADFE002002
:102CB00070BD03460220002A08D00020022B05D850
:102CC000D80008184521890042500020704780B57F
:102CD000FFF7ACFE002080BDF0B581B00C46054684
:102CE0004520870000262846314600F075F9002867
:102CF00007D0E8590068FFF73DFB02462846214609
:102D000090470837761C032EEDD1002001B0F0BDAE
:102D1000F0B581B00C4605464520870000262846C0
:102D2000314600F059F9002807D0E8594068FFF70C
:102D300021FB02462846214690470837761C032E81
:102D4000EDD1002001B0F0BD70B504462120C600D1
:102D5000A519284600F09DFBF42001212150872071
:102D60004000205AF8216050A15D1F200840022831
:102D700008D001280BD000280ED12046294600F0AB
:102D800039F90EE02046294600F0FDFA09E0204618
:102D9000294600F0D3FA04E0802001402046FFF7E6
:102DA000B9FE002070BDF0B583B0029204460191D7
:102DB00000291DD02546FC354520860000272046E9
:102DC000394600F009F900280DD0A0598069002883
:102DD00009D02978032906D1FFF7CCFA034620460B
:102DE0000199029A984708367F1C032FE7D134E0F7
:102DF000F4202058032830D1902020588C2161588D
:102E000022468C3281420AD9091A1160814200D3CC
:102E100001468AB22046029900F0B6FC1DE0264623
:102E2000FC364520870000252046294600F0D4F8CE
:102E300000280BD0E0590069002807D03178032919
:102E400004D1FFF797FA01462046884708376D1CE2
:102E5000032DE9D1204600F09EFC002003B0F0BD18
:102E6000F0B581B00446009100291CD02746FC37FC
:102E70004520850000262046314600F0ADF80028A8
:102E80000CD060594069002808D03978032905D151
:102E9000FFF770FA02462046009990470835761CE5
:102EA000032EE8D150E0F4202058022844D1E069F4
:102EB000256AA8420BD913210A01A1584919A1502A
:102EC000401BE06182B2204600F050FC34E0A6696D
:102ED0003046294600F0FCFCAE420FD300290DD14C
:102EE000F82020582746F837864207D2002520468A
:102EF00029462A4600F03AFC3D601DE02646FC3695
:102F00004520870000252046294600F065F8002866
:102F10000BD0E059C068002807D03178032904D1CC
:102F2000FFF728FA01462046884708376D1C032D15
:102F3000E9D1204600F03BFC012001026018615CF1
:102F4000012901D100210170002001B0F0BD70B550
:102F50000446902040212150FC200122225421626D
:102F60004520860000252046294600F035F8002837
:102F700007D0A0594068FFF7FDF9024621792046A5
:102F8000904708366D1C032DEDD1002070BD0174F3
:102F900000207047002070470020704770B504463D
:102FA000FC20205C032815D1452086000025204602
:102FB000294600F011F8002808D0A059C06900285F
:102FC00004D0FFF7D7F901462046884708366D1C24
:102FD000032DECD1002070BD02460020022908D844
:102FE000C80010184521890041580120002900D14E
:102FF0000846704780B54A78042A08DD072A0FDCA6
:10300000052A14D0062A1BD100F021F81DE0002A61
:1030100010D0012A17D0032A12D100F03CF914E095
:10302000082A0AD0092A0BD100F0C4F80DE000F0FC
:103030009BF80AE000F00CF907E000F0F2F804E079
:1030400000F072F901E000F045F9002080BDB0B554
:1030500082B00D4604464988080A052813DC012879
:103060001CD0022825D003283BD1C8B202283DDC61
:10307000002865D001286DD0022832D1112000012E
:103080002058C0680EE006281ED0072826D00F283A
:1030900027D1112000012058C06903E01120000150
:1030A00020580068FFF766F90246207C01A9904786
:1030B00034E0452080002058002100282FD0217CBA
:1030C000002925D0C06A24E0207C002809D14520B1
:1030D00080002058002804D0406B1AE0207C002893
:1030E0000FD02046294600F01FF927E003282CD0F6
:1030F000042834D00528F4D111200001205880691B
:10310000D0E74520800020580028EAD0006B00E07E
:10311000806AFFF72FF9014601A88847014601A8F8
:103120000288002A0AD0E888002807D0824200D30B
:10313000024601A80280204600F002FB02B0B0BDAA
:103140001120000120584068ACE7112000012058F0
:103150000069A7E71120000120588068A2E711202C
:103160000001205840699DE770B504468888002812
:103170000BD1C888002808D148887F250540FC204D
:10318000205C2646FC36032803D1204600F0CCF80C
:1031900070BDFE20255420462946FFF713FD20462A
:1031A00000F0F9FA002D02D00220307070BD01202D
:1031B000307070BD70B50D4604468E78022E1DD25B
:1031C000FC20215C2046FC30032907D0022915D1C0
:1031D000002E22D066600321017009E0002E12D07B
:1031E0006068B04219D0C1B22046FFF791FD666019
:1031F00020463146FFF770FD02280ED120462946B1
:1032000000F092F870BD02210170666020463146E0
:10321000FFF77EFD204600F0BEFA204600F0BBFA24
:1032200070BD80B5CA88012A0AD1FC22825C032ABB
:1032300009D0022A04D1002181600146083103E04F
:1032400000F072F880BD011D012200F079FA80BD06
:10325000B0B50446FC20205CFE220240022A16D1B2
:103260000120E06041208000215825460C350320D4
:10327000002905D0204600F09AFAE16802200843B0
:10328000E06002222046294600F05AFAB0BD2046EE
:1032900000F04AF8B0BDB0B504464888012818D1FE
:1032A0000D464120800001212150287902280DD8A7
:1032B000C0002018452189004058002806D08068A9
:1032C000FFF758F80246204629469047204600F06E
:1032D00062FAB0BDB0B50D460446FC20205CFE216C
:1032E000014002291BD1688801281CD1412080009F
:1032F00000212150287902280DD8C000201845212E
:1033000089004058002806D08068FFF733F802464D
:10331000204629469047204600F03DFAB0BD2046A1
:10332000294600F001F8B0BD10B504468021FFF732
:10333000F1FB00212046FFF7EDFB10BDB0B50D46B7
:103340000446FC20205C032817D12879022814D8D1
:10335000C000201845218900405800280DD0806801
:10336000FFF708F80246204629469047E8880028DB
:1033700007D1204600F00FFA03E020462946FFF768
:10338000D3FF0020B0BDB0B50D46044608786022DA
:1033900002400979202A10D102290ED8C80020182D
:1033A000452292008058002807D08068FEF7E2FF8F
:1033B000024620462946904769E06878002816D0E2
:1033C00001281DD0032862D1FC20205C03281BD1DA
:1033D0006888002807D180200843802803D0204631
:1033E000FFF798FB297902294ED8C8003FE0FC205E
:1033F000205C032817D0022810D148060AD146E0E5
:10340000FC20205C032826D0022807D18020084316
:1034100080283CD02046FFF77DFB38E02046294637
:10342000FFF782FF33E07F200840000120180546A7
:10343000843514300A0600D505462046FFF7B2FB56
:103440000121002800D10146296002222046294698
:1034500000F076F91BE06888002818D1480613D0E0
:103460002046FFF77BFB287902280DD8C0002018E2
:10347000452189004058002806D08068FEF77AFF71
:103480000246204629469047204600F084F9002055
:10349000B0BD0A7802704A7842708A78CB781B02F5
:1034A0009A1842800A794B791B029A1882808A798D
:1034B000C97909028918C180704770B582B00D467C
:1034C000044601A900200880694608702A78602116
:1034D0001140002910D0202938D169780A460A3ACB
:1034E000022A33D302291BD0032919D020462946AA
:1034F000FFF71AFF022029E069780B2913D00A2967
:103500000ED0062922D16888000A002221280ED078
:103510002228114616D101AE304600F051F80AE0DB
:10352000694601220EE0204600F035F90DE001AEBB
:10353000304600F031F801463288E888824200D3F4
:1035400002463280204600F0FBF8002002B070BD39
:10355000F0B581B0044682210326402532462B4631
:10356000FFF792FA02272046394632462B46FFF7EC
:103570008BFA204639462A46FFF74FFB002001B060
:10358000F0BD10B504468221FFF7AEFA02212046B5
:10359000FFF7AAFA002010BD014643208000064A2A
:1035A000125C09230020002A00D003460B80002A69
:1035B00001D1024878447047A01B0020A0110000F0
:1035C000014643208000064A125C22230020002A84
:1035D00000D003460B80002A01D10248784470478E
:1035E000A01B00208111000080B5022903D10348EF
:1035F0007844FDF761FE002080BDC046A9DFFFFFD3
:10360000B0B502291CD1144602214022FFF705FB68
:103610000C4D2878002813D10220FDF75FFF0246E9
:103620000C4878442146FDF743FD022808D10120CB
:103630002870054807210170044800680449088083
:103640000020B0BDE41A0020FA1A0020D019002092
:10365000FC1A002077DFFFFF122008800148784421
:103660007047C0467A110000042008800148784461
:103670007047C0467C1100000E2008800148784445
:103680007047C046701100000E2008800148784441
:103690007047C0466E1100000A2008800148784437
:1036A0007047C0466C1100000E2008800148784425
:1036B0007047C0464E1100000E2008800148784433
:1036C0007047C0463E11000070B504464D2085008D
:1036D000104800212A46FDF7C9FD002C16D00D4CDC
:1036E0000026204631462A46FDF7C0FD0A497944A6
:1036F00020463246FFF7A4FA084A7A44304621466B
:10370000FFF7D7FA2046FFF7E2FA70BD0148FFF74E
:10371000B1FA70BDA01B002092100000A61000009E
:1037200029210180014878447047C046EE1000000E
:103730000A210180014878447047C0460A11000000
:10374000B0B50C46F4210223435013210901445023
:103750008261C261016A914200D80A4693B2002593
:1037600029462246FFF740FA2846B0BDB0B50C46C0
:10377000016A914200D80A4693B2002529462246A2
:10378000FFF732FA2846B0BD10B500242146FFF7F6
:1037900044FA204610BD10B5F42104224250002402
:1037A000214622462346FFF71FFA204610BD10B5DA
:1037B000F42105224250002421462246FFF72DFA2B
:1037C000204610BD002243088B4274D303098B426C
:1037D0005FD3030A8B4244D3030B8B4228D3030CE1
:1037E0008B420DD3FF22090212BA030C8B4202D383
:1037F0001212090265D0030B8B4219D300E0090AAB
:10380000C30B8B4201D3CB03C01A5241830B8B42B3
:1038100001D38B03C01A5241430B8B4201D34B039C
:10382000C01A5241030B8B4201D30B03C01A524101
:10383000C30A8B4201D3CB02C01A5241830A8B4286
:1038400001D38B02C01A5241430A8B4201D34B026F
:10385000C01A5241030A8B4201D30B02C01A5241D3
:10386000CDD2C3098B4201D3CB01C01A5241830987
:103870008B4201D38B01C01A524143098B4201D3C1
:103880004B01C01A524103098B4201D30B01C01AEC
:103890005241C3088B4201D3CB00C01A5241830866
:1038A0008B4201D38B00C01A524143088B4201D393
:1038B0004B00C01A5241411A00D2014652411046F3
:1038C0007047FFE701B5002000F006F802BDC046D2
:1038D0000029F7D076E770477047C046002B11D11A
:1038E000002A0FD1002900D1002802D00021C943AD
:1038F000081C07B4024802A14018029003BDC0464C
:10390000D9FFFFFF03B4684601B5029800F030F814
:10391000019B9E4602B00CBC7047C046F0B5CE4637
:10392000474615042D0C2E0080B50704140C3F0CDF
:103930009946030C7E435D43674363437F19340C10
:10394000E4199C46A54203D980235B029846C444EF
:103950004B4643435143250C36046544360C24043E
:10396000A4195B19591820000CBC90469946F0BD6B
:10397000F0B54F464646D646C0B5040082B00D00AD
:10398000914698468B422FD82CD04146484600F0AD
:10399000B1F829000600200000F0ACF8331A9C466C
:1039A000203B9A4600D576E04B46524693401F0096
:1039B0004B46624693401E00AF4228D825D053465E
:1039C000A41BBD41002B00DA7BE000220023009203
:1039D0000193012352469340019301236246934091
:1039E000009318E08242D0D9002200230092019374
:1039F0000A9B002B01D01C605D600098019902B009
:103A00001CBC90469946A246F0BDA342D7D90022DD
:103A10000023009201936346002BE9D0FB079846F0
:103A2000414672080A437B0866460EE0AB4201D16C
:103A3000A2420CD8A41A9D41012024196D410021F5
:103A4000013E24184D41002E06D0AB42EED9013E76
:103A500024196D41002EF8D10098019953460019A0
:103A60006941002B23DB2B005246D3402A006446D9
:103A7000E2401C0053461500002B2DDB2600574664
:103A8000BE40330026006746BE403200801A99418E
:103A900000900191ACE7624620239B1A4A46DA4027
:103AA0006146130042468A4017001F4380E7624682
:103AB00020239B1A2A0066469A402300F3401343B2
:103AC000D4E76246202300219B1A00220091019234
:103AD0000122DA40019280E72023624626009B1AE9
:103AE000DE402F00B0466646B74046463B003343B3
:103AF000C8E7C04610B5002903D100F007F8203010
:103B000002E0081C00F002F810BDC0461C21012391
:103B10001B04984201D3000C10391B0A984201D3B0
:103B2000000A08391B09984201D30009043902A28E
:103B3000105C40187047C0460403020201010101F5
:103B4000000000000000000010B5002200F006F8A0
:103B500010BDC04610B500F009F810BD130010B537
:103B60000A00190000F046F810BDC046F0B50F2A53
:103B700038D90D0005430C000300AD0736D11027DE
:103B80001500BC46103D2D092E013618B444276897
:103B900066681F605E60A768E6689F60DE6010333D
:103BA00010346345F3D10F2401352D014919144018
:103BB0004519032C1CD90023CE58EE500433E61AC5
:103BC000032EF9D80323043CA4080134A4002D19C2
:103BD00009191A4005D00023CC5CEC540133934200
:103BE000FAD1F0BD0500002AF5D1FAE70500F2E7A9
:103BF0002200F8E7F0B5830746D0541E002A42D0D1
:103C0000CEB20200032502E01A00013C3BD3531C54
:103C100016702B42F8D1032C2DD9FF220A40150231
:103C200015432A0415430F2C16D92700103F3F09CE
:103C30003E01B4461E001A001036664415605560F9
:103C40009560D5601032B242F8D10F2201373F01A2
:103C5000DB191440032C0ED9261FB608B700BC464A
:103C60001A001F1D674420C2BA42FCD1032201364C
:103C7000B6009B191440002C05D0C9B21C1919704C
:103C800001339C42FBD1F0BD14000300C3E7C046E2
:103C9000F0C041464A4653465C466D4676467EC075
:103CA0002838F0C80020704710307CC890469946EC
:103CB000A246AB46B54608C82838F0C8081C00D153
:103CC0000120184710B5040083070AD00378002BA1
:103CD00023D0032202E00378002B1CD001301042D5
:103CE000F9D102680E4B0F49D31893430B420FD101
:103CF000043002680A4BD31893430B4208D10430B6
:103D00000268074BD31893430B42F1D000E0013017
:103D10000378002BFBD1001B10BD0020FCE7C04640
:103D2000FFFEFEFE8080808047656E65726174656F
:103D300020416464726573730066726F6D204B6519
:103D4000792023003F00436F6D70617265204164EC
:103D500064726573733A004D780000000300000040
:103D600000008000200000000100000000000000B2
:103D7000FFFFFF0000000000000000000000000046
:103D80000000000000000000000000000000000033
:103D900000000000050003000C0007000700000001
:103DA00000000000FFFFFF0000000000000007000F
:103DB0000000000000000000000000000000000003
:103DC0000000000000000000000000000500750079
:103DD0000D0008000600000000000000FFFFFF00CB
:103DE00000000000000006000000000000000000CD
:103DF00000000000000000000000000000000000C3
:103E000000000000070000000C0080000C00000013
:103E100000000000FFFFFF00000000000A8000001B
:103E20003519002000000000000000000000000024
:103E3000000000000000000000000000070000007B
:103E40001A0080000C00000000000000FFFFFF00CF
:103E5000000000000A8000005D1900200000000042
:103E60000000000000000000000000000000000052
:103E7000000000000300000000008000200000009F
:103E80000100000000000000FFFFFF000000000034
:103E90000000000000000000000000000000000022
:103EA0000000000000000000000000000501030009
:103EB0000C0007000700000000000000FFFFFF00EB
:103EC00000000000000009000000000000000000E9
:103ED00000000000000000000000000000000000E2
:103EE00000000000050275000D000800060000003B
:103EF00000000000FFFFFF000000000000000A00BB
:103F000000000000000000000000000000000000B1
:103F1000000000000000000000000000070000009A
:103F20000C0080000C00000000000000FFFFFF00FC
:103F3000000000000A800000351900200000000089
:103F40000000000000000000000000000000000071
:103F500000000000070000001A0080000C000000B4
:103F600000000000FFFFFF00000000000A800000CA
:103F7000B019002000000000000000000000000058
:103F80000000000000000000000000000000000031
:103F9000FFFFFF00E001FEC1FD387F06DF81FFC4A7
:103FA0007FF3FFBC1FE7E7F13FF807780000000050
:103FB0000E0000000E000000010000008C3FD0C089
:103FC000943FD0C000000000FFFFFF00E001FEC1F1
:103FD000FF387006D8797E9E9FE7E7B901E6C0F109
:103FE0003FF80778000000000E0000000E000000FF
:103FF00001000000C43FD0C0CC3FD0C00000000092
:104000000000000000000000000000006C40D0C074
:104010007840D0C000000000BC41D0C000000000CB
:1040200000000000000000008440D0C0000000003C
:104030000000000000000000B928D0C0000000000F
:10404000E83FD0C08A40D0C000000000321D000010
:104050000000000000000000000000000000000060
:1040600000000000000000000000000057616974BB
:10407000696E6720666F7200636F6D6D616E647349
:104080002E2E2E0041626F75740051756974206187
:1040900070700056657273696F6E00302E312E306D
:1040A000004261636B004572726F72206F636375CB
:1040B000727265643A205B3078253034785D200078
:1040C000496E76616C696420706172616D657465BA
:1040D000720A00537461636B206F766572666C6F51
:1040E000770A005365637572697479206572726F1F
:1040F000720A00496E76616C6964204352430A007B
:10410000496E76616C696420436865636B73756D95
:104110000A00496E76616C696420436F756E746540
:10412000720A00556E737570706F727465640A0060
:10413000496E76616C69642073746174650A005419
:10414000696D656F7574206572726F720A004170D7
:10415000702065786974206572726F720A00494F29
:10416000206F766572666C6F770A00494F2068652C
:10417000616465720A00494F2073746174650A00B6
:10418000435820706F72740A0053797374656D2000
:104190006572726F720A004E6F7420656E6F75677C
:1041A000682073706163650A00556E6B6E6F776E81
:1041B00020657863657074696F6E0A000000000006
:1041C0000000000000000000000000009340D0C08C
:1041D0009B40D0C000000000FC3FD0C000000000A9
:1041E00000000000B03FD0C0A140D0C000000000DF
:1041F0003D2800000000000000000000000000005A
:1042000000000000000000000000000000000000AE
:10421000303132333435363738396162636465663C
:10422000005369676E20696E666F20286265666F4D
:104230007265293A0A202564200A0A005369676ECC
:1042400020696E666F20286166746572293A0A20BB
:104250002564200A0A0072617720746C76207369E5
:10426000676E61747572653A0A20252E2A48200A05
:104270000A0064726F707065645F6669727374209F
:104280006275666665723A0A20252E2A48200A0A57
:1042900000616464726573733A0A204D78252E2A92
:1042A00068200A0A00000000426974636F696E208A
:1042B00073656564B001000000B0A7000000000055
:1042C00003800000000080002000000001000000CA
:1042D00000000000FFFFFF000000000000000000E1
:1042E00000000000000000000000000000000000CE
:1042F0000000000000000000058103000E00070020
:104300000400000000000000FFFFFF0000000000AC
:1043100000000B0000000000000000000000000092
:10432000000000000000000000000000000000008D
:10433000058276000E000700040000000000000067
:10434000FFFFFF000000000000000C000000000064
:10435000000000000000000000000000000000005D
:10436000000000000000000007410E000300640090
:104370000C00000000000000FFFFFF000000000034
:104380000A800000000000000000000000000000A3
:10439000000000000000000000000000000000001D
:1043A00007420E00230064000C0000000000000023
:1043B000FFFFFF00000000000A8000000000000076
:1043C00000000000000000000000000000000000ED
:1043D000000000000000000005100E0009000000B1
:1043E0000000000000000000FFFFFF0000000000D0
:1043F00000000000000000000000000000000000BD
:1044000000000000000000000000000000000000AC
:1044100007200E00130064000C00000000000000E4
:10442000FFFFFF0000000000088000000000000007
:10443000000000000000000000000000000000007C
:10444000000000000000000007210E000C006400C6
:104450000C00000000000000FFFFFF000000000053
:1044600008800000000000000000000000000000C4
:10447000000000000000000000000000000000003C
:1044800007220E001A0064000C000000000000006B
:10449000FFFFFF0000000000088000000000000097
:1044A000000000000000000000000000000000000C
:1044B00000000000000000000000000000000000FC
:1044C00000000000000000000000000000000000EC
:1044D000000000003031323334353637383961620C
:1044E00063646566303132333435363738394142AA
:1044F000434445464552524F52000000030000001D
:10450000000080002000000001000000000000000A
:10451000FFFFFF000000000000000000000000009E
:10452000000000000000000000000000000000008B
:1045300000000000050103000C0007000700000058
:1045400000000000FFFFFF00000000000000090065
:10455000000000000000000000000000000000005B
:1045600000000000000000000000000005027500CF
:104570000D0008000600000000000000FFFFFF0023
:104580000000000000000A00000000000000000021
:10459000000000000000000000000000000000001B
:1045A00000000000070000000C0080000C0000006C
:1045B00000000000FFFFFF00000000000A80000074
:1045C0001446D0C000000000000000000000000001
:1045D00000000000000000000000000007000000D4
:1045E0001A0080000C00000000000000FFFFFF0028
:1045F000000000000A800000BD190020000000003B
:1046000000000000000000000000000000000000AA
:1046100000000000436F6D7061726520486173682F
:1046200065733A0077697468204B657920230053DD
:1046300069676E20746869732048617368000000C0
:1046400003000000000080002000000001000000C6
:1046500000000000FFFFFF0000000000000000005D
:10466000000000000000000000000000000000004A
:104670000000000000000000050003000C0007001F
:104680000700000000000000FFFFFF000000000026
:104690000000070000000000000000000000000013
:1046A000000000000000000000000000000000000A
:1046B000050075000D000800060000000000000065
:1046C000FFFFFF00000000000000060000000000E7
:1046D00000000000000000000000000000000000DA
:1046E0000000000000000000070000000C00800037
:1046F0000C00000000000000FFFFFF0000000000B1
:104700000A8000002F46D0C000000000000000001A
:104710000000000000000000000000000000000099
:10472000070000001A0080000C00000000000000DC
:10473000FFFFFF00000000000A8000009519002024
:104740000000000000000000000000000000000069
:1047500000000000000000000921110100012222D8
:104760000006A0FF0901A1010903150026FF00753D
:1047700008954081080904150026FF00750895403A
:104780009108C0005936D0C06936D0C07936D0C043
:104790008936D0C09936D0C0A936D0C0B936D0C07D
:1047A000000000005135D0C08335D0C0BB34D0C02C
:1047B0000000000000000000E935D0C00136D0C084
:1047C0000000000000000000000000002137D0C001
:1047D0002137D0C02137D0C03137D0C012010002FC
:1047E00000000040972C01000002010203010403B5
:1047F00009040E034C006500640067006500720048
:104800000E034E0061006E006F00200053000A038B
:10481000300030003000310009022900010102C0DF
:104820003209040000020300000209211101000105
:104830002222000705820340000107050203400011
:10484000010000000A060002000000400100000014
:104850000000000000000000000000000000000058
:104860000000000000000000000000000000000048
:104870000000000000000000000000000000000038
:04000005C0D0000166
:00000001FF
